{
  "_format": "hh-sol-artifact-1",
  "contractName": "ParkingPayment",
  "sourceName": "contracts/ParkingPayment/ParkingPayment.sol",
  "abi": [
    {
      "inputs": [
        {
          "internalType": "address",
          "name": "trustedForwarder",
          "type": "address"
        }
      ],
      "stateMutability": "nonpayable",
      "type": "constructor"
    },
    {
      "inputs": [
        {
          "internalType": "address",
          "name": "target",
          "type": "address"
        }
      ],
      "name": "AddressEmptyCode",
      "type": "error"
    },
    {
      "inputs": [
        {
          "internalType": "address",
          "name": "implementation",
          "type": "address"
        }
      ],
      "name": "ERC1967InvalidImplementation",
      "type": "error"
    },
    {
      "inputs": [],
      "name": "ERC1967NonPayable",
      "type": "error"
    },
    {
      "inputs": [],
      "name": "FailedInnerCall",
      "type": "error"
    },
    {
      "inputs": [],
      "name": "InvalidInitialization",
      "type": "error"
    },
    {
      "inputs": [],
      "name": "NotInitializing",
      "type": "error"
    },
    {
      "inputs": [
        {
          "internalType": "address",
          "name": "owner",
          "type": "address"
        }
      ],
      "name": "OwnableInvalidOwner",
      "type": "error"
    },
    {
      "inputs": [
        {
          "internalType": "address",
          "name": "account",
          "type": "address"
        }
      ],
      "name": "OwnableUnauthorizedAccount",
      "type": "error"
    },
    {
      "inputs": [],
      "name": "UUPSUnauthorizedCallContext",
      "type": "error"
    },
    {
      "inputs": [
        {
          "internalType": "bytes32",
          "name": "slot",
          "type": "bytes32"
        }
      ],
      "name": "UUPSUnsupportedProxiableUUID",
      "type": "error"
    },
    {
      "anonymous": false,
      "inputs": [
        {
          "indexed": true,
          "internalType": "address",
          "name": "user",
          "type": "address"
        },
        {
          "indexed": true,
          "internalType": "address",
          "name": "tokenAddress",
          "type": "address"
        },
        {
          "indexed": false,
          "internalType": "uint256",
          "name": "amount",
          "type": "uint256"
        },
        {
          "indexed": false,
          "internalType": "address",
          "name": "parkingOwner",
          "type": "address"
        }
      ],
      "name": "DepositMade",
      "type": "event"
    },
    {
      "anonymous": false,
      "inputs": [
        {
          "indexed": true,
          "internalType": "address",
          "name": "user",
          "type": "address"
        },
        {
          "indexed": true,
          "internalType": "address",
          "name": "tokenAddress",
          "type": "address"
        },
        {
          "indexed": false,
          "internalType": "uint256",
          "name": "entryTime",
          "type": "uint256"
        }
      ],
      "name": "EntryRecorded",
      "type": "event"
    },
    {
      "anonymous": false,
      "inputs": [
        {
          "indexed": true,
          "internalType": "address",
          "name": "user",
          "type": "address"
        },
        {
          "indexed": true,
          "internalType": "address",
          "name": "tokenAddress",
          "type": "address"
        },
        {
          "indexed": false,
          "internalType": "uint256",
          "name": "parkedMinutes",
          "type": "uint256"
        },
        {
          "indexed": false,
          "internalType": "uint256",
          "name": "netParkingFee",
          "type": "uint256"
        },
        {
          "indexed": false,
          "internalType": "uint256",
          "name": "systemFee",
          "type": "uint256"
        }
      ],
      "name": "ExitRecorded",
      "type": "event"
    },
    {
      "anonymous": false,
      "inputs": [
        {
          "indexed": true,
          "internalType": "address",
          "name": "user",
          "type": "address"
        },
        {
          "indexed": true,
          "internalType": "address",
          "name": "tokenAddress",
          "type": "address"
        },
        {
          "indexed": false,
          "internalType": "uint256",
          "name": "amount",
          "type": "uint256"
        }
      ],
      "name": "FundsWithdrawn",
      "type": "event"
    },
    {
      "anonymous": false,
      "inputs": [
        {
          "indexed": false,
          "internalType": "uint64",
          "name": "version",
          "type": "uint64"
        }
      ],
      "name": "Initialized",
      "type": "event"
    },
    {
      "anonymous": false,
      "inputs": [
        {
          "indexed": true,
          "internalType": "address",
          "name": "previousOwner",
          "type": "address"
        },
        {
          "indexed": true,
          "internalType": "address",
          "name": "newOwner",
          "type": "address"
        }
      ],
      "name": "OwnershipTransferred",
      "type": "event"
    },
    {
      "anonymous": false,
      "inputs": [
        {
          "indexed": true,
          "internalType": "address",
          "name": "implementation",
          "type": "address"
        }
      ],
      "name": "Upgraded",
      "type": "event"
    },
    {
      "inputs": [],
      "name": "UPGRADE_INTERFACE_VERSION",
      "outputs": [
        {
          "internalType": "string",
          "name": "",
          "type": "string"
        }
      ],
      "stateMutability": "view",
      "type": "function"
    },
    {
      "inputs": [],
      "name": "WITHDRAWAL_DELAY",
      "outputs": [
        {
          "internalType": "uint256",
          "name": "",
          "type": "uint256"
        }
      ],
      "stateMutability": "view",
      "type": "function"
    },
    {
      "inputs": [
        {
          "internalType": "address",
          "name": "_parkOwner",
          "type": "address"
        }
      ],
      "name": "addParkingOwner",
      "outputs": [],
      "stateMutability": "nonpayable",
      "type": "function"
    },
    {
      "inputs": [
        {
          "internalType": "address",
          "name": "tokenAddress",
          "type": "address"
        },
        {
          "internalType": "uint256",
          "name": "amount",
          "type": "uint256"
        },
        {
          "internalType": "address",
          "name": "parkingOwner",
          "type": "address"
        }
      ],
      "name": "depositTokens",
      "outputs": [],
      "stateMutability": "nonpayable",
      "type": "function"
    },
    {
      "inputs": [
        {
          "internalType": "address",
          "name": "",
          "type": "address"
        },
        {
          "internalType": "address",
          "name": "",
          "type": "address"
        }
      ],
      "name": "deposits",
      "outputs": [
        {
          "internalType": "uint256",
          "name": "",
          "type": "uint256"
        }
      ],
      "stateMutability": "view",
      "type": "function"
    },
    {
      "inputs": [
        {
          "internalType": "address",
          "name": "",
          "type": "address"
        }
      ],
      "name": "designatedOwner",
      "outputs": [
        {
          "internalType": "address",
          "name": "",
          "type": "address"
        }
      ],
      "stateMutability": "view",
      "type": "function"
    },
    {
      "inputs": [
        {
          "internalType": "address",
          "name": "userAddress",
          "type": "address"
        },
        {
          "internalType": "address",
          "name": "tokenAddress",
          "type": "address"
        }
      ],
      "name": "getDepositBalance",
      "outputs": [
        {
          "internalType": "uint256",
          "name": "",
          "type": "uint256"
        }
      ],
      "stateMutability": "view",
      "type": "function"
    },
    {
      "inputs": [
        {
          "internalType": "address",
          "name": "initialOwner",
          "type": "address"
        },
        {
          "internalType": "uint256",
          "name": "_ratePerMinute",
          "type": "uint256"
        }
      ],
      "name": "initialize",
      "outputs": [],
      "stateMutability": "nonpayable",
      "type": "function"
    },
    {
      "inputs": [
        {
          "internalType": "address",
          "name": "forwarder",
          "type": "address"
        }
      ],
      "name": "isTrustedForwarder",
      "outputs": [
        {
          "internalType": "bool",
          "name": "",
          "type": "bool"
        }
      ],
      "stateMutability": "view",
      "type": "function"
    },
    {
      "inputs": [],
      "name": "owner",
      "outputs": [
        {
          "internalType": "address",
          "name": "",
          "type": "address"
        }
      ],
      "stateMutability": "view",
      "type": "function"
    },
    {
      "inputs": [
        {
          "internalType": "address",
          "name": "",
          "type": "address"
        }
      ],
      "name": "parkingStatus",
      "outputs": [
        {
          "internalType": "bool",
          "name": "isParked",
          "type": "bool"
        },
        {
          "internalType": "uint256",
          "name": "entryTime",
          "type": "uint256"
        },
        {
          "internalType": "address",
          "name": "tokenAddress",
          "type": "address"
        }
      ],
      "stateMutability": "view",
      "type": "function"
    },
    {
      "inputs": [],
      "name": "proxiableUUID",
      "outputs": [
        {
          "internalType": "bytes32",
          "name": "",
          "type": "bytes32"
        }
      ],
      "stateMutability": "view",
      "type": "function"
    },
    {
      "inputs": [],
      "name": "ratePerMinute",
      "outputs": [
        {
          "internalType": "uint256",
          "name": "",
          "type": "uint256"
        }
      ],
      "stateMutability": "view",
      "type": "function"
    },
    {
      "inputs": [
        {
          "internalType": "address",
          "name": "userAddress",
          "type": "address"
        },
        {
          "internalType": "address",
          "name": "tokenAddress",
          "type": "address"
        }
      ],
      "name": "recordEntry",
      "outputs": [],
      "stateMutability": "nonpayable",
      "type": "function"
    },
    {
      "inputs": [
        {
          "internalType": "address",
          "name": "userAddress",
          "type": "address"
        }
      ],
      "name": "recordExit",
      "outputs": [],
      "stateMutability": "nonpayable",
      "type": "function"
    },
    {
      "inputs": [
        {
          "internalType": "address",
          "name": "_parkOwner",
          "type": "address"
        }
      ],
      "name": "removeParkingOwner",
      "outputs": [],
      "stateMutability": "nonpayable",
      "type": "function"
    },
    {
      "inputs": [],
      "name": "renounceOwnership",
      "outputs": [],
      "stateMutability": "nonpayable",
      "type": "function"
    },
    {
      "inputs": [
        {
          "internalType": "uint256",
          "name": "newRate",
          "type": "uint256"
        }
      ],
      "name": "setParkingRate",
      "outputs": [],
      "stateMutability": "nonpayable",
      "type": "function"
    },
    {
      "inputs": [
        {
          "internalType": "address",
          "name": "newOwner",
          "type": "address"
        }
      ],
      "name": "transferOwnership",
      "outputs": [],
      "stateMutability": "nonpayable",
      "type": "function"
    },
    {
      "inputs": [],
      "name": "trustedForwarder",
      "outputs": [
        {
          "internalType": "address",
          "name": "",
          "type": "address"
        }
      ],
      "stateMutability": "view",
      "type": "function"
    },
    {
      "inputs": [
        {
          "internalType": "address",
          "name": "newImplementation",
          "type": "address"
        },
        {
          "internalType": "bytes",
          "name": "data",
          "type": "bytes"
        }
      ],
      "name": "upgradeToAndCall",
      "outputs": [],
      "stateMutability": "payable",
      "type": "function"
    },
    {
      "inputs": [
        {
          "internalType": "address",
          "name": "",
          "type": "address"
        }
      ],
      "name": "validParkingOwners",
      "outputs": [
        {
          "internalType": "bool",
          "name": "",
          "type": "bool"
        }
      ],
      "stateMutability": "view",
      "type": "function"
    },
    {
      "inputs": [
        {
          "internalType": "address",
          "name": "userAddress",
          "type": "address"
        },
        {
          "internalType": "address",
          "name": "tokenAddress",
          "type": "address"
        }
      ],
      "name": "withdrawRemainingFunds",
      "outputs": [],
      "stateMutability": "nonpayable",
      "type": "function"
    }
  ],
  "bytecode": "0x60c06040523073ffffffffffffffffffffffffffffffffffffffff1660809073ffffffffffffffffffffffffffffffffffffffff168152503480156200004457600080fd5b5060405162003f0938038062003f0983398181016040528101906200006a919062000111565b808073ffffffffffffffffffffffffffffffffffffffff1660a08173ffffffffffffffffffffffffffffffffffffffff1681525050505062000143565b600080fd5b600073ffffffffffffffffffffffffffffffffffffffff82169050919050565b6000620000d982620000ac565b9050919050565b620000eb81620000cc565b8114620000f757600080fd5b50565b6000815190506200010b81620000e0565b92915050565b6000602082840312156200012a5762000129620000a7565b5b60006200013a84828501620000fa565b91505092915050565b60805160a051613d926200017760003960006112a70152600081816121c40152818161221901526123d40152613d926000f3fe6080604052600436106101405760003560e01c80636186d53c116100b657806392f471201161006f57806392f471201461044d5780639cdf438214610476578063ad3cb1cc1461049f578063cd6dc687146104ca578063d5da8db0146104f3578063f2fde38b1461053257610140565b80636186d53c1461033d5780636a5257701461037a578063715018a6146103a35780637da0a877146103ba5780638da5cb5b146103e55780638f601f661461041057610140565b80633526a992116101085780633526a9921461023e5780633a1e7d10146102675780634f1ef2861461029057806352d1902d146102ac578063547325fc146102d7578063572b6c051461030057610140565b80630886dd89146101455780630ae112a4146101705780630ebb172a146101ad578063298e4f79146101d85780632f920c4e14610201575b600080fd5b34801561015157600080fd5b5061015a61055b565b6040516101679190612a8d565b60405180910390f35b34801561017c57600080fd5b5061019760048036038101906101929190612b1a565b610561565b6040516101a49190612a8d565b60405180910390f35b3480156101b957600080fd5b506101c26105e8565b6040516101cf9190612a8d565b60405180910390f35b3480156101e457600080fd5b506101ff60048036038101906101fa9190612b86565b6105ee565b005b34801561020d57600080fd5b5061022860048036038101906102239190612bd9565b610974565b6040516102359190612c21565b60405180910390f35b34801561024a57600080fd5b5061026560048036038101906102609190612bd9565b610994565b005b34801561027357600080fd5b5061028e60048036038101906102899190612c3c565b6109f7565b005b6102aa60048036038101906102a59190612daf565b610a09565b005b3480156102b857600080fd5b506102c1610a28565b6040516102ce9190612e24565b60405180910390f35b3480156102e357600080fd5b506102fe60048036038101906102f99190612bd9565b610a5b565b005b34801561030c57600080fd5b5061032760048036038101906103229190612bd9565b6111ba565b6040516103349190612c21565b60405180910390f35b34801561034957600080fd5b50610364600480360381019061035f9190612bd9565b6111f9565b6040516103719190612e4e565b60405180910390f35b34801561038657600080fd5b506103a1600480360381019061039c9190612bd9565b61122c565b005b3480156103af57600080fd5b506103b861128f565b005b3480156103c657600080fd5b506103cf6112a3565b6040516103dc9190612e4e565b60405180910390f35b3480156103f157600080fd5b506103fa6112cb565b6040516104079190612e4e565b60405180910390f35b34801561041c57600080fd5b5061043760048036038101906104329190612b1a565b611303565b6040516104449190612a8d565b60405180910390f35b34801561045957600080fd5b50610474600480360381019061046f9190612b1a565b611328565b005b34801561048257600080fd5b5061049d60048036038101906104989190612b1a565b6119a7565b005b3480156104ab57600080fd5b506104b4611e7d565b6040516104c19190612ee8565b60405180910390f35b3480156104d657600080fd5b506104f160048036038101906104ec9190612f0a565b611eb6565b005b3480156104ff57600080fd5b5061051a60048036038101906105159190612bd9565b61205e565b60405161052993929190612f4a565b60405180910390f35b34801561053e57600080fd5b5061055960048036038101906105549190612bd9565b6120b5565b005b60005481565b6000600260008473ffffffffffffffffffffffffffffffffffffffff1673ffffffffffffffffffffffffffffffffffffffff16815260200190815260200160002060008373ffffffffffffffffffffffffffffffffffffffff1673ffffffffffffffffffffffffffffffffffffffff16815260200190815260200160002054905092915050565b60015481565b60008211610631576040517f08c379a000000000000000000000000000000000000000000000000000000000815260040161062890612ff3565b60405180910390fd5b600073ffffffffffffffffffffffffffffffffffffffff168373ffffffffffffffffffffffffffffffffffffffff16036106a0576040517f08c379a00000000000000000000000000000000000000000000000000000000081526004016106979061305f565b60405180910390fd5b600360008273ffffffffffffffffffffffffffffffffffffffff1673ffffffffffffffffffffffffffffffffffffffff16815260200190815260200160002060009054906101000a900460ff1661072c576040517f08c379a0000000000000000000000000000000000000000000000000000000008152600401610723906130cb565b60405180910390fd5b600083905060008173ffffffffffffffffffffffffffffffffffffffff166323b872dd3330876040518463ffffffff1660e01b8152600401610770939291906130eb565b6020604051808303816000875af115801561078f573d6000803e3d6000fd5b505050506040513d601f19601f820116820180604052508101906107b3919061314e565b9050806107f5576040517f08c379a00000000000000000000000000000000000000000000000000000000081526004016107ec906131c7565b60405180910390fd5b83600260003373ffffffffffffffffffffffffffffffffffffffff1673ffffffffffffffffffffffffffffffffffffffff16815260200190815260200160002060008773ffffffffffffffffffffffffffffffffffffffff1673ffffffffffffffffffffffffffffffffffffffff16815260200190815260200160002060008282546108819190613216565b9250508190555082600460003373ffffffffffffffffffffffffffffffffffffffff1673ffffffffffffffffffffffffffffffffffffffff16815260200190815260200160002060006101000a81548173ffffffffffffffffffffffffffffffffffffffff021916908373ffffffffffffffffffffffffffffffffffffffff1602179055508473ffffffffffffffffffffffffffffffffffffffff163373ffffffffffffffffffffffffffffffffffffffff167f5bb645d0c5d8afd451c0bafa18b92fea572a1656ae933b2acc5bb7d32543f25d868660405161096592919061324a565b60405180910390a35050505050565b60036020528060005260406000206000915054906101000a900460ff1681565b61099c61213b565b6001600360008373ffffffffffffffffffffffffffffffffffffffff1673ffffffffffffffffffffffffffffffffffffffff16815260200190815260200160002060006101000a81548160ff02191690831515021790555050565b6109ff61213b565b8060008190555050565b610a116121c2565b610a1a826122a8565b610a2482826122b3565b5050565b6000610a326123d2565b7f360894a13ba1a3210667c828492db98dca3e2076cc3735a920a3ca505d382bbc60001b905090565b600073ffffffffffffffffffffffffffffffffffffffff168173ffffffffffffffffffffffffffffffffffffffff1603610aca576040517f08c379a0000000000000000000000000000000000000000000000000000000008152600401610ac1906132bf565b60405180910390fd5b600460008273ffffffffffffffffffffffffffffffffffffffff1673ffffffffffffffffffffffffffffffffffffffff16815260200190815260200160002060009054906101000a900473ffffffffffffffffffffffffffffffffffffffff1673ffffffffffffffffffffffffffffffffffffffff163373ffffffffffffffffffffffffffffffffffffffff1614610b97576040517f08c379a0000000000000000000000000000000000000000000000000000000008152600401610b8e90613351565b60405180910390fd5b600560008273ffffffffffffffffffffffffffffffffffffffff1673ffffffffffffffffffffffffffffffffffffffff16815260200190815260200160002060000160009054906101000a900460ff16610c26576040517f08c379a0000000000000000000000000000000000000000000000000000000008152600401610c1d906133bd565b60405180910390fd5b6000603c600560008473ffffffffffffffffffffffffffffffffffffffff1673ffffffffffffffffffffffffffffffffffffffff1681526020019081526020016000206001015442610c7891906133dd565b610c829190613440565b90506000610c8f82612459565b90506000600560008573ffffffffffffffffffffffffffffffffffffffff1673ffffffffffffffffffffffffffffffffffffffff16815260200190815260200160002060020160009054906101000a900473ffffffffffffffffffffffffffffffffffffffff16905081600260008673ffffffffffffffffffffffffffffffffffffffff1673ffffffffffffffffffffffffffffffffffffffff16815260200190815260200160002060008373ffffffffffffffffffffffffffffffffffffffff1673ffffffffffffffffffffffffffffffffffffffff168152602001908152602001600020541015610db7576040517f08c379a0000000000000000000000000000000000000000000000000000000008152600401610dae906134bd565b60405180910390fd5b60006064600384610dc891906134dd565b610dd29190613440565b905060008184610de291906133dd565b905060008373ffffffffffffffffffffffffffffffffffffffff1663a9059cbb600460008a73ffffffffffffffffffffffffffffffffffffffff1673ffffffffffffffffffffffffffffffffffffffff16815260200190815260200160002060009054906101000a900473ffffffffffffffffffffffffffffffffffffffff16846040518363ffffffff1660e01b8152600401610e8092919061351f565b6020604051808303816000875af1158015610e9f573d6000803e3d6000fd5b505050506040513d601f19601f82011682018060405250810190610ec3919061314e565b905080610f05576040517f08c379a0000000000000000000000000000000000000000000000000000000008152600401610efc90613594565b60405180910390fd5b8373ffffffffffffffffffffffffffffffffffffffff1663a9059cbb610f296112cb565b856040518363ffffffff1660e01b8152600401610f4792919061351f565b6020604051808303816000875af1158015610f66573d6000803e3d6000fd5b505050506040513d601f19601f82011682018060405250810190610f8a919061314e565b905080610fcc576040517f08c379a0000000000000000000000000000000000000000000000000000000008152600401610fc390613600565b60405180910390fd5b84600260008973ffffffffffffffffffffffffffffffffffffffff1673ffffffffffffffffffffffffffffffffffffffff16815260200190815260200160002060008673ffffffffffffffffffffffffffffffffffffffff1673ffffffffffffffffffffffffffffffffffffffff168152602001908152602001600020600082825461105891906133dd565b92505081905550604051806060016040528060001515815260200160008152602001600073ffffffffffffffffffffffffffffffffffffffff16815250600560008973ffffffffffffffffffffffffffffffffffffffff1673ffffffffffffffffffffffffffffffffffffffff16815260200190815260200160002060008201518160000160006101000a81548160ff0219169083151502179055506020820151816001015560408201518160020160006101000a81548173ffffffffffffffffffffffffffffffffffffffff021916908373ffffffffffffffffffffffffffffffffffffffff1602179055509050508373ffffffffffffffffffffffffffffffffffffffff168773ffffffffffffffffffffffffffffffffffffffff167f4560d298b9dd5281513e9cbe8e99d0c56402bcebfcc737160f2bf292a36362668885876040516111a993929190613620565b60405180910390a350505050505050565b60006111c46112a3565b73ffffffffffffffffffffffffffffffffffffffff168273ffffffffffffffffffffffffffffffffffffffff16149050919050565b60046020528060005260406000206000915054906101000a900473ffffffffffffffffffffffffffffffffffffffff1681565b61123461213b565b6000600360008373ffffffffffffffffffffffffffffffffffffffff1673ffffffffffffffffffffffffffffffffffffffff16815260200190815260200160002060006101000a81548160ff02191690831515021790555050565b61129761213b565b6112a1600061246f565b565b60007f0000000000000000000000000000000000000000000000000000000000000000905090565b6000806112d6612546565b90508060000160009054906101000a900473ffffffffffffffffffffffffffffffffffffffff1691505090565b6002602052816000526040600020602052806000526040600020600091509150505481565b600073ffffffffffffffffffffffffffffffffffffffff168273ffffffffffffffffffffffffffffffffffffffff1603611397576040517f08c379a000000000000000000000000000000000000000000000000000000000815260040161138e906132bf565b60405180910390fd5b600073ffffffffffffffffffffffffffffffffffffffff168173ffffffffffffffffffffffffffffffffffffffff1603611406576040517f08c379a00000000000000000000000000000000000000000000000000000000081526004016113fd9061305f565b60405180910390fd5b6000600260008473ffffffffffffffffffffffffffffffffffffffff1673ffffffffffffffffffffffffffffffffffffffff16815260200190815260200160002060008373ffffffffffffffffffffffffffffffffffffffff1673ffffffffffffffffffffffffffffffffffffffff16815260200190815260200160002054116114c5576040517f08c379a00000000000000000000000000000000000000000000000000000000081526004016114bc906136a3565b60405180910390fd5b8173ffffffffffffffffffffffffffffffffffffffff163373ffffffffffffffffffffffffffffffffffffffff16148061153157506115026112cb565b73ffffffffffffffffffffffffffffffffffffffff163373ffffffffffffffffffffffffffffffffffffffff16145b611570576040517f08c379a000000000000000000000000000000000000000000000000000000000815260040161156790613735565b60405180910390fd5b8173ffffffffffffffffffffffffffffffffffffffff163373ffffffffffffffffffffffffffffffffffffffff160361163657600154600560008473ffffffffffffffffffffffffffffffffffffffff1673ffffffffffffffffffffffffffffffffffffffff168152602001908152602001600020600101546115f39190613216565b421015611635576040517f08c379a000000000000000000000000000000000000000000000000000000000815260040161162c906137c7565b60405180910390fd5b5b6000600260008473ffffffffffffffffffffffffffffffffffffffff1673ffffffffffffffffffffffffffffffffffffffff16815260200190815260200160002060008373ffffffffffffffffffffffffffffffffffffffff1673ffffffffffffffffffffffffffffffffffffffff1681526020019081526020016000205490506000829050818173ffffffffffffffffffffffffffffffffffffffff166370a08231306040518263ffffffff1660e01b81526004016116f69190612e4e565b602060405180830381865afa158015611713573d6000803e3d6000fd5b505050506040513d601f19601f8201168201806040525081019061173791906137fc565b1015611778576040517f08c379a000000000000000000000000000000000000000000000000000000000815260040161176f9061389b565b60405180910390fd5b60008173ffffffffffffffffffffffffffffffffffffffff1663a9059cbb86856040518363ffffffff1660e01b81526004016117b592919061351f565b6020604051808303816000875af11580156117d4573d6000803e3d6000fd5b505050506040513d601f19601f820116820180604052508101906117f8919061314e565b90508061183a576040517f08c379a000000000000000000000000000000000000000000000000000000000815260040161183190613907565b60405180910390fd5b6000600260008773ffffffffffffffffffffffffffffffffffffffff1673ffffffffffffffffffffffffffffffffffffffff16815260200190815260200160002060008673ffffffffffffffffffffffffffffffffffffffff1673ffffffffffffffffffffffffffffffffffffffff168152602001908152602001600020819055506000600460008773ffffffffffffffffffffffffffffffffffffffff1673ffffffffffffffffffffffffffffffffffffffff16815260200190815260200160002060006101000a81548173ffffffffffffffffffffffffffffffffffffffff021916908373ffffffffffffffffffffffffffffffffffffffff1602179055508373ffffffffffffffffffffffffffffffffffffffff168573ffffffffffffffffffffffffffffffffffffffff167fa92ff919b850e4909ab2261d907ef955f11bc1716733a6cbece38d163a69af8a856040516119989190612a8d565b60405180910390a35050505050565b600073ffffffffffffffffffffffffffffffffffffffff168273ffffffffffffffffffffffffffffffffffffffff1603611a16576040517f08c379a0000000000000000000000000000000000000000000000000000000008152600401611a0d906132bf565b60405180910390fd5b600073ffffffffffffffffffffffffffffffffffffffff168173ffffffffffffffffffffffffffffffffffffffff1603611a85576040517f08c379a0000000000000000000000000000000000000000000000000000000008152600401611a7c9061305f565b60405180910390fd5b600360003373ffffffffffffffffffffffffffffffffffffffff1673ffffffffffffffffffffffffffffffffffffffff16815260200190815260200160002060009054906101000a900460ff16611b11576040517f08c379a0000000000000000000000000000000000000000000000000000000008152600401611b0890613999565b60405180910390fd5b600460008373ffffffffffffffffffffffffffffffffffffffff1673ffffffffffffffffffffffffffffffffffffffff16815260200190815260200160002060009054906101000a900473ffffffffffffffffffffffffffffffffffffffff1673ffffffffffffffffffffffffffffffffffffffff163373ffffffffffffffffffffffffffffffffffffffff1614611bde576040517f08c379a0000000000000000000000000000000000000000000000000000000008152600401611bd590613a2b565b60405180910390fd5b6000600260008473ffffffffffffffffffffffffffffffffffffffff1673ffffffffffffffffffffffffffffffffffffffff16815260200190815260200160002060008373ffffffffffffffffffffffffffffffffffffffff1673ffffffffffffffffffffffffffffffffffffffff1681526020019081526020016000205411611c9d576040517f08c379a0000000000000000000000000000000000000000000000000000000008152600401611c9490613abd565b60405180910390fd5b600560008373ffffffffffffffffffffffffffffffffffffffff1673ffffffffffffffffffffffffffffffffffffffff16815260200190815260200160002060000160009054906101000a900460ff1615611d2d576040517f08c379a0000000000000000000000000000000000000000000000000000000008152600401611d2490613b29565b60405180910390fd5b60405180606001604052806001151581526020014281526020018273ffffffffffffffffffffffffffffffffffffffff16815250600560008473ffffffffffffffffffffffffffffffffffffffff1673ffffffffffffffffffffffffffffffffffffffff16815260200190815260200160002060008201518160000160006101000a81548160ff0219169083151502179055506020820151816001015560408201518160020160006101000a81548173ffffffffffffffffffffffffffffffffffffffff021916908373ffffffffffffffffffffffffffffffffffffffff1602179055509050508073ffffffffffffffffffffffffffffffffffffffff168273ffffffffffffffffffffffffffffffffffffffff167f9b115279725d5b3f95e9bc786b47beccc72133ffc90816351c17ee7ff991c0ca42604051611e719190612a8d565b60405180910390a35050565b6040518060400160405280600581526020017f352e302e3000000000000000000000000000000000000000000000000000000081525081565b6000611ec061256e565b905060008160000160089054906101000a900460ff1615905060008260000160009054906101000a900467ffffffffffffffff1690506000808267ffffffffffffffff16148015611f0e5750825b9050600060018367ffffffffffffffff16148015611f43575060003073ffffffffffffffffffffffffffffffffffffffff163b145b905081158015611f51575080155b15611f88576040517ff92ee8a900000000000000000000000000000000000000000000000000000000815260040160405180910390fd5b60018560000160006101000a81548167ffffffffffffffff021916908367ffffffffffffffff1602179055508315611fd85760018560000160086101000a81548160ff0219169083151502179055505b611fe187612596565b611fe96125aa565b8560008190555061070860018190555083156120555760008560000160086101000a81548160ff0219169083151502179055507fc7f505b2f371ae2175ee4913f4499e1f2633a7b5936321eed1cdaeb6115181d2600160405161204c9190613ba2565b60405180910390a15b50505050505050565b60056020528060005260406000206000915090508060000160009054906101000a900460ff16908060010154908060020160009054906101000a900473ffffffffffffffffffffffffffffffffffffffff16905083565b6120bd61213b565b600073ffffffffffffffffffffffffffffffffffffffff168173ffffffffffffffffffffffffffffffffffffffff160361212f5760006040517f1e4fbdf70000000000000000000000000000000000000000000000000000000081526004016121269190612e4e565b60405180910390fd5b6121388161246f565b50565b6121436125b4565b73ffffffffffffffffffffffffffffffffffffffff166121616112cb565b73ffffffffffffffffffffffffffffffffffffffff16146121c0576121846125b4565b6040517f118cdaa70000000000000000000000000000000000000000000000000000000081526004016121b79190612e4e565b60405180910390fd5b565b7f000000000000000000000000000000000000000000000000000000000000000073ffffffffffffffffffffffffffffffffffffffff163073ffffffffffffffffffffffffffffffffffffffff16148061226f57507f000000000000000000000000000000000000000000000000000000000000000073ffffffffffffffffffffffffffffffffffffffff166122566125c3565b73ffffffffffffffffffffffffffffffffffffffff1614155b156122a6576040517fe07c8dba00000000000000000000000000000000000000000000000000000000815260040160405180910390fd5b565b6122b061213b565b50565b8173ffffffffffffffffffffffffffffffffffffffff166352d1902d6040518163ffffffff1660e01b8152600401602060405180830381865afa92505050801561231b57506040513d601f19601f820116820180604052508101906123189190613be9565b60015b61235c57816040517f4c9c8ce30000000000000000000000000000000000000000000000000000000081526004016123539190612e4e565b60405180910390fd5b7f360894a13ba1a3210667c828492db98dca3e2076cc3735a920a3ca505d382bbc60001b81146123c357806040517faa1d49a40000000000000000000000000000000000000000000000000000000081526004016123ba9190612e24565b60405180910390fd5b6123cd838361261a565b505050565b7f000000000000000000000000000000000000000000000000000000000000000073ffffffffffffffffffffffffffffffffffffffff163073ffffffffffffffffffffffffffffffffffffffff1614612457576040517fe07c8dba00000000000000000000000000000000000000000000000000000000815260040160405180910390fd5b565b600080548261246891906134dd565b9050919050565b6000612479612546565b905060008160000160009054906101000a900473ffffffffffffffffffffffffffffffffffffffff169050828260000160006101000a81548173ffffffffffffffffffffffffffffffffffffffff021916908373ffffffffffffffffffffffffffffffffffffffff1602179055508273ffffffffffffffffffffffffffffffffffffffff168173ffffffffffffffffffffffffffffffffffffffff167f8be0079c531659141344cd1fd0a4f28419497f9722a3daafe3b4186f6b6457e060405160405180910390a3505050565b60007f9016d09d72d40fdae2fd8ceac6b6234c7706214fd39c1cd1e609a0528c199300905090565b60007ff0c57e16840df040f15088dc2f81fe391c3923bec73e23a9662efc9c229c6a00905090565b61259e61268d565b6125a7816126cd565b50565b6125b261268d565b565b60006125be612753565b905090565b60006125f17f360894a13ba1a3210667c828492db98dca3e2076cc3735a920a3ca505d382bbc60001b6127c8565b60000160009054906101000a900473ffffffffffffffffffffffffffffffffffffffff16905090565b612623826127d2565b8173ffffffffffffffffffffffffffffffffffffffff167fbc7cd75a20ee27fd9adebab32041f755214dbc6bffa90cc0225b39da2e5c2d3b60405160405180910390a26000815111156126805761267a828261289f565b50612689565b612688612923565b5b5050565b612695612960565b6126cb576040517fd7e6bcf800000000000000000000000000000000000000000000000000000000815260040160405180910390fd5b565b6126d561268d565b600073ffffffffffffffffffffffffffffffffffffffff168173ffffffffffffffffffffffffffffffffffffffff16036127475760006040517f1e4fbdf700000000000000000000000000000000000000000000000000000000815260040161273e9190612e4e565b60405180910390fd5b6127508161246f565b50565b600080600036905090506000612767612980565b9050612772336111ba565b801561277e5750808210155b156127b857600036828461279291906133dd565b9080926127a193929190613c20565b906127ac9190613c9f565b60601c925050506127c5565b6127c061298f565b925050505b90565b6000819050919050565b60008173ffffffffffffffffffffffffffffffffffffffff163b0361282e57806040517f4c9c8ce30000000000000000000000000000000000000000000000000000000081526004016128259190612e4e565b60405180910390fd5b8061285b7f360894a13ba1a3210667c828492db98dca3e2076cc3735a920a3ca505d382bbc60001b6127c8565b60000160006101000a81548173ffffffffffffffffffffffffffffffffffffffff021916908373ffffffffffffffffffffffffffffffffffffffff16021790555050565b60606000808473ffffffffffffffffffffffffffffffffffffffff16846040516128c99190613d45565b600060405180830381855af49150503d8060008114612904576040519150601f19603f3d011682016040523d82523d6000602084013e612909565b606091505b5091509150612919858383612997565b9250505092915050565b600034111561295e576040517fb398979f00000000000000000000000000000000000000000000000000000000815260040160405180910390fd5b565b600061296a61256e565b60000160089054906101000a900460ff16905090565b600061298a612a26565b905090565b600033905090565b6060826129ac576129a782612a2f565b612a1e565b600082511480156129d4575060008473ffffffffffffffffffffffffffffffffffffffff163b145b15612a1657836040517f9996b315000000000000000000000000000000000000000000000000000000008152600401612a0d9190612e4e565b60405180910390fd5b819050612a1f565b5b9392505050565b60006014905090565b600081511115612a425780518082602001fd5b6040517f1425ea4200000000000000000000000000000000000000000000000000000000815260040160405180910390fd5b6000819050919050565b612a8781612a74565b82525050565b6000602082019050612aa26000830184612a7e565b92915050565b6000604051905090565b600080fd5b600080fd5b600073ffffffffffffffffffffffffffffffffffffffff82169050919050565b6000612ae782612abc565b9050919050565b612af781612adc565b8114612b0257600080fd5b50565b600081359050612b1481612aee565b92915050565b60008060408385031215612b3157612b30612ab2565b5b6000612b3f85828601612b05565b9250506020612b5085828601612b05565b9150509250929050565b612b6381612a74565b8114612b6e57600080fd5b50565b600081359050612b8081612b5a565b92915050565b600080600060608486031215612b9f57612b9e612ab2565b5b6000612bad86828701612b05565b9350506020612bbe86828701612b71565b9250506040612bcf86828701612b05565b9150509250925092565b600060208284031215612bef57612bee612ab2565b5b6000612bfd84828501612b05565b91505092915050565b60008115159050919050565b612c1b81612c06565b82525050565b6000602082019050612c366000830184612c12565b92915050565b600060208284031215612c5257612c51612ab2565b5b6000612c6084828501612b71565b91505092915050565b600080fd5b600080fd5b6000601f19601f8301169050919050565b7f4e487b7100000000000000000000000000000000000000000000000000000000600052604160045260246000fd5b612cbc82612c73565b810181811067ffffffffffffffff82111715612cdb57612cda612c84565b5b80604052505050565b6000612cee612aa8565b9050612cfa8282612cb3565b919050565b600067ffffffffffffffff821115612d1a57612d19612c84565b5b612d2382612c73565b9050602081019050919050565b82818337600083830152505050565b6000612d52612d4d84612cff565b612ce4565b905082815260208101848484011115612d6e57612d6d612c6e565b5b612d79848285612d30565b509392505050565b600082601f830112612d9657612d95612c69565b5b8135612da6848260208601612d3f565b91505092915050565b60008060408385031215612dc657612dc5612ab2565b5b6000612dd485828601612b05565b925050602083013567ffffffffffffffff811115612df557612df4612ab7565b5b612e0185828601612d81565b9150509250929050565b6000819050919050565b612e1e81612e0b565b82525050565b6000602082019050612e396000830184612e15565b92915050565b612e4881612adc565b82525050565b6000602082019050612e636000830184612e3f565b92915050565b600081519050919050565b600082825260208201905092915050565b60005b83811015612ea3578082015181840152602081019050612e88565b60008484015250505050565b6000612eba82612e69565b612ec48185612e74565b9350612ed4818560208601612e85565b612edd81612c73565b840191505092915050565b60006020820190508181036000830152612f028184612eaf565b905092915050565b60008060408385031215612f2157612f20612ab2565b5b6000612f2f85828601612b05565b9250506020612f4085828601612b71565b9150509250929050565b6000606082019050612f5f6000830186612c12565b612f6c6020830185612a7e565b612f796040830184612e3f565b949350505050565b7f4465706f73697420616d6f756e74206d7573742062652067726561746572207460008201527f68616e207a65726f2e0000000000000000000000000000000000000000000000602082015250565b6000612fdd602983612e74565b9150612fe882612f81565b604082019050919050565b6000602082019050818103600083015261300c81612fd0565b9050919050565b7f546f6b656e20616464726573732063616e6e6f74206265207a65726f2e000000600082015250565b6000613049601d83612e74565b915061305482613013565b602082019050919050565b600060208201905081810360008301526130788161303c565b9050919050565b7f5061726b696e67206f776e6572206973206e6f7420726567697374657265642e600082015250565b60006130b5602083612e74565b91506130c08261307f565b602082019050919050565b600060208201905081810360008301526130e4816130a8565b9050919050565b60006060820190506131006000830186612e3f565b61310d6020830185612e3f565b61311a6040830184612a7e565b949350505050565b61312b81612c06565b811461313657600080fd5b50565b60008151905061314881613122565b92915050565b60006020828403121561316457613163612ab2565b5b600061317284828501613139565b91505092915050565b7f546f6b656e207472616e73666572206661696c65642e00000000000000000000600082015250565b60006131b1601683612e74565b91506131bc8261317b565b602082019050919050565b600060208201905081810360008301526131e0816131a4565b9050919050565b7f4e487b7100000000000000000000000000000000000000000000000000000000600052601160045260246000fd5b600061322182612a74565b915061322c83612a74565b9250828201905080821115613244576132436131e7565b5b92915050565b600060408201905061325f6000830185612a7e565b61326c6020830184612e3f565b9392505050565b7f5573657220616464726573732063616e6e6f74206265207a65726f2e00000000600082015250565b60006132a9601c83612e74565b91506132b482613273565b602082019050919050565b600060208201905081810360008301526132d88161329c565b9050919050565b7f4f6e6c792064657369676e61746564207061726b696e67206f776e657220636160008201527f6e207265636f726420657869742e000000000000000000000000000000000000602082015250565b600061333b602e83612e74565b9150613346826132df565b604082019050919050565b6000602082019050818103600083015261336a8161332e565b9050919050565b7f55736572206973206e6f742063757272656e746c79207061726b65642e000000600082015250565b60006133a7601d83612e74565b91506133b282613371565b602082019050919050565b600060208201905081810360008301526133d68161339a565b9050919050565b60006133e882612a74565b91506133f383612a74565b925082820390508181111561340b5761340a6131e7565b5b92915050565b7f4e487b7100000000000000000000000000000000000000000000000000000000600052601260045260246000fd5b600061344b82612a74565b915061345683612a74565b92508261346657613465613411565b5b828204905092915050565b7f496e73756666696369656e742066756e647320666f72207061796d656e742e00600082015250565b60006134a7601f83612e74565b91506134b282613471565b602082019050919050565b600060208201905081810360008301526134d68161349a565b9050919050565b60006134e882612a74565b91506134f383612a74565b925082820261350181612a74565b91508282048414831517613518576135176131e7565b5b5092915050565b60006040820190506135346000830185612e3f565b6135416020830184612a7e565b9392505050565b7f5061796d656e7420746f207061726b696e67206f776e6572206661696c65642e600082015250565b600061357e602083612e74565b915061358982613548565b602082019050919050565b600060208201905081810360008301526135ad81613571565b9050919050565b7f5061796d656e74206f662073797374656d20666565206661696c65642e000000600082015250565b60006135ea601d83612e74565b91506135f5826135b4565b602082019050919050565b60006020820190508181036000830152613619816135dd565b9050919050565b60006060820190506136356000830186612a7e565b6136426020830185612a7e565b61364f6040830184612a7e565b949350505050565b7f4e6f2072656d61696e696e672066756e647320746f2077697468647261772e00600082015250565b600061368d601f83612e74565b915061369882613657565b602082019050919050565b600060208201905081810360008301526136bc81613680565b9050919050565b7f4f6e6c79207468652075736572206f722074686520636f6e7472616374206f7760008201527f6e65722063616e20706572666f726d207468697320616374696f6e2e00000000602082015250565b600061371f603c83612e74565b915061372a826136c3565b604082019050919050565b6000602082019050818103600083015261374e81613712565b9050919050565b7f43616e6e6f74207769746864726177206265666f72652064656c61792070657260008201527f696f642e00000000000000000000000000000000000000000000000000000000602082015250565b60006137b1602483612e74565b91506137bc82613755565b604082019050919050565b600060208201905081810360008301526137e0816137a4565b9050919050565b6000815190506137f681612b5a565b92915050565b60006020828403121561381257613811612ab2565b5b6000613820848285016137e7565b91505092915050565b7f496e73756666696369656e742066756e647320696e2074686520636f6e74726160008201527f63742e0000000000000000000000000000000000000000000000000000000000602082015250565b6000613885602383612e74565b915061389082613829565b604082019050919050565b600060208201905081810360008301526138b481613878565b9050919050565b7f5769746864726177616c206661696c65642e0000000000000000000000000000600082015250565b60006138f1601283612e74565b91506138fc826138bb565b602082019050919050565b60006020820190508181036000830152613920816138e4565b9050919050565b7f4f6e6c792076616c6964207061726b696e67206f776e6572732063616e20726560008201527f636f726420656e7472792e000000000000000000000000000000000000000000602082015250565b6000613983602b83612e74565b915061398e82613927565b604082019050919050565b600060208201905081810360008301526139b281613976565b9050919050565b7f4f6e6c792064657369676e61746564207061726b696e67206f776e657220636160008201527f6e207265636f726420656e7472792e0000000000000000000000000000000000602082015250565b6000613a15602f83612e74565b9150613a20826139b9565b604082019050919050565b60006020820190508181036000830152613a4481613a08565b9050919050565b7f4e6f206465706f7369747320666f756e6420666f7220676976656e20746f6b6560008201527f6e20616e6420757365722e000000000000000000000000000000000000000000602082015250565b6000613aa7602b83612e74565b9150613ab282613a4b565b604082019050919050565b60006020820190508181036000830152613ad681613a9a565b9050919050565b7f5573657220616c7265616479207061726b65642e000000000000000000000000600082015250565b6000613b13601483612e74565b9150613b1e82613add565b602082019050919050565b60006020820190508181036000830152613b4281613b06565b9050919050565b6000819050919050565b600067ffffffffffffffff82169050919050565b6000819050919050565b6000613b8c613b87613b8284613b49565b613b67565b613b53565b9050919050565b613b9c81613b71565b82525050565b6000602082019050613bb76000830184613b93565b92915050565b613bc681612e0b565b8114613bd157600080fd5b50565b600081519050613be381613bbd565b92915050565b600060208284031215613bff57613bfe612ab2565b5b6000613c0d84828501613bd4565b91505092915050565b600080fd5b600080fd5b60008085851115613c3457613c33613c16565b5b83861115613c4557613c44613c1b565b5b6001850283019150848603905094509492505050565b600082905092915050565b60007fffffffffffffffffffffffffffffffffffffffff00000000000000000000000082169050919050565b600082821b905092915050565b6000613cab8383613c5b565b82613cb68135613c66565b92506014821015613cf657613cf17fffffffffffffffffffffffffffffffffffffffff00000000000000000000000083601403600802613c92565b831692505b505092915050565b600081519050919050565b600081905092915050565b6000613d1f82613cfe565b613d298185613d09565b9350613d39818560208601612e85565b80840191505092915050565b6000613d518284613d14565b91508190509291505056fea26469706673582212203bc5859c5febd8747c5946e57a36adf9e25a36a3d884a9f0b6b3d8a962777b9264736f6c63430008140033",
  "linkReferences": {},
  "deployedLinkReferences": {}
}