{
  "_format": "hh-sol-artifact-1",
  "contractName": "JST_V21",
  "sourceName": "contracts/V21/JST_V21.sol",
  "abi": [
    {
      "inputs": [
        {
          "internalType": "address",
          "name": "trustedForwarder",
          "type": "address"
        }
      ],
      "stateMutability": "nonpayable",
      "type": "constructor"
    },
    {
      "inputs": [
        {
          "internalType": "address",
          "name": "target",
          "type": "address"
        }
      ],
      "name": "AddressEmptyCode",
      "type": "error"
    },
    {
      "inputs": [],
      "name": "ECDSAInvalidSignature",
      "type": "error"
    },
    {
      "inputs": [
        {
          "internalType": "uint256",
          "name": "length",
          "type": "uint256"
        }
      ],
      "name": "ECDSAInvalidSignatureLength",
      "type": "error"
    },
    {
      "inputs": [
        {
          "internalType": "bytes32",
          "name": "s",
          "type": "bytes32"
        }
      ],
      "name": "ECDSAInvalidSignatureS",
      "type": "error"
    },
    {
      "inputs": [
        {
          "internalType": "address",
          "name": "implementation",
          "type": "address"
        }
      ],
      "name": "ERC1967InvalidImplementation",
      "type": "error"
    },
    {
      "inputs": [],
      "name": "ERC1967NonPayable",
      "type": "error"
    },
    {
      "inputs": [
        {
          "internalType": "address",
          "name": "spender",
          "type": "address"
        },
        {
          "internalType": "uint256",
          "name": "allowance",
          "type": "uint256"
        },
        {
          "internalType": "uint256",
          "name": "needed",
          "type": "uint256"
        }
      ],
      "name": "ERC20InsufficientAllowance",
      "type": "error"
    },
    {
      "inputs": [
        {
          "internalType": "address",
          "name": "sender",
          "type": "address"
        },
        {
          "internalType": "uint256",
          "name": "balance",
          "type": "uint256"
        },
        {
          "internalType": "uint256",
          "name": "needed",
          "type": "uint256"
        }
      ],
      "name": "ERC20InsufficientBalance",
      "type": "error"
    },
    {
      "inputs": [
        {
          "internalType": "address",
          "name": "approver",
          "type": "address"
        }
      ],
      "name": "ERC20InvalidApprover",
      "type": "error"
    },
    {
      "inputs": [
        {
          "internalType": "address",
          "name": "receiver",
          "type": "address"
        }
      ],
      "name": "ERC20InvalidReceiver",
      "type": "error"
    },
    {
      "inputs": [
        {
          "internalType": "address",
          "name": "sender",
          "type": "address"
        }
      ],
      "name": "ERC20InvalidSender",
      "type": "error"
    },
    {
      "inputs": [
        {
          "internalType": "address",
          "name": "spender",
          "type": "address"
        }
      ],
      "name": "ERC20InvalidSpender",
      "type": "error"
    },
    {
      "inputs": [
        {
          "internalType": "uint256",
          "name": "deadline",
          "type": "uint256"
        }
      ],
      "name": "ERC2612ExpiredSignature",
      "type": "error"
    },
    {
      "inputs": [
        {
          "internalType": "address",
          "name": "signer",
          "type": "address"
        },
        {
          "internalType": "address",
          "name": "owner",
          "type": "address"
        }
      ],
      "name": "ERC2612InvalidSigner",
      "type": "error"
    },
    {
      "inputs": [],
      "name": "FailedInnerCall",
      "type": "error"
    },
    {
      "inputs": [
        {
          "internalType": "address",
          "name": "account",
          "type": "address"
        },
        {
          "internalType": "uint256",
          "name": "currentNonce",
          "type": "uint256"
        }
      ],
      "name": "InvalidAccountNonce",
      "type": "error"
    },
    {
      "inputs": [],
      "name": "InvalidInitialization",
      "type": "error"
    },
    {
      "inputs": [],
      "name": "NotInitializing",
      "type": "error"
    },
    {
      "inputs": [
        {
          "internalType": "address",
          "name": "owner",
          "type": "address"
        }
      ],
      "name": "OwnableInvalidOwner",
      "type": "error"
    },
    {
      "inputs": [
        {
          "internalType": "address",
          "name": "account",
          "type": "address"
        }
      ],
      "name": "OwnableUnauthorizedAccount",
      "type": "error"
    },
    {
      "inputs": [],
      "name": "UUPSUnauthorizedCallContext",
      "type": "error"
    },
    {
      "inputs": [
        {
          "internalType": "bytes32",
          "name": "slot",
          "type": "bytes32"
        }
      ],
      "name": "UUPSUnsupportedProxiableUUID",
      "type": "error"
    },
    {
      "anonymous": false,
      "inputs": [
        {
          "indexed": true,
          "internalType": "address",
          "name": "owner",
          "type": "address"
        },
        {
          "indexed": true,
          "internalType": "address",
          "name": "spender",
          "type": "address"
        },
        {
          "indexed": false,
          "internalType": "uint256",
          "name": "value",
          "type": "uint256"
        }
      ],
      "name": "Approval",
      "type": "event"
    },
    {
      "anonymous": false,
      "inputs": [],
      "name": "EIP712DomainChanged",
      "type": "event"
    },
    {
      "anonymous": false,
      "inputs": [
        {
          "indexed": false,
          "internalType": "uint64",
          "name": "version",
          "type": "uint64"
        }
      ],
      "name": "Initialized",
      "type": "event"
    },
    {
      "anonymous": false,
      "inputs": [
        {
          "indexed": true,
          "internalType": "address",
          "name": "to",
          "type": "address"
        },
        {
          "indexed": true,
          "internalType": "uint256",
          "name": "amount",
          "type": "uint256"
        }
      ],
      "name": "MintEvent",
      "type": "event"
    },
    {
      "anonymous": false,
      "inputs": [
        {
          "indexed": true,
          "internalType": "address",
          "name": "newMinter",
          "type": "address"
        }
      ],
      "name": "MinterAdded",
      "type": "event"
    },
    {
      "anonymous": false,
      "inputs": [
        {
          "indexed": true,
          "internalType": "address",
          "name": "minter",
          "type": "address"
        }
      ],
      "name": "MinterRemoved",
      "type": "event"
    },
    {
      "anonymous": false,
      "inputs": [
        {
          "indexed": true,
          "internalType": "address",
          "name": "previousOwner",
          "type": "address"
        },
        {
          "indexed": true,
          "internalType": "address",
          "name": "newOwner",
          "type": "address"
        }
      ],
      "name": "OwnershipTransferred",
      "type": "event"
    },
    {
      "anonymous": false,
      "inputs": [
        {
          "indexed": true,
          "internalType": "address",
          "name": "from",
          "type": "address"
        },
        {
          "indexed": true,
          "internalType": "address",
          "name": "to",
          "type": "address"
        },
        {
          "indexed": false,
          "internalType": "uint256",
          "name": "value",
          "type": "uint256"
        }
      ],
      "name": "Transfer",
      "type": "event"
    },
    {
      "anonymous": false,
      "inputs": [
        {
          "indexed": true,
          "internalType": "address",
          "name": "implementation",
          "type": "address"
        }
      ],
      "name": "Upgraded",
      "type": "event"
    },
    {
      "inputs": [],
      "name": "DOMAIN_SEPARATOR",
      "outputs": [
        {
          "internalType": "bytes32",
          "name": "",
          "type": "bytes32"
        }
      ],
      "stateMutability": "view",
      "type": "function"
    },
    {
      "inputs": [],
      "name": "UPGRADE_INTERFACE_VERSION",
      "outputs": [
        {
          "internalType": "string",
          "name": "",
          "type": "string"
        }
      ],
      "stateMutability": "view",
      "type": "function"
    },
    {
      "inputs": [
        {
          "internalType": "address",
          "name": "minter",
          "type": "address"
        }
      ],
      "name": "addMinter",
      "outputs": [],
      "stateMutability": "nonpayable",
      "type": "function"
    },
    {
      "inputs": [
        {
          "internalType": "address",
          "name": "owner",
          "type": "address"
        },
        {
          "internalType": "address",
          "name": "spender",
          "type": "address"
        }
      ],
      "name": "allowance",
      "outputs": [
        {
          "internalType": "uint256",
          "name": "",
          "type": "uint256"
        }
      ],
      "stateMutability": "view",
      "type": "function"
    },
    {
      "inputs": [
        {
          "internalType": "address",
          "name": "spender",
          "type": "address"
        },
        {
          "internalType": "uint256",
          "name": "value",
          "type": "uint256"
        }
      ],
      "name": "approve",
      "outputs": [
        {
          "internalType": "bool",
          "name": "",
          "type": "bool"
        }
      ],
      "stateMutability": "nonpayable",
      "type": "function"
    },
    {
      "inputs": [
        {
          "internalType": "address",
          "name": "account",
          "type": "address"
        }
      ],
      "name": "balanceOf",
      "outputs": [
        {
          "internalType": "uint256",
          "name": "",
          "type": "uint256"
        }
      ],
      "stateMutability": "view",
      "type": "function"
    },
    {
      "inputs": [
        {
          "internalType": "address[]",
          "name": "to_addresses",
          "type": "address[]"
        },
        {
          "internalType": "uint256[]",
          "name": "amounts",
          "type": "uint256[]"
        }
      ],
      "name": "batchMint",
      "outputs": [],
      "stateMutability": "nonpayable",
      "type": "function"
    },
    {
      "inputs": [],
      "name": "decimals",
      "outputs": [
        {
          "internalType": "uint8",
          "name": "",
          "type": "uint8"
        }
      ],
      "stateMutability": "view",
      "type": "function"
    },
    {
      "inputs": [
        {
          "internalType": "address",
          "name": "minter",
          "type": "address"
        }
      ],
      "name": "deleteMinter",
      "outputs": [],
      "stateMutability": "nonpayable",
      "type": "function"
    },
    {
      "inputs": [],
      "name": "eip712Domain",
      "outputs": [
        {
          "internalType": "bytes1",
          "name": "fields",
          "type": "bytes1"
        },
        {
          "internalType": "string",
          "name": "name",
          "type": "string"
        },
        {
          "internalType": "string",
          "name": "version",
          "type": "string"
        },
        {
          "internalType": "uint256",
          "name": "chainId",
          "type": "uint256"
        },
        {
          "internalType": "address",
          "name": "verifyingContract",
          "type": "address"
        },
        {
          "internalType": "bytes32",
          "name": "salt",
          "type": "bytes32"
        },
        {
          "internalType": "uint256[]",
          "name": "extensions",
          "type": "uint256[]"
        }
      ],
      "stateMutability": "view",
      "type": "function"
    },
    {
      "inputs": [
        {
          "internalType": "address",
          "name": "initialOwner",
          "type": "address"
        }
      ],
      "name": "initialize",
      "outputs": [],
      "stateMutability": "nonpayable",
      "type": "function"
    },
    {
      "inputs": [
        {
          "internalType": "address",
          "name": "forwarder",
          "type": "address"
        }
      ],
      "name": "isTrustedForwarder",
      "outputs": [
        {
          "internalType": "bool",
          "name": "",
          "type": "bool"
        }
      ],
      "stateMutability": "view",
      "type": "function"
    },
    {
      "inputs": [
        {
          "internalType": "address",
          "name": "to",
          "type": "address"
        },
        {
          "internalType": "uint256",
          "name": "amount",
          "type": "uint256"
        }
      ],
      "name": "mint",
      "outputs": [],
      "stateMutability": "nonpayable",
      "type": "function"
    },
    {
      "inputs": [],
      "name": "name",
      "outputs": [
        {
          "internalType": "string",
          "name": "",
          "type": "string"
        }
      ],
      "stateMutability": "view",
      "type": "function"
    },
    {
      "inputs": [
        {
          "internalType": "address",
          "name": "owner",
          "type": "address"
        }
      ],
      "name": "nonces",
      "outputs": [
        {
          "internalType": "uint256",
          "name": "",
          "type": "uint256"
        }
      ],
      "stateMutability": "view",
      "type": "function"
    },
    {
      "inputs": [],
      "name": "owner",
      "outputs": [
        {
          "internalType": "address",
          "name": "",
          "type": "address"
        }
      ],
      "stateMutability": "view",
      "type": "function"
    },
    {
      "inputs": [
        {
          "internalType": "address",
          "name": "owner",
          "type": "address"
        },
        {
          "internalType": "address",
          "name": "spender",
          "type": "address"
        },
        {
          "internalType": "uint256",
          "name": "value",
          "type": "uint256"
        },
        {
          "internalType": "uint256",
          "name": "deadline",
          "type": "uint256"
        },
        {
          "internalType": "uint8",
          "name": "v",
          "type": "uint8"
        },
        {
          "internalType": "bytes32",
          "name": "r",
          "type": "bytes32"
        },
        {
          "internalType": "bytes32",
          "name": "s",
          "type": "bytes32"
        }
      ],
      "name": "permit",
      "outputs": [],
      "stateMutability": "nonpayable",
      "type": "function"
    },
    {
      "inputs": [],
      "name": "proxiableUUID",
      "outputs": [
        {
          "internalType": "bytes32",
          "name": "",
          "type": "bytes32"
        }
      ],
      "stateMutability": "view",
      "type": "function"
    },
    {
      "inputs": [],
      "name": "renounceOwnership",
      "outputs": [],
      "stateMutability": "nonpayable",
      "type": "function"
    },
    {
      "inputs": [],
      "name": "symbol",
      "outputs": [
        {
          "internalType": "string",
          "name": "",
          "type": "string"
        }
      ],
      "stateMutability": "view",
      "type": "function"
    },
    {
      "inputs": [],
      "name": "totalSupply",
      "outputs": [
        {
          "internalType": "uint256",
          "name": "",
          "type": "uint256"
        }
      ],
      "stateMutability": "view",
      "type": "function"
    },
    {
      "inputs": [
        {
          "internalType": "address",
          "name": "to",
          "type": "address"
        },
        {
          "internalType": "uint256",
          "name": "value",
          "type": "uint256"
        }
      ],
      "name": "transfer",
      "outputs": [
        {
          "internalType": "bool",
          "name": "",
          "type": "bool"
        }
      ],
      "stateMutability": "nonpayable",
      "type": "function"
    },
    {
      "inputs": [
        {
          "internalType": "address",
          "name": "from",
          "type": "address"
        },
        {
          "internalType": "address",
          "name": "to",
          "type": "address"
        },
        {
          "internalType": "uint256",
          "name": "value",
          "type": "uint256"
        }
      ],
      "name": "transferFrom",
      "outputs": [
        {
          "internalType": "bool",
          "name": "",
          "type": "bool"
        }
      ],
      "stateMutability": "nonpayable",
      "type": "function"
    },
    {
      "inputs": [
        {
          "internalType": "address",
          "name": "newOwner",
          "type": "address"
        }
      ],
      "name": "transferOwnership",
      "outputs": [],
      "stateMutability": "nonpayable",
      "type": "function"
    },
    {
      "inputs": [],
      "name": "trustedForwarder",
      "outputs": [
        {
          "internalType": "address",
          "name": "",
          "type": "address"
        }
      ],
      "stateMutability": "view",
      "type": "function"
    },
    {
      "inputs": [
        {
          "internalType": "address",
          "name": "newImplementation",
          "type": "address"
        },
        {
          "internalType": "bytes",
          "name": "data",
          "type": "bytes"
        }
      ],
      "name": "upgradeToAndCall",
      "outputs": [],
      "stateMutability": "payable",
      "type": "function"
    }
  ],
  "bytecode": "0x60c06040523073ffffffffffffffffffffffffffffffffffffffff1660809073ffffffffffffffffffffffffffffffffffffffff168152503480156200004457600080fd5b50604051620043e6380380620043e683398181016040528101906200006a919062000111565b808073ffffffffffffffffffffffffffffffffffffffff1660a08173ffffffffffffffffffffffffffffffffffffffff1681525050505062000143565b600080fd5b600073ffffffffffffffffffffffffffffffffffffffff82169050919050565b6000620000d982620000ac565b9050919050565b620000eb81620000cc565b8114620000f757600080fd5b50565b6000815190506200010b81620000e0565b92915050565b6000602082840312156200012a5762000129620000a7565b5b60006200013a84828501620000fa565b91505092915050565b60805160a05161426f620001776000396000610bd40152600081816117d00152818161182501526119e0015261426f6000f3fe6080604052600436106101815760003560e01c80637da0a877116100d1578063a9059cbb1161008a578063d505accf11610064578063d505accf1461057f578063d82f94a3146105a8578063dd62ed3e146105d1578063f2fde38b1461060e57610181565b8063a9059cbb146104ee578063ad3cb1cc1461052b578063c4d66de81461055657610181565b80637da0a877146103d65780637ecebe001461040157806384b0196e1461043e5780638da5cb5b1461046f57806395d89b411461049a578063983b2d56146104c557610181565b806340c10f191161013e578063572b6c0511610118578063572b6c051461031c578063685731071461035957806370a0823114610382578063715018a6146103bf57610181565b806340c10f19146102ac5780634f1ef286146102d557806352d1902d146102f157610181565b806306fdde0314610186578063095ea7b3146101b157806318160ddd146101ee57806323b872dd14610219578063313ce567146102565780633644e51514610281575b600080fd5b34801561019257600080fd5b5061019b610637565b6040516101a89190612d16565b60405180910390f35b3480156101bd57600080fd5b506101d860048036038101906101d39190612de0565b6106d8565b6040516101e59190612e3b565b60405180910390f35b3480156101fa57600080fd5b506102036106fb565b6040516102109190612e65565b60405180910390f35b34801561022557600080fd5b50610240600480360381019061023b9190612e80565b610713565b60405161024d9190612e3b565b60405180910390f35b34801561026257600080fd5b5061026b610742565b6040516102789190612eef565b60405180910390f35b34801561028d57600080fd5b5061029661074b565b6040516102a39190612f23565b60405180910390f35b3480156102b857600080fd5b506102d360048036038101906102ce9190612de0565b61075a565b005b6102ef60048036038101906102ea9190613073565b61083e565b005b3480156102fd57600080fd5b5061030661085d565b6040516103139190612f23565b60405180910390f35b34801561032857600080fd5b50610343600480360381019061033e91906130cf565b610890565b6040516103509190612e3b565b60405180910390f35b34801561036557600080fd5b50610380600480360381019061037b9190613287565b6108cf565b005b34801561038e57600080fd5b506103a960048036038101906103a491906130cf565b610b65565b6040516103b69190612e65565b60405180910390f35b3480156103cb57600080fd5b506103d4610bbc565b005b3480156103e257600080fd5b506103eb610bd0565b6040516103f8919061330e565b60405180910390f35b34801561040d57600080fd5b50610428600480360381019061042391906130cf565b610bf8565b6040516104359190612e65565b60405180910390f35b34801561044a57600080fd5b50610453610c0a565b6040516104669796959493929190613422565b60405180910390f35b34801561047b57600080fd5b50610484610d1c565b604051610491919061330e565b60405180910390f35b3480156104a657600080fd5b506104af610d54565b6040516104bc9190612d16565b60405180910390f35b3480156104d157600080fd5b506104ec60048036038101906104e791906130cf565b610df5565b005b3480156104fa57600080fd5b5061051560048036038101906105109190612de0565b610f09565b6040516105229190612e3b565b60405180910390f35b34801561053757600080fd5b50610540610f2c565b60405161054d9190612d16565b60405180910390f35b34801561056257600080fd5b5061057d600480360381019061057891906130cf565b610f65565b005b34801561058b57600080fd5b506105a660048036038101906105a191906134fe565b6111d9565b005b3480156105b457600080fd5b506105cf60048036038101906105ca91906130cf565b611321565b005b3480156105dd57600080fd5b506105f860048036038101906105f391906135a0565b611451565b6040516106059190612e65565b60405180910390f35b34801561061a57600080fd5b50610635600480360381019061063091906130cf565b6114e6565b005b6060600061064361156c565b90508060030180546106549061360f565b80601f01602080910402602001604051908101604052809291908181526020018280546106809061360f565b80156106cd5780601f106106a2576101008083540402835291602001916106cd565b820191906000526020600020905b8154815290600101906020018083116106b057829003601f168201915b505050505091505090565b6000806106e3611594565b90506106f08185856115a3565b600191505092915050565b60008061070661156c565b9050806002015491505090565b60008061071e611594565b905061072b8582856115b5565b610736858585611649565b60019150509392505050565b60006012905090565b600061075561173d565b905090565b600080610765611594565b73ffffffffffffffffffffffffffffffffffffffff1673ffffffffffffffffffffffffffffffffffffffff16815260200190815260200160002060009054906101000a900460ff166107ec576040517f08c379a00000000000000000000000000000000000000000000000000000000081526004016107e39061368c565b60405180910390fd5b6107f6828261174c565b808273ffffffffffffffffffffffffffffffffffffffff167f3fffaa5804a26fcec0d70b1d0fb0a2d0031df3a5f9c8af2127c2f4360e97b46360405160405180910390a35050565b6108466117ce565b61084f826118b4565b61085982826118bf565b5050565b60006108676119de565b7f360894a13ba1a3210667c828492db98dca3e2076cc3735a920a3ca505d382bbc60001b905090565b600061089a610bd0565b73ffffffffffffffffffffffffffffffffffffffff168273ffffffffffffffffffffffffffffffffffffffff16149050919050565b6000806108da611594565b73ffffffffffffffffffffffffffffffffffffffff1673ffffffffffffffffffffffffffffffffffffffff16815260200190815260200160002060009054906101000a900460ff16610961576040517f08c379a00000000000000000000000000000000000000000000000000000000081526004016109589061368c565b60405180910390fd5b80518251146109a5576040517f08c379a000000000000000000000000000000000000000000000000000000000815260040161099c9061371e565b60405180910390fd5b60005b8251811015610b6057600073ffffffffffffffffffffffffffffffffffffffff168382815181106109dc576109db61373e565b5b602002602001015173ffffffffffffffffffffffffffffffffffffffff1603610a3a576040517f08c379a0000000000000000000000000000000000000000000000000000000008152600401610a31906137b9565b60405180910390fd5b6000828281518110610a4f57610a4e61373e565b5b602002602001015111610a97576040517f08c379a0000000000000000000000000000000000000000000000000000000008152600401610a8e9061384b565b60405180910390fd5b610ad5838281518110610aad57610aac61373e565b5b6020026020010151838381518110610ac857610ac761373e565b5b602002602001015161174c565b818181518110610ae857610ae761373e565b5b6020026020010151838281518110610b0357610b0261373e565b5b602002602001015173ffffffffffffffffffffffffffffffffffffffff167f3fffaa5804a26fcec0d70b1d0fb0a2d0031df3a5f9c8af2127c2f4360e97b46360405160405180910390a38080610b589061389a565b9150506109a8565b505050565b600080610b7061156c565b90508060000160008473ffffffffffffffffffffffffffffffffffffffff1673ffffffffffffffffffffffffffffffffffffffff16815260200190815260200160002054915050919050565b610bc4611a65565b610bce6000611aec565b565b60007f0000000000000000000000000000000000000000000000000000000000000000905090565b6000610c0382611bc3565b9050919050565b6000606080600080600060606000610c20611c1a565b90506000801b8160000154148015610c3e57506000801b8160010154145b610c7d576040517f08c379a0000000000000000000000000000000000000000000000000000000008152600401610c749061392e565b60405180910390fd5b610c85611c42565b610c8d611ce3565b46306000801b600067ffffffffffffffff811115610cae57610cad612f48565b5b604051908082528060200260200182016040528015610cdc5781602001602082028036833780820191505090505b507f0f0000000000000000000000000000000000000000000000000000000000000095949392919097509750975097509750975097505090919293949596565b600080610d27611d84565b90508060000160009054906101000a900473ffffffffffffffffffffffffffffffffffffffff1691505090565b60606000610d6061156c565b9050806004018054610d719061360f565b80601f0160208091040260200160405190810160405280929190818152602001828054610d9d9061360f565b8015610dea5780601f10610dbf57610100808354040283529160200191610dea565b820191906000526020600020905b815481529060010190602001808311610dcd57829003601f168201915b505050505091505090565b610dfd611a65565b600073ffffffffffffffffffffffffffffffffffffffff168173ffffffffffffffffffffffffffffffffffffffff1603610e6c576040517f08c379a0000000000000000000000000000000000000000000000000000000008152600401610e639061399a565b60405180910390fd5b60016000808373ffffffffffffffffffffffffffffffffffffffff1673ffffffffffffffffffffffffffffffffffffffff16815260200190815260200160002060006101000a81548160ff0219169083151502179055508073ffffffffffffffffffffffffffffffffffffffff167f6ae172837ea30b801fbfcdd4108aa1d5bf8ff775444fd70256b44e6bf3dfc3f660405160405180910390a250565b600080610f14611594565b9050610f21818585611649565b600191505092915050565b6040518060400160405280600581526020017f352e302e3000000000000000000000000000000000000000000000000000000081525081565b6000610f6f611dac565b905060008160000160089054906101000a900460ff1615905060008260000160009054906101000a900467ffffffffffffffff1690506000808267ffffffffffffffff16148015610fbd5750825b9050600060018367ffffffffffffffff16148015610ff2575060003073ffffffffffffffffffffffffffffffffffffffff163b145b905081158015611000575080155b15611037576040517ff92ee8a900000000000000000000000000000000000000000000000000000000815260040160405180910390fd5b60018560000160006101000a81548167ffffffffffffffff021916908367ffffffffffffffff16021790555083156110875760018560000160086101000a81548160ff0219169083151502179055505b6110fb6040518060400160405280600d81526020017f5061726b506179436f696e5632000000000000000000000000000000000000008152506040518060400160405280600381526020017f5050430000000000000000000000000000000000000000000000000000000000815250611dd4565b6111396040518060400160405280600d81526020017f5061726b506179436f696e563200000000000000000000000000000000000000815250611dea565b61114286611e34565b61114a611e48565b61117586611156610742565b600a6111629190613aed565b620f42406111709190613b38565b61174c565b83156111d15760008560000160086101000a81548160ff0219169083151502179055507fc7f505b2f371ae2175ee4913f4499e1f2633a7b5936321eed1cdaeb6115181d260016040516111c89190613bd3565b60405180910390a15b505050505050565b8342111561121e57836040517f627913020000000000000000000000000000000000000000000000000000000081526004016112159190612e65565b60405180910390fd5b60007f6e71edae12b1b97f4d1f60370fef10105fa2faae0126114a169c64845d6126c988888861124d8c611e52565b8960405160200161126396959493929190613bee565b604051602081830303815290604052805190602001209050600061128682611eb7565b9050600061129682878787611ed1565b90508973ffffffffffffffffffffffffffffffffffffffff168173ffffffffffffffffffffffffffffffffffffffff161461130a57808a6040517f4b800e46000000000000000000000000000000000000000000000000000000008152600401611301929190613c4f565b60405180910390fd5b6113158a8a8a6115a3565b50505050505050505050565b611329611a65565b6000808273ffffffffffffffffffffffffffffffffffffffff1673ffffffffffffffffffffffffffffffffffffffff16815260200190815260200160002060009054906101000a900460ff166113b4576040517f08c379a00000000000000000000000000000000000000000000000000000000081526004016113ab90613cc4565b60405180910390fd5b60008060008373ffffffffffffffffffffffffffffffffffffffff1673ffffffffffffffffffffffffffffffffffffffff16815260200190815260200160002060006101000a81548160ff0219169083151502179055508073ffffffffffffffffffffffffffffffffffffffff167fe94479a9f7e1952cc78f2d6baab678adc1b772d936c6583def489e524cb6669260405160405180910390a250565b60008061145c61156c565b90508060010160008573ffffffffffffffffffffffffffffffffffffffff1673ffffffffffffffffffffffffffffffffffffffff16815260200190815260200160002060008473ffffffffffffffffffffffffffffffffffffffff1673ffffffffffffffffffffffffffffffffffffffff1681526020019081526020016000205491505092915050565b6114ee611a65565b600073ffffffffffffffffffffffffffffffffffffffff168173ffffffffffffffffffffffffffffffffffffffff16036115605760006040517f1e4fbdf7000000000000000000000000000000000000000000000000000000008152600401611557919061330e565b60405180910390fd5b61156981611aec565b50565b60007f52c63247e1f47db19d5ce0460030c497f067ca4cebf71ba98eeadabe20bace00905090565b600061159e611f01565b905090565b6115b08383836001611f76565b505050565b60006115c18484611451565b90507fffffffffffffffffffffffffffffffffffffffffffffffffffffffffffffffff81146116435781811015611633578281836040517ffb8f41b200000000000000000000000000000000000000000000000000000000815260040161162a93929190613ce4565b60405180910390fd5b61164284848484036000611f76565b5b50505050565b600073ffffffffffffffffffffffffffffffffffffffff168373ffffffffffffffffffffffffffffffffffffffff16036116bb5760006040517f96c6fd1e0000000000000000000000000000000000000000000000000000000081526004016116b2919061330e565b60405180910390fd5b600073ffffffffffffffffffffffffffffffffffffffff168273ffffffffffffffffffffffffffffffffffffffff160361172d5760006040517fec442f05000000000000000000000000000000000000000000000000000000008152600401611724919061330e565b60405180910390fd5b61173883838361215c565b505050565b600061174761239b565b905090565b600073ffffffffffffffffffffffffffffffffffffffff168273ffffffffffffffffffffffffffffffffffffffff16036117be5760006040517fec442f050000000000000000000000000000000000000000000000000000000081526004016117b5919061330e565b60405180910390fd5b6117ca6000838361215c565b5050565b7f000000000000000000000000000000000000000000000000000000000000000073ffffffffffffffffffffffffffffffffffffffff163073ffffffffffffffffffffffffffffffffffffffff16148061187b57507f000000000000000000000000000000000000000000000000000000000000000073ffffffffffffffffffffffffffffffffffffffff166118626123ff565b73ffffffffffffffffffffffffffffffffffffffff1614155b156118b2576040517fe07c8dba00000000000000000000000000000000000000000000000000000000815260040160405180910390fd5b565b6118bc611a65565b50565b8173ffffffffffffffffffffffffffffffffffffffff166352d1902d6040518163ffffffff1660e01b8152600401602060405180830381865afa92505050801561192757506040513d601f19601f820116820180604052508101906119249190613d30565b60015b61196857816040517f4c9c8ce300000000000000000000000000000000000000000000000000000000815260040161195f919061330e565b60405180910390fd5b7f360894a13ba1a3210667c828492db98dca3e2076cc3735a920a3ca505d382bbc60001b81146119cf57806040517faa1d49a40000000000000000000000000000000000000000000000000000000081526004016119c69190612f23565b60405180910390fd5b6119d98383612456565b505050565b7f000000000000000000000000000000000000000000000000000000000000000073ffffffffffffffffffffffffffffffffffffffff163073ffffffffffffffffffffffffffffffffffffffff1614611a63576040517fe07c8dba00000000000000000000000000000000000000000000000000000000815260040160405180910390fd5b565b611a6d611594565b73ffffffffffffffffffffffffffffffffffffffff16611a8b610d1c565b73ffffffffffffffffffffffffffffffffffffffff1614611aea57611aae611594565b6040517f118cdaa7000000000000000000000000000000000000000000000000000000008152600401611ae1919061330e565b60405180910390fd5b565b6000611af6611d84565b905060008160000160009054906101000a900473ffffffffffffffffffffffffffffffffffffffff169050828260000160006101000a81548173ffffffffffffffffffffffffffffffffffffffff021916908373ffffffffffffffffffffffffffffffffffffffff1602179055508273ffffffffffffffffffffffffffffffffffffffff168173ffffffffffffffffffffffffffffffffffffffff167f8be0079c531659141344cd1fd0a4f28419497f9722a3daafe3b4186f6b6457e060405160405180910390a3505050565b600080611bce6124c9565b90508060000160008473ffffffffffffffffffffffffffffffffffffffff1673ffffffffffffffffffffffffffffffffffffffff16815260200190815260200160002054915050919050565b60007fa16a46d94261c7517cc8ff89f61c0ce93598e3c849801011dee649a6a557d100905090565b60606000611c4e611c1a565b9050806002018054611c5f9061360f565b80601f0160208091040260200160405190810160405280929190818152602001828054611c8b9061360f565b8015611cd85780601f10611cad57610100808354040283529160200191611cd8565b820191906000526020600020905b815481529060010190602001808311611cbb57829003601f168201915b505050505091505090565b60606000611cef611c1a565b9050806003018054611d009061360f565b80601f0160208091040260200160405190810160405280929190818152602001828054611d2c9061360f565b8015611d795780601f10611d4e57610100808354040283529160200191611d79565b820191906000526020600020905b815481529060010190602001808311611d5c57829003601f168201915b505050505091505090565b60007f9016d09d72d40fdae2fd8ceac6b6234c7706214fd39c1cd1e609a0528c199300905090565b60007ff0c57e16840df040f15088dc2f81fe391c3923bec73e23a9662efc9c229c6a00905090565b611ddc6124f1565b611de68282612531565b5050565b611df26124f1565b611e31816040518060400160405280600181526020017f310000000000000000000000000000000000000000000000000000000000000081525061256e565b50565b611e3c6124f1565b611e45816125c3565b50565b611e506124f1565b565b600080611e5d6124c9565b90508060000160008473ffffffffffffffffffffffffffffffffffffffff1673ffffffffffffffffffffffffffffffffffffffff168152602001908152602001600020600081548092919060010191905055915050919050565b6000611eca611ec461173d565b83612649565b9050919050565b600080600080611ee38888888861268a565b925092509250611ef3828261277e565b829350505050949350505050565b600080600036905090506000611f156128e2565b9050611f2033610890565b8015611f2c5750808210155b15611f66576000368284611f409190613d5d565b908092611f4f93929190613d9b565b90611f5a9190613e1a565b60601c92505050611f73565b611f6e6128f1565b925050505b90565b6000611f8061156c565b9050600073ffffffffffffffffffffffffffffffffffffffff168573ffffffffffffffffffffffffffffffffffffffff1603611ff45760006040517fe602df05000000000000000000000000000000000000000000000000000000008152600401611feb919061330e565b60405180910390fd5b600073ffffffffffffffffffffffffffffffffffffffff168473ffffffffffffffffffffffffffffffffffffffff16036120665760006040517f94280d6200000000000000000000000000000000000000000000000000000000815260040161205d919061330e565b60405180910390fd5b828160010160008773ffffffffffffffffffffffffffffffffffffffff1673ffffffffffffffffffffffffffffffffffffffff16815260200190815260200160002060008673ffffffffffffffffffffffffffffffffffffffff1673ffffffffffffffffffffffffffffffffffffffff168152602001908152602001600020819055508115612155578373ffffffffffffffffffffffffffffffffffffffff168573ffffffffffffffffffffffffffffffffffffffff167f8c5be1e5ebec7d5bd14f71427d1e84f3dd0314c0f7b2291e5b200ac8c7c3b9258560405161214c9190612e65565b60405180910390a35b5050505050565b600061216661156c565b9050600073ffffffffffffffffffffffffffffffffffffffff168473ffffffffffffffffffffffffffffffffffffffff16036121bc57818160020160008282546121b09190613e79565b92505081905550612295565b60008160000160008673ffffffffffffffffffffffffffffffffffffffff1673ffffffffffffffffffffffffffffffffffffffff1681526020019081526020016000205490508281101561224b578481846040517fe450d38c00000000000000000000000000000000000000000000000000000000815260040161224293929190613ce4565b60405180910390fd5b8281038260000160008773ffffffffffffffffffffffffffffffffffffffff1673ffffffffffffffffffffffffffffffffffffffff16815260200190815260200160002081905550505b600073ffffffffffffffffffffffffffffffffffffffff168373ffffffffffffffffffffffffffffffffffffffff16036122e057818160020160008282540392505081905550612330565b818160000160008573ffffffffffffffffffffffffffffffffffffffff1673ffffffffffffffffffffffffffffffffffffffff168152602001908152602001600020600082825401925050819055505b8273ffffffffffffffffffffffffffffffffffffffff168473ffffffffffffffffffffffffffffffffffffffff167fddf252ad1be2c89b69c2b068fc378daa952ba7f163c4a11628f55a4df523b3ef8460405161238d9190612e65565b60405180910390a350505050565b60007f8b73c3c69bb8fe3d512ecc4cf759cc79239f7b179b0ffacaa9a75d522b39400f6123c66128f9565b6123ce612975565b46306040516020016123e4959493929190613ead565b60405160208183030381529060405280519060200120905090565b600061242d7f360894a13ba1a3210667c828492db98dca3e2076cc3735a920a3ca505d382bbc60001b6129f1565b60000160009054906101000a900473ffffffffffffffffffffffffffffffffffffffff16905090565b61245f826129fb565b8173ffffffffffffffffffffffffffffffffffffffff167fbc7cd75a20ee27fd9adebab32041f755214dbc6bffa90cc0225b39da2e5c2d3b60405160405180910390a26000815111156124bc576124b68282612ac8565b506124c5565b6124c4612b4c565b5b5050565b60007f5ab42ced628888259c08ac98db1eb0cf702fc1501344311d8b100cd1bfe4bb00905090565b6124f9612b89565b61252f576040517fd7e6bcf800000000000000000000000000000000000000000000000000000000815260040160405180910390fd5b565b6125396124f1565b600061254361156c565b9050828160030190816125569190614095565b50818160040190816125689190614095565b50505050565b6125766124f1565b6000612580611c1a565b9050828160020190816125939190614095565b50818160030190816125a59190614095565b506000801b81600001819055506000801b8160010181905550505050565b6125cb6124f1565b600073ffffffffffffffffffffffffffffffffffffffff168173ffffffffffffffffffffffffffffffffffffffff160361263d5760006040517f1e4fbdf7000000000000000000000000000000000000000000000000000000008152600401612634919061330e565b60405180910390fd5b61264681611aec565b50565b60006040517f190100000000000000000000000000000000000000000000000000000000000081528360028201528260228201526042812091505092915050565b60008060007f7fffffffffffffffffffffffffffffff5d576e7357a4501ddfe92f46681b20a08460001c11156126ca576000600385925092509250612774565b6000600188888888604051600081526020016040526040516126ef9493929190614167565b6020604051602081039080840390855afa158015612711573d6000803e3d6000fd5b505050602060405103519050600073ffffffffffffffffffffffffffffffffffffffff168173ffffffffffffffffffffffffffffffffffffffff160361276557600060016000801b93509350935050612774565b8060008060001b935093509350505b9450945094915050565b60006003811115612792576127916141ac565b5b8260038111156127a5576127a46141ac565b5b03156128de57600160038111156127bf576127be6141ac565b5b8260038111156127d2576127d16141ac565b5b03612809576040517ff645eedf00000000000000000000000000000000000000000000000000000000815260040160405180910390fd5b6002600381111561281d5761281c6141ac565b5b8260038111156128305761282f6141ac565b5b03612875578060001c6040517ffce698f700000000000000000000000000000000000000000000000000000000815260040161286c9190612e65565b60405180910390fd5b600380811115612888576128876141ac565b5b82600381111561289b5761289a6141ac565b5b036128dd57806040517fd78bce0c0000000000000000000000000000000000000000000000000000000081526004016128d49190612f23565b60405180910390fd5b5b5050565b60006128ec612ba9565b905090565b600033905090565b600080612904611c1a565b90506000612910611c42565b905060008151111561292d57808051906020012092505050612972565b6000826000015490506000801b811461294b57809350505050612972565b7fc5d2460186f7233c927e7db2dcc703c0e500b653ca82273b7bfad8045d85a47093505050505b90565b600080612980611c1a565b9050600061298c611ce3565b90506000815111156129a9578080519060200120925050506129ee565b6000826001015490506000801b81146129c7578093505050506129ee565b7fc5d2460186f7233c927e7db2dcc703c0e500b653ca82273b7bfad8045d85a47093505050505b90565b6000819050919050565b60008173ffffffffffffffffffffffffffffffffffffffff163b03612a5757806040517f4c9c8ce3000000000000000000000000000000000000000000000000000000008152600401612a4e919061330e565b60405180910390fd5b80612a847f360894a13ba1a3210667c828492db98dca3e2076cc3735a920a3ca505d382bbc60001b6129f1565b60000160006101000a81548173ffffffffffffffffffffffffffffffffffffffff021916908373ffffffffffffffffffffffffffffffffffffffff16021790555050565b60606000808473ffffffffffffffffffffffffffffffffffffffff1684604051612af29190614222565b600060405180830381855af49150503d8060008114612b2d576040519150601f19603f3d011682016040523d82523d6000602084013e612b32565b606091505b5091509150612b42858383612bb2565b9250505092915050565b6000341115612b87576040517fb398979f00000000000000000000000000000000000000000000000000000000815260040160405180910390fd5b565b6000612b93611dac565b60000160089054906101000a900460ff16905090565b60006014905090565b606082612bc757612bc282612c41565b612c39565b60008251148015612bef575060008473ffffffffffffffffffffffffffffffffffffffff163b145b15612c3157836040517f9996b315000000000000000000000000000000000000000000000000000000008152600401612c28919061330e565b60405180910390fd5b819050612c3a565b5b9392505050565b600081511115612c545780518082602001fd5b6040517f1425ea4200000000000000000000000000000000000000000000000000000000815260040160405180910390fd5b600081519050919050565b600082825260208201905092915050565b60005b83811015612cc0578082015181840152602081019050612ca5565b60008484015250505050565b6000601f19601f8301169050919050565b6000612ce882612c86565b612cf28185612c91565b9350612d02818560208601612ca2565b612d0b81612ccc565b840191505092915050565b60006020820190508181036000830152612d308184612cdd565b905092915050565b6000604051905090565b600080fd5b600080fd5b600073ffffffffffffffffffffffffffffffffffffffff82169050919050565b6000612d7782612d4c565b9050919050565b612d8781612d6c565b8114612d9257600080fd5b50565b600081359050612da481612d7e565b92915050565b6000819050919050565b612dbd81612daa565b8114612dc857600080fd5b50565b600081359050612dda81612db4565b92915050565b60008060408385031215612df757612df6612d42565b5b6000612e0585828601612d95565b9250506020612e1685828601612dcb565b9150509250929050565b60008115159050919050565b612e3581612e20565b82525050565b6000602082019050612e506000830184612e2c565b92915050565b612e5f81612daa565b82525050565b6000602082019050612e7a6000830184612e56565b92915050565b600080600060608486031215612e9957612e98612d42565b5b6000612ea786828701612d95565b9350506020612eb886828701612d95565b9250506040612ec986828701612dcb565b9150509250925092565b600060ff82169050919050565b612ee981612ed3565b82525050565b6000602082019050612f046000830184612ee0565b92915050565b6000819050919050565b612f1d81612f0a565b82525050565b6000602082019050612f386000830184612f14565b92915050565b600080fd5b600080fd5b7f4e487b7100000000000000000000000000000000000000000000000000000000600052604160045260246000fd5b612f8082612ccc565b810181811067ffffffffffffffff82111715612f9f57612f9e612f48565b5b80604052505050565b6000612fb2612d38565b9050612fbe8282612f77565b919050565b600067ffffffffffffffff821115612fde57612fdd612f48565b5b612fe782612ccc565b9050602081019050919050565b82818337600083830152505050565b600061301661301184612fc3565b612fa8565b90508281526020810184848401111561303257613031612f43565b5b61303d848285612ff4565b509392505050565b600082601f83011261305a57613059612f3e565b5b813561306a848260208601613003565b91505092915050565b6000806040838503121561308a57613089612d42565b5b600061309885828601612d95565b925050602083013567ffffffffffffffff8111156130b9576130b8612d47565b5b6130c585828601613045565b9150509250929050565b6000602082840312156130e5576130e4612d42565b5b60006130f384828501612d95565b91505092915050565b600067ffffffffffffffff82111561311757613116612f48565b5b602082029050602081019050919050565b600080fd5b600061314061313b846130fc565b612fa8565b9050808382526020820190506020840283018581111561316357613162613128565b5b835b8181101561318c57806131788882612d95565b845260208401935050602081019050613165565b5050509392505050565b600082601f8301126131ab576131aa612f3e565b5b81356131bb84826020860161312d565b91505092915050565b600067ffffffffffffffff8211156131df576131de612f48565b5b602082029050602081019050919050565b60006132036131fe846131c4565b612fa8565b9050808382526020820190506020840283018581111561322657613225613128565b5b835b8181101561324f578061323b8882612dcb565b845260208401935050602081019050613228565b5050509392505050565b600082601f83011261326e5761326d612f3e565b5b813561327e8482602086016131f0565b91505092915050565b6000806040838503121561329e5761329d612d42565b5b600083013567ffffffffffffffff8111156132bc576132bb612d47565b5b6132c885828601613196565b925050602083013567ffffffffffffffff8111156132e9576132e8612d47565b5b6132f585828601613259565b9150509250929050565b61330881612d6c565b82525050565b600060208201905061332360008301846132ff565b92915050565b60007fff0000000000000000000000000000000000000000000000000000000000000082169050919050565b61335e81613329565b82525050565b600081519050919050565b600082825260208201905092915050565b6000819050602082019050919050565b61339981612daa565b82525050565b60006133ab8383613390565b60208301905092915050565b6000602082019050919050565b60006133cf82613364565b6133d9818561336f565b93506133e483613380565b8060005b838110156134155781516133fc888261339f565b9750613407836133b7565b9250506001810190506133e8565b5085935050505092915050565b600060e082019050613437600083018a613355565b81810360208301526134498189612cdd565b9050818103604083015261345d8188612cdd565b905061346c6060830187612e56565b61347960808301866132ff565b61348660a0830185612f14565b81810360c083015261349881846133c4565b905098975050505050505050565b6134af81612ed3565b81146134ba57600080fd5b50565b6000813590506134cc816134a6565b92915050565b6134db81612f0a565b81146134e657600080fd5b50565b6000813590506134f8816134d2565b92915050565b600080600080600080600060e0888a03121561351d5761351c612d42565b5b600061352b8a828b01612d95565b975050602061353c8a828b01612d95565b965050604061354d8a828b01612dcb565b955050606061355e8a828b01612dcb565b945050608061356f8a828b016134bd565b93505060a06135808a828b016134e9565b92505060c06135918a828b016134e9565b91505092959891949750929550565b600080604083850312156135b7576135b6612d42565b5b60006135c585828601612d95565b92505060206135d685828601612d95565b9150509250929050565b7f4e487b7100000000000000000000000000000000000000000000000000000000600052602260045260246000fd5b6000600282049050600182168061362757607f821691505b60208210810361363a576136396135e0565b5b50919050565b7f43616c6c6572206973206e6f742061206d696e74657200000000000000000000600082015250565b6000613676601683612c91565b915061368182613640565b602082019050919050565b600060208201905081810360008301526136a581613669565b9050919050565b7f41646472657373657320616e6420616d6f756e747320646f206e6f74206d617460008201527f636820696e206c656e6774680000000000000000000000000000000000000000602082015250565b6000613708602c83612c91565b9150613713826136ac565b604082019050919050565b60006020820190508181036000830152613737816136fb565b9050919050565b7f4e487b7100000000000000000000000000000000000000000000000000000000600052603260045260246000fd5b7f496e76616c696420616464726573732e00000000000000000000000000000000600082015250565b60006137a3601083612c91565b91506137ae8261376d565b602082019050919050565b600060208201905081810360008301526137d281613796565b9050919050565b7f4d696e7420616d6f756e74206d7573742062652067726561746572207468616e60008201527f207a65726f000000000000000000000000000000000000000000000000000000602082015250565b6000613835602583612c91565b9150613840826137d9565b604082019050919050565b6000602082019050818103600083015261386481613828565b9050919050565b7f4e487b7100000000000000000000000000000000000000000000000000000000600052601160045260246000fd5b60006138a582612daa565b91507fffffffffffffffffffffffffffffffffffffffffffffffffffffffffffffffff82036138d7576138d661386b565b5b600182019050919050565b7f4549503731323a20556e696e697469616c697a65640000000000000000000000600082015250565b6000613918601583612c91565b9150613923826138e2565b602082019050919050565b600060208201905081810360008301526139478161390b565b9050919050565b7f4d696e74657220616464726573732063616e6e6f742062652030000000000000600082015250565b6000613984601a83612c91565b915061398f8261394e565b602082019050919050565b600060208201905081810360008301526139b381613977565b9050919050565b60008160011c9050919050565b6000808291508390505b6001851115613a11578086048111156139ed576139ec61386b565b5b60018516156139fc5780820291505b8081029050613a0a856139ba565b94506139d1565b94509492505050565b600082613a2a5760019050613ae6565b81613a385760009050613ae6565b8160018114613a4e5760028114613a5857613a87565b6001915050613ae6565b60ff841115613a6a57613a6961386b565b5b8360020a915084821115613a8157613a8061386b565b5b50613ae6565b5060208310610133831016604e8410600b8410161715613abc5782820a905083811115613ab757613ab661386b565b5b613ae6565b613ac984848460016139c7565b92509050818404811115613ae057613adf61386b565b5b81810290505b9392505050565b6000613af882612daa565b9150613b0383612ed3565b9250613b307fffffffffffffffffffffffffffffffffffffffffffffffffffffffffffffffff8484613a1a565b905092915050565b6000613b4382612daa565b9150613b4e83612daa565b9250828202613b5c81612daa565b91508282048414831517613b7357613b7261386b565b5b5092915050565b6000819050919050565b600067ffffffffffffffff82169050919050565b6000819050919050565b6000613bbd613bb8613bb384613b7a565b613b98565b613b84565b9050919050565b613bcd81613ba2565b82525050565b6000602082019050613be86000830184613bc4565b92915050565b600060c082019050613c036000830189612f14565b613c1060208301886132ff565b613c1d60408301876132ff565b613c2a6060830186612e56565b613c376080830185612e56565b613c4460a0830184612e56565b979650505050505050565b6000604082019050613c6460008301856132ff565b613c7160208301846132ff565b9392505050565b7f4e6f742061206d696e7465720000000000000000000000000000000000000000600082015250565b6000613cae600c83612c91565b9150613cb982613c78565b602082019050919050565b60006020820190508181036000830152613cdd81613ca1565b9050919050565b6000606082019050613cf960008301866132ff565b613d066020830185612e56565b613d136040830184612e56565b949350505050565b600081519050613d2a816134d2565b92915050565b600060208284031215613d4657613d45612d42565b5b6000613d5484828501613d1b565b91505092915050565b6000613d6882612daa565b9150613d7383612daa565b9250828203905081811115613d8b57613d8a61386b565b5b92915050565b600080fd5b600080fd5b60008085851115613daf57613dae613d91565b5b83861115613dc057613dbf613d96565b5b6001850283019150848603905094509492505050565b600082905092915050565b60007fffffffffffffffffffffffffffffffffffffffff00000000000000000000000082169050919050565b600082821b905092915050565b6000613e268383613dd6565b82613e318135613de1565b92506014821015613e7157613e6c7fffffffffffffffffffffffffffffffffffffffff00000000000000000000000083601403600802613e0d565b831692505b505092915050565b6000613e8482612daa565b9150613e8f83612daa565b9250828201905080821115613ea757613ea661386b565b5b92915050565b600060a082019050613ec26000830188612f14565b613ecf6020830187612f14565b613edc6040830186612f14565b613ee96060830185612e56565b613ef660808301846132ff565b9695505050505050565b60008190508160005260206000209050919050565b60006020601f8301049050919050565b600060088302613f557fffffffffffffffffffffffffffffffffffffffffffffffffffffffffffffffff82613e0d565b613f5f8683613e0d565b95508019841693508086168417925050509392505050565b6000613f92613f8d613f8884612daa565b613b98565b612daa565b9050919050565b6000819050919050565b613fac83613f77565b613fc0613fb882613f99565b848454613f25565b825550505050565b600090565b613fd5613fc8565b613fe0818484613fa3565b505050565b5b8181101561400457613ff9600082613fcd565b600181019050613fe6565b5050565b601f8211156140495761401a81613f00565b61402384613f15565b81016020851015614032578190505b61404661403e85613f15565b830182613fe5565b50505b505050565b600082821c905092915050565b600061406c6000198460080261404e565b1980831691505092915050565b6000614085838361405b565b9150826002028217905092915050565b61409e82612c86565b67ffffffffffffffff8111156140b7576140b6612f48565b5b6140c1825461360f565b6140cc828285614008565b600060209050601f8311600181146140ff57600084156140ed578287015190505b6140f78582614079565b86555061415f565b601f19841661410d86613f00565b60005b8281101561413557848901518255600182019150602085019450602081019050614110565b86831015614152578489015161414e601f89168261405b565b8355505b6001600288020188555050505b505050505050565b600060808201905061417c6000830187612f14565b6141896020830186612ee0565b6141966040830185612f14565b6141a36060830184612f14565b95945050505050565b7f4e487b7100000000000000000000000000000000000000000000000000000000600052602160045260246000fd5b600081519050919050565b600081905092915050565b60006141fc826141db565b61420681856141e6565b9350614216818560208601612ca2565b80840191505092915050565b600061422e82846141f1565b91508190509291505056fea26469706673582212208d4582b46ba257fbf28b9b19313ee9a75c08be6ba9399a5bc1d3c886594881a364736f6c63430008140033",
  "linkReferences": {},
  "deployedLinkReferences": {}
}