{
  "_format": "hh-sol-artifact-1",
  "contractName": "ParkingPayment",
  "sourceName": "contracts/ParkingPayment/ParkingPaymentV2.sol",
  "abi": [
    {
      "inputs": [
        {
          "internalType": "address",
          "name": "trustedForwarder",
          "type": "address"
        }
      ],
      "stateMutability": "nonpayable",
      "type": "constructor"
    },
    {
      "inputs": [
        {
          "internalType": "address",
          "name": "target",
          "type": "address"
        }
      ],
      "name": "AddressEmptyCode",
      "type": "error"
    },
    {
      "inputs": [
        {
          "internalType": "address",
          "name": "account",
          "type": "address"
        }
      ],
      "name": "AddressInsufficientBalance",
      "type": "error"
    },
    {
      "inputs": [
        {
          "internalType": "address",
          "name": "implementation",
          "type": "address"
        }
      ],
      "name": "ERC1967InvalidImplementation",
      "type": "error"
    },
    {
      "inputs": [],
      "name": "ERC1967NonPayable",
      "type": "error"
    },
    {
      "inputs": [],
      "name": "FailedInnerCall",
      "type": "error"
    },
    {
      "inputs": [],
      "name": "InvalidInitialization",
      "type": "error"
    },
    {
      "inputs": [],
      "name": "NotInitializing",
      "type": "error"
    },
    {
      "inputs": [
        {
          "internalType": "address",
          "name": "owner",
          "type": "address"
        }
      ],
      "name": "OwnableInvalidOwner",
      "type": "error"
    },
    {
      "inputs": [
        {
          "internalType": "address",
          "name": "account",
          "type": "address"
        }
      ],
      "name": "OwnableUnauthorizedAccount",
      "type": "error"
    },
    {
      "inputs": [],
      "name": "ReentrancyGuardReentrantCall",
      "type": "error"
    },
    {
      "inputs": [
        {
          "internalType": "address",
          "name": "token",
          "type": "address"
        }
      ],
      "name": "SafeERC20FailedOperation",
      "type": "error"
    },
    {
      "inputs": [],
      "name": "UUPSUnauthorizedCallContext",
      "type": "error"
    },
    {
      "inputs": [
        {
          "internalType": "bytes32",
          "name": "slot",
          "type": "bytes32"
        }
      ],
      "name": "UUPSUnsupportedProxiableUUID",
      "type": "error"
    },
    {
      "anonymous": false,
      "inputs": [
        {
          "indexed": true,
          "internalType": "address",
          "name": "user",
          "type": "address"
        },
        {
          "indexed": true,
          "internalType": "address",
          "name": "tokenAddress",
          "type": "address"
        },
        {
          "indexed": false,
          "internalType": "uint256",
          "name": "amount",
          "type": "uint256"
        },
        {
          "indexed": false,
          "internalType": "address",
          "name": "parkingOwner",
          "type": "address"
        }
      ],
      "name": "DepositMade",
      "type": "event"
    },
    {
      "anonymous": false,
      "inputs": [
        {
          "indexed": true,
          "internalType": "address",
          "name": "user",
          "type": "address"
        },
        {
          "indexed": true,
          "internalType": "address",
          "name": "tokenAddress",
          "type": "address"
        },
        {
          "indexed": false,
          "internalType": "uint256",
          "name": "entryTime",
          "type": "uint256"
        }
      ],
      "name": "EntryRecorded",
      "type": "event"
    },
    {
      "anonymous": false,
      "inputs": [
        {
          "indexed": true,
          "internalType": "address",
          "name": "user",
          "type": "address"
        },
        {
          "indexed": true,
          "internalType": "address",
          "name": "tokenAddress",
          "type": "address"
        },
        {
          "indexed": false,
          "internalType": "uint256",
          "name": "parkedMinutes",
          "type": "uint256"
        },
        {
          "indexed": false,
          "internalType": "uint256",
          "name": "netParkingFee",
          "type": "uint256"
        },
        {
          "indexed": false,
          "internalType": "uint256",
          "name": "systemFee",
          "type": "uint256"
        }
      ],
      "name": "ExitRecorded",
      "type": "event"
    },
    {
      "anonymous": false,
      "inputs": [
        {
          "indexed": true,
          "internalType": "address",
          "name": "user",
          "type": "address"
        },
        {
          "indexed": true,
          "internalType": "address",
          "name": "tokenAddress",
          "type": "address"
        },
        {
          "indexed": false,
          "internalType": "uint256",
          "name": "amount",
          "type": "uint256"
        }
      ],
      "name": "FundsWithdrawn",
      "type": "event"
    },
    {
      "anonymous": false,
      "inputs": [
        {
          "indexed": false,
          "internalType": "uint64",
          "name": "version",
          "type": "uint64"
        }
      ],
      "name": "Initialized",
      "type": "event"
    },
    {
      "anonymous": false,
      "inputs": [
        {
          "indexed": true,
          "internalType": "address",
          "name": "previousOwner",
          "type": "address"
        },
        {
          "indexed": true,
          "internalType": "address",
          "name": "newOwner",
          "type": "address"
        }
      ],
      "name": "OwnershipTransferred",
      "type": "event"
    },
    {
      "anonymous": false,
      "inputs": [
        {
          "indexed": true,
          "internalType": "address",
          "name": "implementation",
          "type": "address"
        }
      ],
      "name": "Upgraded",
      "type": "event"
    },
    {
      "inputs": [],
      "name": "UPGRADE_INTERFACE_VERSION",
      "outputs": [
        {
          "internalType": "string",
          "name": "",
          "type": "string"
        }
      ],
      "stateMutability": "view",
      "type": "function"
    },
    {
      "inputs": [],
      "name": "WITHDRAWAL_DELAY",
      "outputs": [
        {
          "internalType": "uint256",
          "name": "",
          "type": "uint256"
        }
      ],
      "stateMutability": "view",
      "type": "function"
    },
    {
      "inputs": [
        {
          "internalType": "address",
          "name": "_parkOwner",
          "type": "address"
        }
      ],
      "name": "addParkingOwner",
      "outputs": [],
      "stateMutability": "nonpayable",
      "type": "function"
    },
    {
      "inputs": [
        {
          "internalType": "address",
          "name": "tokenAddress",
          "type": "address"
        },
        {
          "internalType": "uint256",
          "name": "amount",
          "type": "uint256"
        },
        {
          "internalType": "address",
          "name": "parkingOwner",
          "type": "address"
        }
      ],
      "name": "depositTokens",
      "outputs": [],
      "stateMutability": "nonpayable",
      "type": "function"
    },
    {
      "inputs": [
        {
          "internalType": "address",
          "name": "",
          "type": "address"
        },
        {
          "internalType": "address",
          "name": "",
          "type": "address"
        }
      ],
      "name": "deposits",
      "outputs": [
        {
          "internalType": "uint256",
          "name": "",
          "type": "uint256"
        }
      ],
      "stateMutability": "view",
      "type": "function"
    },
    {
      "inputs": [
        {
          "internalType": "address",
          "name": "",
          "type": "address"
        }
      ],
      "name": "designatedOwner",
      "outputs": [
        {
          "internalType": "address",
          "name": "",
          "type": "address"
        }
      ],
      "stateMutability": "view",
      "type": "function"
    },
    {
      "inputs": [
        {
          "internalType": "address",
          "name": "userAddress",
          "type": "address"
        },
        {
          "internalType": "address",
          "name": "tokenAddress",
          "type": "address"
        }
      ],
      "name": "getDepositBalance",
      "outputs": [
        {
          "internalType": "uint256",
          "name": "",
          "type": "uint256"
        }
      ],
      "stateMutability": "view",
      "type": "function"
    },
    {
      "inputs": [
        {
          "internalType": "address",
          "name": "initialOwner",
          "type": "address"
        },
        {
          "internalType": "uint256",
          "name": "_ratePerMinute",
          "type": "uint256"
        }
      ],
      "name": "initialize",
      "outputs": [],
      "stateMutability": "nonpayable",
      "type": "function"
    },
    {
      "inputs": [
        {
          "internalType": "address",
          "name": "forwarder",
          "type": "address"
        }
      ],
      "name": "isTrustedForwarder",
      "outputs": [
        {
          "internalType": "bool",
          "name": "",
          "type": "bool"
        }
      ],
      "stateMutability": "view",
      "type": "function"
    },
    {
      "inputs": [
        {
          "internalType": "address",
          "name": "",
          "type": "address"
        },
        {
          "internalType": "address",
          "name": "",
          "type": "address"
        }
      ],
      "name": "lastDepositTime",
      "outputs": [
        {
          "internalType": "uint256",
          "name": "",
          "type": "uint256"
        }
      ],
      "stateMutability": "view",
      "type": "function"
    },
    {
      "inputs": [],
      "name": "owner",
      "outputs": [
        {
          "internalType": "address",
          "name": "",
          "type": "address"
        }
      ],
      "stateMutability": "view",
      "type": "function"
    },
    {
      "inputs": [
        {
          "internalType": "address",
          "name": "",
          "type": "address"
        }
      ],
      "name": "parkingStatus",
      "outputs": [
        {
          "internalType": "bool",
          "name": "isParked",
          "type": "bool"
        },
        {
          "internalType": "uint256",
          "name": "entryTime",
          "type": "uint256"
        },
        {
          "internalType": "address",
          "name": "tokenAddress",
          "type": "address"
        }
      ],
      "stateMutability": "view",
      "type": "function"
    },
    {
      "inputs": [],
      "name": "proxiableUUID",
      "outputs": [
        {
          "internalType": "bytes32",
          "name": "",
          "type": "bytes32"
        }
      ],
      "stateMutability": "view",
      "type": "function"
    },
    {
      "inputs": [],
      "name": "ratePerMinute",
      "outputs": [
        {
          "internalType": "uint256",
          "name": "",
          "type": "uint256"
        }
      ],
      "stateMutability": "view",
      "type": "function"
    },
    {
      "inputs": [
        {
          "internalType": "address",
          "name": "userAddress",
          "type": "address"
        },
        {
          "internalType": "address",
          "name": "tokenAddress",
          "type": "address"
        }
      ],
      "name": "recordEntry",
      "outputs": [],
      "stateMutability": "nonpayable",
      "type": "function"
    },
    {
      "inputs": [
        {
          "internalType": "address",
          "name": "userAddress",
          "type": "address"
        }
      ],
      "name": "recordExit",
      "outputs": [],
      "stateMutability": "nonpayable",
      "type": "function"
    },
    {
      "inputs": [
        {
          "internalType": "address",
          "name": "_parkOwner",
          "type": "address"
        }
      ],
      "name": "removeParkingOwner",
      "outputs": [],
      "stateMutability": "nonpayable",
      "type": "function"
    },
    {
      "inputs": [],
      "name": "renounceOwnership",
      "outputs": [],
      "stateMutability": "nonpayable",
      "type": "function"
    },
    {
      "inputs": [
        {
          "internalType": "uint256",
          "name": "newRate",
          "type": "uint256"
        }
      ],
      "name": "setParkingRate",
      "outputs": [],
      "stateMutability": "nonpayable",
      "type": "function"
    },
    {
      "inputs": [
        {
          "internalType": "uint256",
          "name": "newDelay",
          "type": "uint256"
        }
      ],
      "name": "setWithdrawalDelay",
      "outputs": [],
      "stateMutability": "nonpayable",
      "type": "function"
    },
    {
      "inputs": [
        {
          "internalType": "address",
          "name": "newOwner",
          "type": "address"
        }
      ],
      "name": "transferOwnership",
      "outputs": [],
      "stateMutability": "nonpayable",
      "type": "function"
    },
    {
      "inputs": [],
      "name": "trustedForwarder",
      "outputs": [
        {
          "internalType": "address",
          "name": "",
          "type": "address"
        }
      ],
      "stateMutability": "view",
      "type": "function"
    },
    {
      "inputs": [
        {
          "internalType": "address",
          "name": "newImplementation",
          "type": "address"
        },
        {
          "internalType": "bytes",
          "name": "data",
          "type": "bytes"
        }
      ],
      "name": "upgradeToAndCall",
      "outputs": [],
      "stateMutability": "payable",
      "type": "function"
    },
    {
      "inputs": [
        {
          "internalType": "address",
          "name": "",
          "type": "address"
        }
      ],
      "name": "validParkingOwners",
      "outputs": [
        {
          "internalType": "bool",
          "name": "",
          "type": "bool"
        }
      ],
      "stateMutability": "view",
      "type": "function"
    },
    {
      "inputs": [
        {
          "internalType": "address",
          "name": "userAddress",
          "type": "address"
        },
        {
          "internalType": "address",
          "name": "tokenAddress",
          "type": "address"
        }
      ],
      "name": "withdrawRemainingFunds",
      "outputs": [],
      "stateMutability": "nonpayable",
      "type": "function"
    }
  ],
  "bytecode": "0x60c06040523073ffffffffffffffffffffffffffffffffffffffff1660809073ffffffffffffffffffffffffffffffffffffffff168152503480156200004457600080fd5b5060405162004b2338038062004b2383398181016040528101906200006a919062000111565b808073ffffffffffffffffffffffffffffffffffffffff1660a08173ffffffffffffffffffffffffffffffffffffffff1681525050505062000143565b600080fd5b600073ffffffffffffffffffffffffffffffffffffffff82169050919050565b6000620000d982620000ac565b9050919050565b620000eb81620000cc565b8114620000f757600080fd5b50565b6000815190506200010b81620000e0565b92915050565b6000602082840312156200012a5762000129620000a7565b5b60006200013a84828501620000fa565b91505092915050565b60805160a0516149ac620001776000396000611549015260008181612b6c01528181612bc10152612d7c01526149ac6000f3fe6080604052600436106101665760003560e01c80636a525770116100d157806392f471201161008a578063cd6dc68711610064578063cd6dc6871461052d578063d2c13da514610556578063d5da8db01461057f578063f2fde38b146105be57610166565b806392f47120146104b05780639cdf4382146104d9578063ad3cb1cc1461050257610166565b80636a525770146103a05780636ae0ce92146103c9578063715018a6146104065780637da0a8771461041d5780638da5cb5b146104485780638f601f661461047357610166565b80633a1e7d10116101235780633a1e7d101461028d5780634f1ef286146102b657806352d1902d146102d2578063547325fc146102fd578063572b6c05146103265780636186d53c1461036357610166565b80630886dd891461016b5780630ae112a4146101965780630ebb172a146101d3578063298e4f79146101fe5780632f920c4e146102275780633526a99214610264575b600080fd5b34801561017757600080fd5b506101806105e7565b60405161018d9190613647565b60405180910390f35b3480156101a257600080fd5b506101bd60048036038101906101b891906136d4565b6105ed565b6040516101ca9190613647565b60405180910390f35b3480156101df57600080fd5b506101e8610674565b6040516101f59190613647565b60405180910390f35b34801561020a57600080fd5b5061022560048036038101906102209190613740565b61067a565b005b34801561023357600080fd5b5061024e60048036038101906102499190613793565b610bca565b60405161025b91906137db565b60405180910390f35b34801561027057600080fd5b5061028b60048036038101906102869190613793565b610bea565b005b34801561029957600080fd5b506102b460048036038101906102af91906137f6565b610c4d565b005b6102d060048036038101906102cb9190613969565b610c5f565b005b3480156102de57600080fd5b506102e7610c7e565b6040516102f491906139de565b60405180910390f35b34801561030957600080fd5b50610324600480360381019061031f9190613793565b610cb1565b005b34801561033257600080fd5b5061034d60048036038101906103489190613793565b611437565b60405161035a91906137db565b60405180910390f35b34801561036f57600080fd5b5061038a60048036038101906103859190613793565b611476565b6040516103979190613a08565b60405180910390f35b3480156103ac57600080fd5b506103c760048036038101906103c29190613793565b6114a9565b005b3480156103d557600080fd5b506103f060048036038101906103eb91906136d4565b61150c565b6040516103fd9190613647565b60405180910390f35b34801561041257600080fd5b5061041b611531565b005b34801561042957600080fd5b50610432611545565b60405161043f9190613a08565b60405180910390f35b34801561045457600080fd5b5061045d61156d565b60405161046a9190613a08565b60405180910390f35b34801561047f57600080fd5b5061049a600480360381019061049591906136d4565b6115a5565b6040516104a79190613647565b60405180910390f35b3480156104bc57600080fd5b506104d760048036038101906104d291906136d4565b6115ca565b005b3480156104e557600080fd5b5061050060048036038101906104fb91906136d4565b61221f565b005b34801561050e57600080fd5b50610517612712565b6040516105249190613aa2565b60405180910390f35b34801561053957600080fd5b50610554600480360381019061054f9190613ac4565b61274b565b005b34801561056257600080fd5b5061057d600480360381019061057891906137f6565b6128f3565b005b34801561058b57600080fd5b506105a660048036038101906105a19190613793565b612905565b6040516105b593929190613b04565b60405180910390f35b3480156105ca57600080fd5b506105e560048036038101906105e09190613793565b61295c565b005b60005481565b6000600260008473ffffffffffffffffffffffffffffffffffffffff1673ffffffffffffffffffffffffffffffffffffffff16815260200190815260200160002060008373ffffffffffffffffffffffffffffffffffffffff1673ffffffffffffffffffffffffffffffffffffffff16815260200190815260200160002054905092915050565b60015481565b6106826129e2565b600082116106c5576040517f08c379a00000000000000000000000000000000000000000000000000000000081526004016106bc90613bad565b60405180910390fd5b600073ffffffffffffffffffffffffffffffffffffffff168373ffffffffffffffffffffffffffffffffffffffff1603610734576040517f08c379a000000000000000000000000000000000000000000000000000000000815260040161072b90613c19565b60405180910390fd5b600360008273ffffffffffffffffffffffffffffffffffffffff1673ffffffffffffffffffffffffffffffffffffffff16815260200190815260200160002060009054906101000a900460ff166107c0576040517f08c379a00000000000000000000000000000000000000000000000000000000081526004016107b790613c85565b60405180910390fd5b60006107ca612a39565b905060008490506107fe8230868473ffffffffffffffffffffffffffffffffffffffff16612a48909392919063ffffffff16565b83600260008473ffffffffffffffffffffffffffffffffffffffff1673ffffffffffffffffffffffffffffffffffffffff16815260200190815260200160002060008773ffffffffffffffffffffffffffffffffffffffff1673ffffffffffffffffffffffffffffffffffffffff168152602001908152602001600020600082825461088a9190613cd4565b9250508190555082600460008473ffffffffffffffffffffffffffffffffffffffff1673ffffffffffffffffffffffffffffffffffffffff16815260200190815260200160002060006101000a81548173ffffffffffffffffffffffffffffffffffffffff021916908373ffffffffffffffffffffffffffffffffffffffff16021790555042600860008473ffffffffffffffffffffffffffffffffffffffff1673ffffffffffffffffffffffffffffffffffffffff16815260200190815260200160002060008773ffffffffffffffffffffffffffffffffffffffff1673ffffffffffffffffffffffffffffffffffffffff16815260200190815260200160002081905550600660008373ffffffffffffffffffffffffffffffffffffffff1673ffffffffffffffffffffffffffffffffffffffff16815260200190815260200160002060008673ffffffffffffffffffffffffffffffffffffffff1673ffffffffffffffffffffffffffffffffffffffff16815260200190815260200160002060009054906101000a900460ff16610b54576001600660008473ffffffffffffffffffffffffffffffffffffffff1673ffffffffffffffffffffffffffffffffffffffff16815260200190815260200160002060008773ffffffffffffffffffffffffffffffffffffffff1673ffffffffffffffffffffffffffffffffffffffff16815260200190815260200160002060006101000a81548160ff021916908315150217905550600760008373ffffffffffffffffffffffffffffffffffffffff1673ffffffffffffffffffffffffffffffffffffffff168152602001908152602001600020859080600181540180825580915050600190039060005260206000200160009091909190916101000a81548173ffffffffffffffffffffffffffffffffffffffff021916908373ffffffffffffffffffffffffffffffffffffffff1602179055505b8473ffffffffffffffffffffffffffffffffffffffff168273ffffffffffffffffffffffffffffffffffffffff167f5bb645d0c5d8afd451c0bafa18b92fea572a1656ae933b2acc5bb7d32543f25d8686604051610bb3929190613d08565b60405180910390a35050610bc5612aca565b505050565b60036020528060005260406000206000915054906101000a900460ff1681565b610bf2612ae3565b6001600360008373ffffffffffffffffffffffffffffffffffffffff1673ffffffffffffffffffffffffffffffffffffffff16815260200190815260200160002060006101000a81548160ff02191690831515021790555050565b610c55612ae3565b8060008190555050565b610c67612b6a565b610c7082612c50565b610c7a8282612c5b565b5050565b6000610c88612d7a565b7f360894a13ba1a3210667c828492db98dca3e2076cc3735a920a3ca505d382bbc60001b905090565b610cb96129e2565b600073ffffffffffffffffffffffffffffffffffffffff168173ffffffffffffffffffffffffffffffffffffffff1603610d28576040517f08c379a0000000000000000000000000000000000000000000000000000000008152600401610d1f90613d7d565b60405180910390fd5b600460008273ffffffffffffffffffffffffffffffffffffffff1673ffffffffffffffffffffffffffffffffffffffff16815260200190815260200160002060009054906101000a900473ffffffffffffffffffffffffffffffffffffffff1673ffffffffffffffffffffffffffffffffffffffff16610da6612a39565b73ffffffffffffffffffffffffffffffffffffffff1614610dfc576040517f08c379a0000000000000000000000000000000000000000000000000000000008152600401610df390613e0f565b60405180910390fd5b600560008273ffffffffffffffffffffffffffffffffffffffff1673ffffffffffffffffffffffffffffffffffffffff16815260200190815260200160002060000160009054906101000a900460ff16610e8b576040517f08c379a0000000000000000000000000000000000000000000000000000000008152600401610e8290613e7b565b60405180910390fd5b6000603c600560008473ffffffffffffffffffffffffffffffffffffffff1673ffffffffffffffffffffffffffffffffffffffff1681526020019081526020016000206001015442610edd9190613e9b565b610ee79190613efe565b90506000610ef482612e01565b90506000600560008573ffffffffffffffffffffffffffffffffffffffff1673ffffffffffffffffffffffffffffffffffffffff16815260200190815260200160002060020160009054906101000a900473ffffffffffffffffffffffffffffffffffffffff169050600073ffffffffffffffffffffffffffffffffffffffff168173ffffffffffffffffffffffffffffffffffffffff1603610fcc576040517f08c379a0000000000000000000000000000000000000000000000000000000008152600401610fc390613f7b565b60405180910390fd5b81600260008673ffffffffffffffffffffffffffffffffffffffff1673ffffffffffffffffffffffffffffffffffffffff16815260200190815260200160002060008373ffffffffffffffffffffffffffffffffffffffff1673ffffffffffffffffffffffffffffffffffffffff16815260200190815260200160002054101561108b576040517f08c379a000000000000000000000000000000000000000000000000000000000815260040161108290613fe7565b60405180910390fd5b600073ffffffffffffffffffffffffffffffffffffffff16600460008673ffffffffffffffffffffffffffffffffffffffff1673ffffffffffffffffffffffffffffffffffffffff16815260200190815260200160002060009054906101000a900473ffffffffffffffffffffffffffffffffffffffff1673ffffffffffffffffffffffffffffffffffffffff1603611159576040517f08c379a000000000000000000000000000000000000000000000000000000000815260040161115090614079565b60405180910390fd5b6000606460038461116a9190614099565b6111749190613efe565b9050600081846111849190613e9b565b905083600260008873ffffffffffffffffffffffffffffffffffffffff1673ffffffffffffffffffffffffffffffffffffffff16815260200190815260200160002060008573ffffffffffffffffffffffffffffffffffffffff1673ffffffffffffffffffffffffffffffffffffffff16815260200190815260200160002060008282546112129190613e9b565b925050819055506112a3600460008873ffffffffffffffffffffffffffffffffffffffff1673ffffffffffffffffffffffffffffffffffffffff16815260200190815260200160002060009054906101000a900473ffffffffffffffffffffffffffffffffffffffff16828573ffffffffffffffffffffffffffffffffffffffff16612e179092919063ffffffff16565b6112d56112ae61156d565b838573ffffffffffffffffffffffffffffffffffffffff16612e179092919063ffffffff16565b604051806060016040528060001515815260200160008152602001600073ffffffffffffffffffffffffffffffffffffffff16815250600560008873ffffffffffffffffffffffffffffffffffffffff1673ffffffffffffffffffffffffffffffffffffffff16815260200190815260200160002060008201518160000160006101000a81548160ff0219169083151502179055506020820151816001015560408201518160020160006101000a81548173ffffffffffffffffffffffffffffffffffffffff021916908373ffffffffffffffffffffffffffffffffffffffff1602179055509050508273ffffffffffffffffffffffffffffffffffffffff168673ffffffffffffffffffffffffffffffffffffffff167f4560d298b9dd5281513e9cbe8e99d0c56402bcebfcc737160f2bf292a363626687848660405161141f939291906140db565b60405180910390a35050505050611434612aca565b50565b6000611441611545565b73ffffffffffffffffffffffffffffffffffffffff168273ffffffffffffffffffffffffffffffffffffffff16149050919050565b60046020528060005260406000206000915054906101000a900473ffffffffffffffffffffffffffffffffffffffff1681565b6114b1612ae3565b6000600360008373ffffffffffffffffffffffffffffffffffffffff1673ffffffffffffffffffffffffffffffffffffffff16815260200190815260200160002060006101000a81548160ff02191690831515021790555050565b6008602052816000526040600020602052806000526040600020600091509150505481565b611539612ae3565b6115436000612e96565b565b60007f0000000000000000000000000000000000000000000000000000000000000000905090565b600080611578612f6d565b90508060000160009054906101000a900473ffffffffffffffffffffffffffffffffffffffff1691505090565b6002602052816000526040600020602052806000526040600020600091509150505481565b6115d26129e2565b60006115dc612a39565b9050600073ffffffffffffffffffffffffffffffffffffffff168373ffffffffffffffffffffffffffffffffffffffff160361164d576040517f08c379a000000000000000000000000000000000000000000000000000000000815260040161164490613d7d565b60405180910390fd5b600073ffffffffffffffffffffffffffffffffffffffff168273ffffffffffffffffffffffffffffffffffffffff16036116bc576040517f08c379a00000000000000000000000000000000000000000000000000000000081526004016116b390613c19565b60405180910390fd5b6000600260008573ffffffffffffffffffffffffffffffffffffffff1673ffffffffffffffffffffffffffffffffffffffff16815260200190815260200160002060008473ffffffffffffffffffffffffffffffffffffffff1673ffffffffffffffffffffffffffffffffffffffff168152602001908152602001600020541161177b576040517f08c379a00000000000000000000000000000000000000000000000000000000081526004016117729061415e565b60405180910390fd5b8273ffffffffffffffffffffffffffffffffffffffff168173ffffffffffffffffffffffffffffffffffffffff1614806117e757506117b861156d565b73ffffffffffffffffffffffffffffffffffffffff168173ffffffffffffffffffffffffffffffffffffffff16145b611826576040517f08c379a000000000000000000000000000000000000000000000000000000000815260040161181d906141f0565b60405180910390fd5b8273ffffffffffffffffffffffffffffffffffffffff168173ffffffffffffffffffffffffffffffffffffffff16036119b657600154600860008573ffffffffffffffffffffffffffffffffffffffff1673ffffffffffffffffffffffffffffffffffffffff16815260200190815260200160002060008473ffffffffffffffffffffffffffffffffffffffff1673ffffffffffffffffffffffffffffffffffffffff168152602001908152602001600020546118e39190613cd4565b421015611925576040517f08c379a000000000000000000000000000000000000000000000000000000000815260040161191c90614282565b60405180910390fd5b600560008473ffffffffffffffffffffffffffffffffffffffff1673ffffffffffffffffffffffffffffffffffffffff16815260200190815260200160002060000160009054906101000a900460ff16156119b5576040517f08c379a00000000000000000000000000000000000000000000000000000000081526004016119ac906142ee565b60405180910390fd5b5b60008290506000600260008673ffffffffffffffffffffffffffffffffffffffff1673ffffffffffffffffffffffffffffffffffffffff16815260200190815260200160002060008573ffffffffffffffffffffffffffffffffffffffff1673ffffffffffffffffffffffffffffffffffffffff1681526020019081526020016000205490506000600260008773ffffffffffffffffffffffffffffffffffffffff1673ffffffffffffffffffffffffffffffffffffffff16815260200190815260200160002060008673ffffffffffffffffffffffffffffffffffffffff1673ffffffffffffffffffffffffffffffffffffffff16815260200190815260200160002081905550808273ffffffffffffffffffffffffffffffffffffffff166370a08231306040518263ffffffff1660e01b8152600401611af89190613a08565b602060405180830381865afa158015611b15573d6000803e3d6000fd5b505050506040513d601f19601f82011682018060405250810190611b399190614323565b1015611b7a576040517f08c379a0000000000000000000000000000000000000000000000000000000008152600401611b71906143c2565b60405180910390fd5b6000805b600760008873ffffffffffffffffffffffffffffffffffffffff1673ffffffffffffffffffffffffffffffffffffffff16815260200190815260200160002080549050811015611ce4576000600260008973ffffffffffffffffffffffffffffffffffffffff1673ffffffffffffffffffffffffffffffffffffffff1681526020019081526020016000206000600760008b73ffffffffffffffffffffffffffffffffffffffff1673ffffffffffffffffffffffffffffffffffffffff1681526020019081526020016000208481548110611c5c57611c5b6143e2565b5b9060005260206000200160009054906101000a900473ffffffffffffffffffffffffffffffffffffffff1673ffffffffffffffffffffffffffffffffffffffff1673ffffffffffffffffffffffffffffffffffffffff168152602001908152602001600020541115611cd15760019150611ce4565b8080611cdc90614411565b915050611b7e565b5080611d6a576000600460008873ffffffffffffffffffffffffffffffffffffffff1673ffffffffffffffffffffffffffffffffffffffff16815260200190815260200160002060006101000a81548173ffffffffffffffffffffffffffffffffffffffff021916908373ffffffffffffffffffffffffffffffffffffffff1602179055505b6000600260008873ffffffffffffffffffffffffffffffffffffffff1673ffffffffffffffffffffffffffffffffffffffff16815260200190815260200160002060008773ffffffffffffffffffffffffffffffffffffffff1673ffffffffffffffffffffffffffffffffffffffff168152602001908152602001600020540361217f576000600660008873ffffffffffffffffffffffffffffffffffffffff1673ffffffffffffffffffffffffffffffffffffffff16815260200190815260200160002060008773ffffffffffffffffffffffffffffffffffffffff1673ffffffffffffffffffffffffffffffffffffffff16815260200190815260200160002060006101000a81548160ff02191690831515021790555060005b600760008873ffffffffffffffffffffffffffffffffffffffff1673ffffffffffffffffffffffffffffffffffffffff1681526020019081526020016000208054905081101561217d578573ffffffffffffffffffffffffffffffffffffffff16600760008973ffffffffffffffffffffffffffffffffffffffff1673ffffffffffffffffffffffffffffffffffffffff1681526020019081526020016000208281548110611f3857611f376143e2565b5b9060005260206000200160009054906101000a900473ffffffffffffffffffffffffffffffffffffffff1673ffffffffffffffffffffffffffffffffffffffff160361216a57600760008873ffffffffffffffffffffffffffffffffffffffff1673ffffffffffffffffffffffffffffffffffffffff1681526020019081526020016000206001600760008a73ffffffffffffffffffffffffffffffffffffffff1673ffffffffffffffffffffffffffffffffffffffff1681526020019081526020016000208054905061200c9190613e9b565b8154811061201d5761201c6143e2565b5b9060005260206000200160009054906101000a900473ffffffffffffffffffffffffffffffffffffffff16600760008973ffffffffffffffffffffffffffffffffffffffff1673ffffffffffffffffffffffffffffffffffffffff1681526020019081526020016000208281548110612099576120986143e2565b5b9060005260206000200160006101000a81548173ffffffffffffffffffffffffffffffffffffffff021916908373ffffffffffffffffffffffffffffffffffffffff160217905550600760008873ffffffffffffffffffffffffffffffffffffffff1673ffffffffffffffffffffffffffffffffffffffff1681526020019081526020016000208054806121305761212f614459565b5b6001900381819060005260206000200160006101000a81549073ffffffffffffffffffffffffffffffffffffffff0219169055905561217d565b808061217590614411565b915050611e86565b505b6121aa86838573ffffffffffffffffffffffffffffffffffffffff16612e179092919063ffffffff16565b8473ffffffffffffffffffffffffffffffffffffffff168673ffffffffffffffffffffffffffffffffffffffff167fa92ff919b850e4909ab2261d907ef955f11bc1716733a6cbece38d163a69af8a846040516122079190613647565b60405180910390a35050505061221b612aca565b5050565b6122276129e2565b6000612231612a39565b9050600073ffffffffffffffffffffffffffffffffffffffff168373ffffffffffffffffffffffffffffffffffffffff16036122a2576040517f08c379a000000000000000000000000000000000000000000000000000000000815260040161229990613d7d565b60405180910390fd5b600073ffffffffffffffffffffffffffffffffffffffff168273ffffffffffffffffffffffffffffffffffffffff1603612311576040517f08c379a000000000000000000000000000000000000000000000000000000000815260040161230890613c19565b60405180910390fd5b600360008273ffffffffffffffffffffffffffffffffffffffff1673ffffffffffffffffffffffffffffffffffffffff16815260200190815260200160002060009054906101000a900460ff1661239d576040517f08c379a0000000000000000000000000000000000000000000000000000000008152600401612394906144fa565b60405180910390fd5b600460008473ffffffffffffffffffffffffffffffffffffffff1673ffffffffffffffffffffffffffffffffffffffff16815260200190815260200160002060009054906101000a900473ffffffffffffffffffffffffffffffffffffffff1673ffffffffffffffffffffffffffffffffffffffff168173ffffffffffffffffffffffffffffffffffffffff161461246a576040517f08c379a00000000000000000000000000000000000000000000000000000000081526004016124619061458c565b60405180910390fd5b6000600260008573ffffffffffffffffffffffffffffffffffffffff1673ffffffffffffffffffffffffffffffffffffffff16815260200190815260200160002060008473ffffffffffffffffffffffffffffffffffffffff1673ffffffffffffffffffffffffffffffffffffffff1681526020019081526020016000205411612529576040517f08c379a00000000000000000000000000000000000000000000000000000000081526004016125209061461e565b60405180910390fd5b600560008473ffffffffffffffffffffffffffffffffffffffff1673ffffffffffffffffffffffffffffffffffffffff16815260200190815260200160002060000160009054906101000a900460ff16156125b9576040517f08c379a00000000000000000000000000000000000000000000000000000000081526004016125b09061468a565b60405180910390fd5b60405180606001604052806001151581526020014281526020018373ffffffffffffffffffffffffffffffffffffffff16815250600560008573ffffffffffffffffffffffffffffffffffffffff1673ffffffffffffffffffffffffffffffffffffffff16815260200190815260200160002060008201518160000160006101000a81548160ff0219169083151502179055506020820151816001015560408201518160020160006101000a81548173ffffffffffffffffffffffffffffffffffffffff021916908373ffffffffffffffffffffffffffffffffffffffff1602179055509050508173ffffffffffffffffffffffffffffffffffffffff168373ffffffffffffffffffffffffffffffffffffffff167f9b115279725d5b3f95e9bc786b47beccc72133ffc90816351c17ee7ff991c0ca426040516126fd9190613647565b60405180910390a35061270e612aca565b5050565b6040518060400160405280600581526020017f352e302e3000000000000000000000000000000000000000000000000000000081525081565b6000612755612f95565b905060008160000160089054906101000a900460ff1615905060008260000160009054906101000a900467ffffffffffffffff1690506000808267ffffffffffffffff161480156127a35750825b9050600060018367ffffffffffffffff161480156127d8575060003073ffffffffffffffffffffffffffffffffffffffff163b145b9050811580156127e6575080155b1561281d576040517ff92ee8a900000000000000000000000000000000000000000000000000000000815260040160405180910390fd5b60018560000160006101000a81548167ffffffffffffffff021916908367ffffffffffffffff160217905550831561286d5760018560000160086101000a81548160ff0219169083151502179055505b61287687612fbd565b61287e612fd1565b8560008190555061070860018190555083156128ea5760008560000160086101000a81548160ff0219169083151502179055507fc7f505b2f371ae2175ee4913f4499e1f2633a7b5936321eed1cdaeb6115181d260016040516128e19190614703565b60405180910390a15b50505050505050565b6128fb612ae3565b8060018190555050565b60056020528060005260406000206000915090508060000160009054906101000a900460ff16908060010154908060020160009054906101000a900473ffffffffffffffffffffffffffffffffffffffff16905083565b612964612ae3565b600073ffffffffffffffffffffffffffffffffffffffff168173ffffffffffffffffffffffffffffffffffffffff16036129d65760006040517f1e4fbdf70000000000000000000000000000000000000000000000000000000081526004016129cd9190613a08565b60405180910390fd5b6129df81612e96565b50565b60006129ec612fdb565b90506002816000015403612a2c576040517f3ee5aeb500000000000000000000000000000000000000000000000000000000815260040160405180910390fd5b6002816000018190555050565b6000612a43613003565b905090565b612ac4848573ffffffffffffffffffffffffffffffffffffffff166323b872dd868686604051602401612a7d9392919061471e565b604051602081830303815290604052915060e01b6020820180517bffffffffffffffffffffffffffffffffffffffffffffffffffffffff8381831617835250505050613078565b50505050565b6000612ad4612fdb565b90506001816000018190555050565b612aeb612a39565b73ffffffffffffffffffffffffffffffffffffffff16612b0961156d565b73ffffffffffffffffffffffffffffffffffffffff1614612b6857612b2c612a39565b6040517f118cdaa7000000000000000000000000000000000000000000000000000000008152600401612b5f9190613a08565b60405180910390fd5b565b7f000000000000000000000000000000000000000000000000000000000000000073ffffffffffffffffffffffffffffffffffffffff163073ffffffffffffffffffffffffffffffffffffffff161480612c1757507f000000000000000000000000000000000000000000000000000000000000000073ffffffffffffffffffffffffffffffffffffffff16612bfe61310f565b73ffffffffffffffffffffffffffffffffffffffff1614155b15612c4e576040517fe07c8dba00000000000000000000000000000000000000000000000000000000815260040160405180910390fd5b565b612c58612ae3565b50565b8173ffffffffffffffffffffffffffffffffffffffff166352d1902d6040518163ffffffff1660e01b8152600401602060405180830381865afa925050508015612cc357506040513d601f19601f82011682018060405250810190612cc09190614781565b60015b612d0457816040517f4c9c8ce3000000000000000000000000000000000000000000000000000000008152600401612cfb9190613a08565b60405180910390fd5b7f360894a13ba1a3210667c828492db98dca3e2076cc3735a920a3ca505d382bbc60001b8114612d6b57806040517faa1d49a4000000000000000000000000000000000000000000000000000000008152600401612d6291906139de565b60405180910390fd5b612d758383613166565b505050565b7f000000000000000000000000000000000000000000000000000000000000000073ffffffffffffffffffffffffffffffffffffffff163073ffffffffffffffffffffffffffffffffffffffff1614612dff576040517fe07c8dba00000000000000000000000000000000000000000000000000000000815260040160405180910390fd5b565b6000805482612e109190614099565b9050919050565b612e91838473ffffffffffffffffffffffffffffffffffffffff1663a9059cbb8585604051602401612e4a9291906147ae565b604051602081830303815290604052915060e01b6020820180517bffffffffffffffffffffffffffffffffffffffffffffffffffffffff8381831617835250505050613078565b505050565b6000612ea0612f6d565b905060008160000160009054906101000a900473ffffffffffffffffffffffffffffffffffffffff169050828260000160006101000a81548173ffffffffffffffffffffffffffffffffffffffff021916908373ffffffffffffffffffffffffffffffffffffffff1602179055508273ffffffffffffffffffffffffffffffffffffffff168173ffffffffffffffffffffffffffffffffffffffff167f8be0079c531659141344cd1fd0a4f28419497f9722a3daafe3b4186f6b6457e060405160405180910390a3505050565b60007f9016d09d72d40fdae2fd8ceac6b6234c7706214fd39c1cd1e609a0528c199300905090565b60007ff0c57e16840df040f15088dc2f81fe391c3923bec73e23a9662efc9c229c6a00905090565b612fc56131d9565b612fce81613219565b50565b612fd96131d9565b565b60007f9b779b17422d0df92223018b32b4d1fa46e071723d6817e2486d003becc55f00905090565b60008060003690509050600061301761329f565b905061302233611437565b801561302e5750808210155b156130685760003682846130429190613e9b565b908092613051939291906147e1565b9061305c9190614860565b60601c92505050613075565b6130706132ae565b925050505b90565b60006130a3828473ffffffffffffffffffffffffffffffffffffffff166132b690919063ffffffff16565b905060008151141580156130c85750808060200190518101906130c691906148eb565b155b1561310a57826040517f5274afe70000000000000000000000000000000000000000000000000000000081526004016131019190613a08565b60405180910390fd5b505050565b600061313d7f360894a13ba1a3210667c828492db98dca3e2076cc3735a920a3ca505d382bbc60001b6132cc565b60000160009054906101000a900473ffffffffffffffffffffffffffffffffffffffff16905090565b61316f826132d6565b8173ffffffffffffffffffffffffffffffffffffffff167fbc7cd75a20ee27fd9adebab32041f755214dbc6bffa90cc0225b39da2e5c2d3b60405160405180910390a26000815111156131cc576131c682826133a3565b506131d5565b6131d4613427565b5b5050565b6131e1613464565b613217576040517fd7e6bcf800000000000000000000000000000000000000000000000000000000815260040160405180910390fd5b565b6132216131d9565b600073ffffffffffffffffffffffffffffffffffffffff168173ffffffffffffffffffffffffffffffffffffffff16036132935760006040517f1e4fbdf700000000000000000000000000000000000000000000000000000000815260040161328a9190613a08565b60405180910390fd5b61329c81612e96565b50565b60006132a9613484565b905090565b600033905090565b60606132c48383600061348d565b905092915050565b6000819050919050565b60008173ffffffffffffffffffffffffffffffffffffffff163b0361333257806040517f4c9c8ce30000000000000000000000000000000000000000000000000000000081526004016133299190613a08565b60405180910390fd5b8061335f7f360894a13ba1a3210667c828492db98dca3e2076cc3735a920a3ca505d382bbc60001b6132cc565b60000160006101000a81548173ffffffffffffffffffffffffffffffffffffffff021916908373ffffffffffffffffffffffffffffffffffffffff16021790555050565b60606000808473ffffffffffffffffffffffffffffffffffffffff16846040516133cd919061495f565b600060405180830381855af49150503d8060008114613408576040519150601f19603f3d011682016040523d82523d6000602084013e61340d565b606091505b509150915061341d85838361355a565b9250505092915050565b6000341115613462576040517fb398979f00000000000000000000000000000000000000000000000000000000815260040160405180910390fd5b565b600061346e612f95565b60000160089054906101000a900460ff16905090565b60006014905090565b6060814710156134d457306040517fcd7860590000000000000000000000000000000000000000000000000000000081526004016134cb9190613a08565b60405180910390fd5b6000808573ffffffffffffffffffffffffffffffffffffffff1684866040516134fd919061495f565b60006040518083038185875af1925050503d806000811461353a576040519150601f19603f3d011682016040523d82523d6000602084013e61353f565b606091505b509150915061354f86838361355a565b925050509392505050565b60608261356f5761356a826135e9565b6135e1565b60008251148015613597575060008473ffffffffffffffffffffffffffffffffffffffff163b145b156135d957836040517f9996b3150000000000000000000000000000000000000000000000000000000081526004016135d09190613a08565b60405180910390fd5b8190506135e2565b5b9392505050565b6000815111156135fc5780518082602001fd5b6040517f1425ea4200000000000000000000000000000000000000000000000000000000815260040160405180910390fd5b6000819050919050565b6136418161362e565b82525050565b600060208201905061365c6000830184613638565b92915050565b6000604051905090565b600080fd5b600080fd5b600073ffffffffffffffffffffffffffffffffffffffff82169050919050565b60006136a182613676565b9050919050565b6136b181613696565b81146136bc57600080fd5b50565b6000813590506136ce816136a8565b92915050565b600080604083850312156136eb576136ea61366c565b5b60006136f9858286016136bf565b925050602061370a858286016136bf565b9150509250929050565b61371d8161362e565b811461372857600080fd5b50565b60008135905061373a81613714565b92915050565b6000806000606084860312156137595761375861366c565b5b6000613767868287016136bf565b93505060206137788682870161372b565b9250506040613789868287016136bf565b9150509250925092565b6000602082840312156137a9576137a861366c565b5b60006137b7848285016136bf565b91505092915050565b60008115159050919050565b6137d5816137c0565b82525050565b60006020820190506137f060008301846137cc565b92915050565b60006020828403121561380c5761380b61366c565b5b600061381a8482850161372b565b91505092915050565b600080fd5b600080fd5b6000601f19601f8301169050919050565b7f4e487b7100000000000000000000000000000000000000000000000000000000600052604160045260246000fd5b6138768261382d565b810181811067ffffffffffffffff821117156138955761389461383e565b5b80604052505050565b60006138a8613662565b90506138b4828261386d565b919050565b600067ffffffffffffffff8211156138d4576138d361383e565b5b6138dd8261382d565b9050602081019050919050565b82818337600083830152505050565b600061390c613907846138b9565b61389e565b90508281526020810184848401111561392857613927613828565b5b6139338482856138ea565b509392505050565b600082601f8301126139505761394f613823565b5b81356139608482602086016138f9565b91505092915050565b600080604083850312156139805761397f61366c565b5b600061398e858286016136bf565b925050602083013567ffffffffffffffff8111156139af576139ae613671565b5b6139bb8582860161393b565b9150509250929050565b6000819050919050565b6139d8816139c5565b82525050565b60006020820190506139f360008301846139cf565b92915050565b613a0281613696565b82525050565b6000602082019050613a1d60008301846139f9565b92915050565b600081519050919050565b600082825260208201905092915050565b60005b83811015613a5d578082015181840152602081019050613a42565b60008484015250505050565b6000613a7482613a23565b613a7e8185613a2e565b9350613a8e818560208601613a3f565b613a978161382d565b840191505092915050565b60006020820190508181036000830152613abc8184613a69565b905092915050565b60008060408385031215613adb57613ada61366c565b5b6000613ae9858286016136bf565b9250506020613afa8582860161372b565b9150509250929050565b6000606082019050613b1960008301866137cc565b613b266020830185613638565b613b3360408301846139f9565b949350505050565b7f4465706f73697420616d6f756e74206d7573742062652067726561746572207460008201527f68616e207a65726f2e0000000000000000000000000000000000000000000000602082015250565b6000613b97602983613a2e565b9150613ba282613b3b565b604082019050919050565b60006020820190508181036000830152613bc681613b8a565b9050919050565b7f546f6b656e20616464726573732063616e6e6f74206265207a65726f2e000000600082015250565b6000613c03601d83613a2e565b9150613c0e82613bcd565b602082019050919050565b60006020820190508181036000830152613c3281613bf6565b9050919050565b7f5061726b696e67206f776e6572206973206e6f7420726567697374657265642e600082015250565b6000613c6f602083613a2e565b9150613c7a82613c39565b602082019050919050565b60006020820190508181036000830152613c9e81613c62565b9050919050565b7f4e487b7100000000000000000000000000000000000000000000000000000000600052601160045260246000fd5b6000613cdf8261362e565b9150613cea8361362e565b9250828201905080821115613d0257613d01613ca5565b5b92915050565b6000604082019050613d1d6000830185613638565b613d2a60208301846139f9565b9392505050565b7f5573657220616464726573732063616e6e6f74206265207a65726f2e00000000600082015250565b6000613d67601c83613a2e565b9150613d7282613d31565b602082019050919050565b60006020820190508181036000830152613d9681613d5a565b9050919050565b7f4f6e6c792064657369676e61746564207061726b696e67206f776e657220636160008201527f6e207265636f726420657869742e000000000000000000000000000000000000602082015250565b6000613df9602e83613a2e565b9150613e0482613d9d565b604082019050919050565b60006020820190508181036000830152613e2881613dec565b9050919050565b7f55736572206973206e6f742063757272656e746c79207061726b65642e000000600082015250565b6000613e65601d83613a2e565b9150613e7082613e2f565b602082019050919050565b60006020820190508181036000830152613e9481613e58565b9050919050565b6000613ea68261362e565b9150613eb18361362e565b9250828203905081811115613ec957613ec8613ca5565b5b92915050565b7f4e487b7100000000000000000000000000000000000000000000000000000000600052601260045260246000fd5b6000613f098261362e565b9150613f148361362e565b925082613f2457613f23613ecf565b5b828204905092915050565b7f496e76616c696420746f6b656e20616464726573732e00000000000000000000600082015250565b6000613f65601683613a2e565b9150613f7082613f2f565b602082019050919050565b60006020820190508181036000830152613f9481613f58565b9050919050565b7f496e73756666696369656e742066756e647320666f72207061796d656e742e00600082015250565b6000613fd1601f83613a2e565b9150613fdc82613f9b565b602082019050919050565b6000602082019050818103600083015261400081613fc4565b9050919050565b7f496e76616c69642064657369676e61746564206f776e6572206164647265737360008201527f2e00000000000000000000000000000000000000000000000000000000000000602082015250565b6000614063602183613a2e565b915061406e82614007565b604082019050919050565b6000602082019050818103600083015261409281614056565b9050919050565b60006140a48261362e565b91506140af8361362e565b92508282026140bd8161362e565b915082820484148315176140d4576140d3613ca5565b5b5092915050565b60006060820190506140f06000830186613638565b6140fd6020830185613638565b61410a6040830184613638565b949350505050565b7f4e6f2072656d61696e696e672066756e647320746f2077697468647261772e00600082015250565b6000614148601f83613a2e565b915061415382614112565b602082019050919050565b600060208201905081810360008301526141778161413b565b9050919050565b7f4f6e6c79207468652075736572206f722074686520636f6e7472616374206f7760008201527f6e65722063616e20706572666f726d207468697320616374696f6e2e00000000602082015250565b60006141da603c83613a2e565b91506141e58261417e565b604082019050919050565b60006020820190508181036000830152614209816141cd565b9050919050565b7f43616e6e6f74207769746864726177206265666f72652064656c61792070657260008201527f696f642e00000000000000000000000000000000000000000000000000000000602082015250565b600061426c602483613a2e565b915061427782614210565b604082019050919050565b6000602082019050818103600083015261429b8161425f565b9050919050565b7f43616e6e6f74207769746864726177207768696c65207061726b65642e000000600082015250565b60006142d8601d83613a2e565b91506142e3826142a2565b602082019050919050565b60006020820190508181036000830152614307816142cb565b9050919050565b60008151905061431d81613714565b92915050565b6000602082840312156143395761433861366c565b5b60006143478482850161430e565b91505092915050565b7f496e73756666696369656e742066756e647320696e2074686520636f6e74726160008201527f63742e0000000000000000000000000000000000000000000000000000000000602082015250565b60006143ac602383613a2e565b91506143b782614350565b604082019050919050565b600060208201905081810360008301526143db8161439f565b9050919050565b7f4e487b7100000000000000000000000000000000000000000000000000000000600052603260045260246000fd5b600061441c8261362e565b91507fffffffffffffffffffffffffffffffffffffffffffffffffffffffffffffffff820361444e5761444d613ca5565b5b600182019050919050565b7f4e487b7100000000000000000000000000000000000000000000000000000000600052603160045260246000fd5b7f4f6e6c792076616c6964207061726b696e67206f776e6572732063616e20726560008201527f636f726420656e7472792e000000000000000000000000000000000000000000602082015250565b60006144e4602b83613a2e565b91506144ef82614488565b604082019050919050565b60006020820190508181036000830152614513816144d7565b9050919050565b7f4f6e6c792064657369676e61746564207061726b696e67206f776e657220636160008201527f6e207265636f726420656e7472792e0000000000000000000000000000000000602082015250565b6000614576602f83613a2e565b91506145818261451a565b604082019050919050565b600060208201905081810360008301526145a581614569565b9050919050565b7f4e6f206465706f7369747320666f756e6420666f7220676976656e20746f6b6560008201527f6e20616e6420757365722e000000000000000000000000000000000000000000602082015250565b6000614608602b83613a2e565b9150614613826145ac565b604082019050919050565b60006020820190508181036000830152614637816145fb565b9050919050565b7f5573657220616c7265616479207061726b65642e000000000000000000000000600082015250565b6000614674601483613a2e565b915061467f8261463e565b602082019050919050565b600060208201905081810360008301526146a381614667565b9050919050565b6000819050919050565b600067ffffffffffffffff82169050919050565b6000819050919050565b60006146ed6146e86146e3846146aa565b6146c8565b6146b4565b9050919050565b6146fd816146d2565b82525050565b600060208201905061471860008301846146f4565b92915050565b600060608201905061473360008301866139f9565b61474060208301856139f9565b61474d6040830184613638565b949350505050565b61475e816139c5565b811461476957600080fd5b50565b60008151905061477b81614755565b92915050565b6000602082840312156147975761479661366c565b5b60006147a58482850161476c565b91505092915050565b60006040820190506147c360008301856139f9565b6147d06020830184613638565b9392505050565b600080fd5b600080fd5b600080858511156147f5576147f46147d7565b5b83861115614806576148056147dc565b5b6001850283019150848603905094509492505050565b600082905092915050565b60007fffffffffffffffffffffffffffffffffffffffff00000000000000000000000082169050919050565b600082821b905092915050565b600061486c838361481c565b826148778135614827565b925060148210156148b7576148b27fffffffffffffffffffffffffffffffffffffffff00000000000000000000000083601403600802614853565b831692505b505092915050565b6148c8816137c0565b81146148d357600080fd5b50565b6000815190506148e5816148bf565b92915050565b6000602082840312156149015761490061366c565b5b600061490f848285016148d6565b91505092915050565b600081519050919050565b600081905092915050565b600061493982614918565b6149438185614923565b9350614953818560208601613a3f565b80840191505092915050565b600061496b828461492e565b91508190509291505056fea2646970667358221220a02c23e774914e6e63669d764e5579e18994dd1b81a102a88cacfd88d91d4c8c64736f6c63430008140033",
  "linkReferences": {},
  "deployedLinkReferences": {}
}