{
  "_format": "hh-sol-artifact-1",
  "contractName": "ParkingPayment",
  "sourceName": "contracts/ParkingPayment/ParkingPaymentV2.sol",
  "abi": [
    {
      "inputs": [
        {
          "internalType": "address",
          "name": "trustedForwarder",
          "type": "address"
        }
      ],
      "stateMutability": "nonpayable",
      "type": "constructor"
    },
    {
      "inputs": [
        {
          "internalType": "address",
          "name": "target",
          "type": "address"
        }
      ],
      "name": "AddressEmptyCode",
      "type": "error"
    },
    {
      "inputs": [
        {
          "internalType": "address",
          "name": "implementation",
          "type": "address"
        }
      ],
      "name": "ERC1967InvalidImplementation",
      "type": "error"
    },
    {
      "inputs": [],
      "name": "ERC1967NonPayable",
      "type": "error"
    },
    {
      "inputs": [],
      "name": "FailedInnerCall",
      "type": "error"
    },
    {
      "inputs": [],
      "name": "InvalidInitialization",
      "type": "error"
    },
    {
      "inputs": [],
      "name": "NotInitializing",
      "type": "error"
    },
    {
      "inputs": [
        {
          "internalType": "address",
          "name": "owner",
          "type": "address"
        }
      ],
      "name": "OwnableInvalidOwner",
      "type": "error"
    },
    {
      "inputs": [
        {
          "internalType": "address",
          "name": "account",
          "type": "address"
        }
      ],
      "name": "OwnableUnauthorizedAccount",
      "type": "error"
    },
    {
      "inputs": [],
      "name": "UUPSUnauthorizedCallContext",
      "type": "error"
    },
    {
      "inputs": [
        {
          "internalType": "bytes32",
          "name": "slot",
          "type": "bytes32"
        }
      ],
      "name": "UUPSUnsupportedProxiableUUID",
      "type": "error"
    },
    {
      "anonymous": false,
      "inputs": [
        {
          "indexed": true,
          "internalType": "address",
          "name": "user",
          "type": "address"
        },
        {
          "indexed": true,
          "internalType": "address",
          "name": "tokenAddress",
          "type": "address"
        },
        {
          "indexed": false,
          "internalType": "uint256",
          "name": "amount",
          "type": "uint256"
        },
        {
          "indexed": false,
          "internalType": "address",
          "name": "parkingOwner",
          "type": "address"
        }
      ],
      "name": "DepositMade",
      "type": "event"
    },
    {
      "anonymous": false,
      "inputs": [
        {
          "indexed": true,
          "internalType": "address",
          "name": "user",
          "type": "address"
        },
        {
          "indexed": true,
          "internalType": "address",
          "name": "tokenAddress",
          "type": "address"
        },
        {
          "indexed": false,
          "internalType": "uint256",
          "name": "entryTime",
          "type": "uint256"
        }
      ],
      "name": "EntryRecorded",
      "type": "event"
    },
    {
      "anonymous": false,
      "inputs": [
        {
          "indexed": true,
          "internalType": "address",
          "name": "user",
          "type": "address"
        },
        {
          "indexed": true,
          "internalType": "address",
          "name": "tokenAddress",
          "type": "address"
        },
        {
          "indexed": false,
          "internalType": "uint256",
          "name": "parkedMinutes",
          "type": "uint256"
        },
        {
          "indexed": false,
          "internalType": "uint256",
          "name": "netParkingFee",
          "type": "uint256"
        },
        {
          "indexed": false,
          "internalType": "uint256",
          "name": "systemFee",
          "type": "uint256"
        }
      ],
      "name": "ExitRecorded",
      "type": "event"
    },
    {
      "anonymous": false,
      "inputs": [
        {
          "indexed": true,
          "internalType": "address",
          "name": "user",
          "type": "address"
        },
        {
          "indexed": true,
          "internalType": "address",
          "name": "tokenAddress",
          "type": "address"
        },
        {
          "indexed": false,
          "internalType": "uint256",
          "name": "amount",
          "type": "uint256"
        }
      ],
      "name": "FundsWithdrawn",
      "type": "event"
    },
    {
      "anonymous": false,
      "inputs": [
        {
          "indexed": false,
          "internalType": "uint64",
          "name": "version",
          "type": "uint64"
        }
      ],
      "name": "Initialized",
      "type": "event"
    },
    {
      "anonymous": false,
      "inputs": [
        {
          "indexed": true,
          "internalType": "address",
          "name": "previousOwner",
          "type": "address"
        },
        {
          "indexed": true,
          "internalType": "address",
          "name": "newOwner",
          "type": "address"
        }
      ],
      "name": "OwnershipTransferred",
      "type": "event"
    },
    {
      "anonymous": false,
      "inputs": [
        {
          "indexed": true,
          "internalType": "address",
          "name": "implementation",
          "type": "address"
        }
      ],
      "name": "Upgraded",
      "type": "event"
    },
    {
      "inputs": [],
      "name": "UPGRADE_INTERFACE_VERSION",
      "outputs": [
        {
          "internalType": "string",
          "name": "",
          "type": "string"
        }
      ],
      "stateMutability": "view",
      "type": "function"
    },
    {
      "inputs": [],
      "name": "WITHDRAWAL_DELAY",
      "outputs": [
        {
          "internalType": "uint256",
          "name": "",
          "type": "uint256"
        }
      ],
      "stateMutability": "view",
      "type": "function"
    },
    {
      "inputs": [
        {
          "internalType": "address",
          "name": "_parkOwner",
          "type": "address"
        }
      ],
      "name": "addParkingOwner",
      "outputs": [],
      "stateMutability": "nonpayable",
      "type": "function"
    },
    {
      "inputs": [
        {
          "internalType": "address",
          "name": "tokenAddress",
          "type": "address"
        },
        {
          "internalType": "uint256",
          "name": "amount",
          "type": "uint256"
        },
        {
          "internalType": "address",
          "name": "parkingOwner",
          "type": "address"
        }
      ],
      "name": "depositTokens",
      "outputs": [],
      "stateMutability": "nonpayable",
      "type": "function"
    },
    {
      "inputs": [
        {
          "internalType": "address",
          "name": "",
          "type": "address"
        },
        {
          "internalType": "address",
          "name": "",
          "type": "address"
        }
      ],
      "name": "deposits",
      "outputs": [
        {
          "internalType": "uint256",
          "name": "",
          "type": "uint256"
        }
      ],
      "stateMutability": "view",
      "type": "function"
    },
    {
      "inputs": [
        {
          "internalType": "address",
          "name": "",
          "type": "address"
        }
      ],
      "name": "designatedOwner",
      "outputs": [
        {
          "internalType": "address",
          "name": "",
          "type": "address"
        }
      ],
      "stateMutability": "view",
      "type": "function"
    },
    {
      "inputs": [
        {
          "internalType": "address",
          "name": "userAddress",
          "type": "address"
        },
        {
          "internalType": "address",
          "name": "tokenAddress",
          "type": "address"
        }
      ],
      "name": "getDepositBalance",
      "outputs": [
        {
          "internalType": "uint256",
          "name": "",
          "type": "uint256"
        }
      ],
      "stateMutability": "view",
      "type": "function"
    },
    {
      "inputs": [
        {
          "internalType": "address",
          "name": "initialOwner",
          "type": "address"
        },
        {
          "internalType": "uint256",
          "name": "_ratePerMinute",
          "type": "uint256"
        }
      ],
      "name": "initialize",
      "outputs": [],
      "stateMutability": "nonpayable",
      "type": "function"
    },
    {
      "inputs": [
        {
          "internalType": "address",
          "name": "forwarder",
          "type": "address"
        }
      ],
      "name": "isTrustedForwarder",
      "outputs": [
        {
          "internalType": "bool",
          "name": "",
          "type": "bool"
        }
      ],
      "stateMutability": "view",
      "type": "function"
    },
    {
      "inputs": [],
      "name": "owner",
      "outputs": [
        {
          "internalType": "address",
          "name": "",
          "type": "address"
        }
      ],
      "stateMutability": "view",
      "type": "function"
    },
    {
      "inputs": [
        {
          "internalType": "address",
          "name": "",
          "type": "address"
        }
      ],
      "name": "parkingStatus",
      "outputs": [
        {
          "internalType": "bool",
          "name": "isParked",
          "type": "bool"
        },
        {
          "internalType": "uint256",
          "name": "entryTime",
          "type": "uint256"
        },
        {
          "internalType": "address",
          "name": "tokenAddress",
          "type": "address"
        }
      ],
      "stateMutability": "view",
      "type": "function"
    },
    {
      "inputs": [],
      "name": "proxiableUUID",
      "outputs": [
        {
          "internalType": "bytes32",
          "name": "",
          "type": "bytes32"
        }
      ],
      "stateMutability": "view",
      "type": "function"
    },
    {
      "inputs": [],
      "name": "ratePerMinute",
      "outputs": [
        {
          "internalType": "uint256",
          "name": "",
          "type": "uint256"
        }
      ],
      "stateMutability": "view",
      "type": "function"
    },
    {
      "inputs": [
        {
          "internalType": "address",
          "name": "userAddress",
          "type": "address"
        },
        {
          "internalType": "address",
          "name": "tokenAddress",
          "type": "address"
        }
      ],
      "name": "recordEntry",
      "outputs": [],
      "stateMutability": "nonpayable",
      "type": "function"
    },
    {
      "inputs": [
        {
          "internalType": "address",
          "name": "userAddress",
          "type": "address"
        }
      ],
      "name": "recordExit",
      "outputs": [],
      "stateMutability": "nonpayable",
      "type": "function"
    },
    {
      "inputs": [
        {
          "internalType": "address",
          "name": "_parkOwner",
          "type": "address"
        }
      ],
      "name": "removeParkingOwner",
      "outputs": [],
      "stateMutability": "nonpayable",
      "type": "function"
    },
    {
      "inputs": [],
      "name": "renounceOwnership",
      "outputs": [],
      "stateMutability": "nonpayable",
      "type": "function"
    },
    {
      "inputs": [
        {
          "internalType": "uint256",
          "name": "newRate",
          "type": "uint256"
        }
      ],
      "name": "setParkingRate",
      "outputs": [],
      "stateMutability": "nonpayable",
      "type": "function"
    },
    {
      "inputs": [
        {
          "internalType": "uint256",
          "name": "newDelay",
          "type": "uint256"
        }
      ],
      "name": "setWithdrawalDelay",
      "outputs": [],
      "stateMutability": "nonpayable",
      "type": "function"
    },
    {
      "inputs": [
        {
          "internalType": "address",
          "name": "newOwner",
          "type": "address"
        }
      ],
      "name": "transferOwnership",
      "outputs": [],
      "stateMutability": "nonpayable",
      "type": "function"
    },
    {
      "inputs": [],
      "name": "trustedForwarder",
      "outputs": [
        {
          "internalType": "address",
          "name": "",
          "type": "address"
        }
      ],
      "stateMutability": "view",
      "type": "function"
    },
    {
      "inputs": [
        {
          "internalType": "address",
          "name": "newImplementation",
          "type": "address"
        },
        {
          "internalType": "bytes",
          "name": "data",
          "type": "bytes"
        }
      ],
      "name": "upgradeToAndCall",
      "outputs": [],
      "stateMutability": "payable",
      "type": "function"
    },
    {
      "inputs": [
        {
          "internalType": "address",
          "name": "",
          "type": "address"
        }
      ],
      "name": "validParkingOwners",
      "outputs": [
        {
          "internalType": "bool",
          "name": "",
          "type": "bool"
        }
      ],
      "stateMutability": "view",
      "type": "function"
    },
    {
      "inputs": [
        {
          "internalType": "address",
          "name": "userAddress",
          "type": "address"
        },
        {
          "internalType": "address",
          "name": "tokenAddress",
          "type": "address"
        }
      ],
      "name": "withdrawRemainingFunds",
      "outputs": [],
      "stateMutability": "nonpayable",
      "type": "function"
    }
  ],
  "bytecode": "0x60c06040523073ffffffffffffffffffffffffffffffffffffffff1660809073ffffffffffffffffffffffffffffffffffffffff168152503480156200004457600080fd5b5060405162003f7d38038062003f7d83398181016040528101906200006a919062000111565b808073ffffffffffffffffffffffffffffffffffffffff1660a08173ffffffffffffffffffffffffffffffffffffffff1681525050505062000143565b600080fd5b600073ffffffffffffffffffffffffffffffffffffffff82169050919050565b6000620000d982620000ac565b9050919050565b620000eb81620000cc565b8114620000f757600080fd5b50565b6000815190506200010b81620000e0565b92915050565b6000602082840312156200012a5762000129620000a7565b5b60006200013a84828501620000fa565b91505092915050565b60805160a051613e066200017760003960006112ef0152600081816122470152818161229c01526124570152613e066000f3fe60806040526004361061014b5760003560e01c80636a525770116100b65780639cdf43821161006f5780639cdf438214610481578063ad3cb1cc146104aa578063cd6dc687146104d5578063d2c13da5146104fe578063d5da8db014610527578063f2fde38b146105665761014b565b80636a52577014610385578063715018a6146103ae5780637da0a877146103c55780638da5cb5b146103f05780638f601f661461041b57806392f47120146104585761014b565b80633a1e7d10116101085780633a1e7d10146102725780634f1ef2861461029b57806352d1902d146102b7578063547325fc146102e2578063572b6c051461030b5780636186d53c146103485761014b565b80630886dd89146101505780630ae112a41461017b5780630ebb172a146101b8578063298e4f79146101e35780632f920c4e1461020c5780633526a99214610249575b600080fd5b34801561015c57600080fd5b5061016561058f565b6040516101729190612b01565b60405180910390f35b34801561018757600080fd5b506101a2600480360381019061019d9190612b8e565b610595565b6040516101af9190612b01565b60405180910390f35b3480156101c457600080fd5b506101cd61061c565b6040516101da9190612b01565b60405180910390f35b3480156101ef57600080fd5b5061020a60048036038101906102059190612bfa565b610622565b005b34801561021857600080fd5b50610233600480360381019061022e9190612c4d565b6109b5565b6040516102409190612c95565b60405180910390f35b34801561025557600080fd5b50610270600480360381019061026b9190612c4d565b6109d5565b005b34801561027e57600080fd5b5061029960048036038101906102949190612cb0565b610a38565b005b6102b560048036038101906102b09190612e23565b610a4a565b005b3480156102c357600080fd5b506102cc610a69565b6040516102d99190612e98565b60405180910390f35b3480156102ee57600080fd5b5061030960048036038101906103049190612c4d565b610a9c565b005b34801561031757600080fd5b50610332600480360381019061032d9190612c4d565b611202565b60405161033f9190612c95565b60405180910390f35b34801561035457600080fd5b5061036f600480360381019061036a9190612c4d565b611241565b60405161037c9190612ec2565b60405180910390f35b34801561039157600080fd5b506103ac60048036038101906103a79190612c4d565b611274565b005b3480156103ba57600080fd5b506103c36112d7565b005b3480156103d157600080fd5b506103da6112eb565b6040516103e79190612ec2565b60405180910390f35b3480156103fc57600080fd5b50610405611313565b6040516104129190612ec2565b60405180910390f35b34801561042757600080fd5b50610442600480360381019061043d9190612b8e565b61134b565b60405161044f9190612b01565b60405180910390f35b34801561046457600080fd5b5061047f600480360381019061047a9190612b8e565b611370565b005b34801561048d57600080fd5b506104a860048036038101906104a39190612b8e565b6119fc565b005b3480156104b657600080fd5b506104bf611edf565b6040516104cc9190612f5c565b60405180910390f35b3480156104e157600080fd5b506104fc60048036038101906104f79190612f7e565b611f18565b005b34801561050a57600080fd5b5061052560048036038101906105209190612cb0565b6120c0565b005b34801561053357600080fd5b5061054e60048036038101906105499190612c4d565b6120d2565b60405161055d93929190612fbe565b60405180910390f35b34801561057257600080fd5b5061058d60048036038101906105889190612c4d565b612129565b005b60005481565b6000600260008473ffffffffffffffffffffffffffffffffffffffff1673ffffffffffffffffffffffffffffffffffffffff16815260200190815260200160002060008373ffffffffffffffffffffffffffffffffffffffff1673ffffffffffffffffffffffffffffffffffffffff16815260200190815260200160002054905092915050565b60015481565b60008211610665576040517f08c379a000000000000000000000000000000000000000000000000000000000815260040161065c90613067565b60405180910390fd5b600073ffffffffffffffffffffffffffffffffffffffff168373ffffffffffffffffffffffffffffffffffffffff16036106d4576040517f08c379a00000000000000000000000000000000000000000000000000000000081526004016106cb906130d3565b60405180910390fd5b600360008273ffffffffffffffffffffffffffffffffffffffff1673ffffffffffffffffffffffffffffffffffffffff16815260200190815260200160002060009054906101000a900460ff16610760576040517f08c379a00000000000000000000000000000000000000000000000000000000081526004016107579061313f565b60405180910390fd5b600061076a6121af565b9050600084905060008173ffffffffffffffffffffffffffffffffffffffff166323b872dd8430886040518463ffffffff1660e01b81526004016107b09392919061315f565b6020604051808303816000875af11580156107cf573d6000803e3d6000fd5b505050506040513d601f19601f820116820180604052508101906107f391906131c2565b905080610835576040517f08c379a000000000000000000000000000000000000000000000000000000000815260040161082c9061323b565b60405180910390fd5b84600260008573ffffffffffffffffffffffffffffffffffffffff1673ffffffffffffffffffffffffffffffffffffffff16815260200190815260200160002060008873ffffffffffffffffffffffffffffffffffffffff1673ffffffffffffffffffffffffffffffffffffffff16815260200190815260200160002060008282546108c1919061328a565b9250508190555083600460008573ffffffffffffffffffffffffffffffffffffffff1673ffffffffffffffffffffffffffffffffffffffff16815260200190815260200160002060006101000a81548173ffffffffffffffffffffffffffffffffffffffff021916908373ffffffffffffffffffffffffffffffffffffffff1602179055508573ffffffffffffffffffffffffffffffffffffffff168373ffffffffffffffffffffffffffffffffffffffff167f5bb645d0c5d8afd451c0bafa18b92fea572a1656ae933b2acc5bb7d32543f25d87876040516109a59291906132be565b60405180910390a3505050505050565b60036020528060005260406000206000915054906101000a900460ff1681565b6109dd6121be565b6001600360008373ffffffffffffffffffffffffffffffffffffffff1673ffffffffffffffffffffffffffffffffffffffff16815260200190815260200160002060006101000a81548160ff02191690831515021790555050565b610a406121be565b8060008190555050565b610a52612245565b610a5b8261232b565b610a658282612336565b5050565b6000610a73612455565b7f360894a13ba1a3210667c828492db98dca3e2076cc3735a920a3ca505d382bbc60001b905090565b600073ffffffffffffffffffffffffffffffffffffffff168173ffffffffffffffffffffffffffffffffffffffff1603610b0b576040517f08c379a0000000000000000000000000000000000000000000000000000000008152600401610b0290613333565b60405180910390fd5b600460008273ffffffffffffffffffffffffffffffffffffffff1673ffffffffffffffffffffffffffffffffffffffff16815260200190815260200160002060009054906101000a900473ffffffffffffffffffffffffffffffffffffffff1673ffffffffffffffffffffffffffffffffffffffff16610b896121af565b73ffffffffffffffffffffffffffffffffffffffff1614610bdf576040517f08c379a0000000000000000000000000000000000000000000000000000000008152600401610bd6906133c5565b60405180910390fd5b600560008273ffffffffffffffffffffffffffffffffffffffff1673ffffffffffffffffffffffffffffffffffffffff16815260200190815260200160002060000160009054906101000a900460ff16610c6e576040517f08c379a0000000000000000000000000000000000000000000000000000000008152600401610c6590613431565b60405180910390fd5b6000603c600560008473ffffffffffffffffffffffffffffffffffffffff1673ffffffffffffffffffffffffffffffffffffffff1681526020019081526020016000206001015442610cc09190613451565b610cca91906134b4565b90506000610cd7826124dc565b90506000600560008573ffffffffffffffffffffffffffffffffffffffff1673ffffffffffffffffffffffffffffffffffffffff16815260200190815260200160002060020160009054906101000a900473ffffffffffffffffffffffffffffffffffffffff16905081600260008673ffffffffffffffffffffffffffffffffffffffff1673ffffffffffffffffffffffffffffffffffffffff16815260200190815260200160002060008373ffffffffffffffffffffffffffffffffffffffff1673ffffffffffffffffffffffffffffffffffffffff168152602001908152602001600020541015610dff576040517f08c379a0000000000000000000000000000000000000000000000000000000008152600401610df690613531565b60405180910390fd5b60006064600384610e109190613551565b610e1a91906134b4565b905060008184610e2a9190613451565b905060008373ffffffffffffffffffffffffffffffffffffffff1663a9059cbb600460008a73ffffffffffffffffffffffffffffffffffffffff1673ffffffffffffffffffffffffffffffffffffffff16815260200190815260200160002060009054906101000a900473ffffffffffffffffffffffffffffffffffffffff16846040518363ffffffff1660e01b8152600401610ec8929190613593565b6020604051808303816000875af1158015610ee7573d6000803e3d6000fd5b505050506040513d601f19601f82011682018060405250810190610f0b91906131c2565b905080610f4d576040517f08c379a0000000000000000000000000000000000000000000000000000000008152600401610f4490613608565b60405180910390fd5b8373ffffffffffffffffffffffffffffffffffffffff1663a9059cbb610f71611313565b856040518363ffffffff1660e01b8152600401610f8f929190613593565b6020604051808303816000875af1158015610fae573d6000803e3d6000fd5b505050506040513d601f19601f82011682018060405250810190610fd291906131c2565b905080611014576040517f08c379a000000000000000000000000000000000000000000000000000000000815260040161100b90613674565b60405180910390fd5b84600260008973ffffffffffffffffffffffffffffffffffffffff1673ffffffffffffffffffffffffffffffffffffffff16815260200190815260200160002060008673ffffffffffffffffffffffffffffffffffffffff1673ffffffffffffffffffffffffffffffffffffffff16815260200190815260200160002060008282546110a09190613451565b92505081905550604051806060016040528060001515815260200160008152602001600073ffffffffffffffffffffffffffffffffffffffff16815250600560008973ffffffffffffffffffffffffffffffffffffffff1673ffffffffffffffffffffffffffffffffffffffff16815260200190815260200160002060008201518160000160006101000a81548160ff0219169083151502179055506020820151816001015560408201518160020160006101000a81548173ffffffffffffffffffffffffffffffffffffffff021916908373ffffffffffffffffffffffffffffffffffffffff1602179055509050508373ffffffffffffffffffffffffffffffffffffffff168773ffffffffffffffffffffffffffffffffffffffff167f4560d298b9dd5281513e9cbe8e99d0c56402bcebfcc737160f2bf292a36362668885876040516111f193929190613694565b60405180910390a350505050505050565b600061120c6112eb565b73ffffffffffffffffffffffffffffffffffffffff168273ffffffffffffffffffffffffffffffffffffffff16149050919050565b60046020528060005260406000206000915054906101000a900473ffffffffffffffffffffffffffffffffffffffff1681565b61127c6121be565b6000600360008373ffffffffffffffffffffffffffffffffffffffff1673ffffffffffffffffffffffffffffffffffffffff16815260200190815260200160002060006101000a81548160ff02191690831515021790555050565b6112df6121be565b6112e960006124f2565b565b60007f0000000000000000000000000000000000000000000000000000000000000000905090565b60008061131e6125c9565b90508060000160009054906101000a900473ffffffffffffffffffffffffffffffffffffffff1691505090565b6002602052816000526040600020602052806000526040600020600091509150505481565b600061137a6121af565b9050600073ffffffffffffffffffffffffffffffffffffffff168373ffffffffffffffffffffffffffffffffffffffff16036113eb576040517f08c379a00000000000000000000000000000000000000000000000000000000081526004016113e290613333565b60405180910390fd5b600073ffffffffffffffffffffffffffffffffffffffff168273ffffffffffffffffffffffffffffffffffffffff160361145a576040517f08c379a0000000000000000000000000000000000000000000000000000000008152600401611451906130d3565b60405180910390fd5b6000600260008573ffffffffffffffffffffffffffffffffffffffff1673ffffffffffffffffffffffffffffffffffffffff16815260200190815260200160002060008473ffffffffffffffffffffffffffffffffffffffff1673ffffffffffffffffffffffffffffffffffffffff1681526020019081526020016000205411611519576040517f08c379a000000000000000000000000000000000000000000000000000000000815260040161151090613717565b60405180910390fd5b8273ffffffffffffffffffffffffffffffffffffffff168173ffffffffffffffffffffffffffffffffffffffff1614806115855750611556611313565b73ffffffffffffffffffffffffffffffffffffffff168173ffffffffffffffffffffffffffffffffffffffff16145b6115c4576040517f08c379a00000000000000000000000000000000000000000000000000000000081526004016115bb906137a9565b60405180910390fd5b8273ffffffffffffffffffffffffffffffffffffffff168173ffffffffffffffffffffffffffffffffffffffff160361168a57600154600560008573ffffffffffffffffffffffffffffffffffffffff1673ffffffffffffffffffffffffffffffffffffffff16815260200190815260200160002060010154611647919061328a565b421015611689576040517f08c379a00000000000000000000000000000000000000000000000000000000081526004016116809061383b565b60405180910390fd5b5b6000600260008573ffffffffffffffffffffffffffffffffffffffff1673ffffffffffffffffffffffffffffffffffffffff16815260200190815260200160002060008473ffffffffffffffffffffffffffffffffffffffff1673ffffffffffffffffffffffffffffffffffffffff1681526020019081526020016000205490506000839050818173ffffffffffffffffffffffffffffffffffffffff166370a08231306040518263ffffffff1660e01b815260040161174a9190612ec2565b602060405180830381865afa158015611767573d6000803e3d6000fd5b505050506040513d601f19601f8201168201806040525081019061178b9190613870565b10156117cc576040517f08c379a00000000000000000000000000000000000000000000000000000000081526004016117c39061390f565b60405180910390fd5b60008173ffffffffffffffffffffffffffffffffffffffff1663a9059cbb87856040518363ffffffff1660e01b8152600401611809929190613593565b6020604051808303816000875af1158015611828573d6000803e3d6000fd5b505050506040513d601f19601f8201168201806040525081019061184c91906131c2565b90508061188e576040517f08c379a00000000000000000000000000000000000000000000000000000000081526004016118859061397b565b60405180910390fd5b6000600260008873ffffffffffffffffffffffffffffffffffffffff1673ffffffffffffffffffffffffffffffffffffffff16815260200190815260200160002060008773ffffffffffffffffffffffffffffffffffffffff1673ffffffffffffffffffffffffffffffffffffffff168152602001908152602001600020819055506000600460008873ffffffffffffffffffffffffffffffffffffffff1673ffffffffffffffffffffffffffffffffffffffff16815260200190815260200160002060006101000a81548173ffffffffffffffffffffffffffffffffffffffff021916908373ffffffffffffffffffffffffffffffffffffffff1602179055508473ffffffffffffffffffffffffffffffffffffffff168673ffffffffffffffffffffffffffffffffffffffff167fa92ff919b850e4909ab2261d907ef955f11bc1716733a6cbece38d163a69af8a856040516119ec9190612b01565b60405180910390a3505050505050565b6000611a066121af565b9050600073ffffffffffffffffffffffffffffffffffffffff168373ffffffffffffffffffffffffffffffffffffffff1603611a77576040517f08c379a0000000000000000000000000000000000000000000000000000000008152600401611a6e90613333565b60405180910390fd5b600073ffffffffffffffffffffffffffffffffffffffff168273ffffffffffffffffffffffffffffffffffffffff1603611ae6576040517f08c379a0000000000000000000000000000000000000000000000000000000008152600401611add906130d3565b60405180910390fd5b600360008273ffffffffffffffffffffffffffffffffffffffff1673ffffffffffffffffffffffffffffffffffffffff16815260200190815260200160002060009054906101000a900460ff16611b72576040517f08c379a0000000000000000000000000000000000000000000000000000000008152600401611b6990613a0d565b60405180910390fd5b600460008473ffffffffffffffffffffffffffffffffffffffff1673ffffffffffffffffffffffffffffffffffffffff16815260200190815260200160002060009054906101000a900473ffffffffffffffffffffffffffffffffffffffff1673ffffffffffffffffffffffffffffffffffffffff168173ffffffffffffffffffffffffffffffffffffffff1614611c3f576040517f08c379a0000000000000000000000000000000000000000000000000000000008152600401611c3690613a9f565b60405180910390fd5b6000600260008573ffffffffffffffffffffffffffffffffffffffff1673ffffffffffffffffffffffffffffffffffffffff16815260200190815260200160002060008473ffffffffffffffffffffffffffffffffffffffff1673ffffffffffffffffffffffffffffffffffffffff1681526020019081526020016000205411611cfe576040517f08c379a0000000000000000000000000000000000000000000000000000000008152600401611cf590613b31565b60405180910390fd5b600560008473ffffffffffffffffffffffffffffffffffffffff1673ffffffffffffffffffffffffffffffffffffffff16815260200190815260200160002060000160009054906101000a900460ff1615611d8e576040517f08c379a0000000000000000000000000000000000000000000000000000000008152600401611d8590613b9d565b60405180910390fd5b60405180606001604052806001151581526020014281526020018373ffffffffffffffffffffffffffffffffffffffff16815250600560008573ffffffffffffffffffffffffffffffffffffffff1673ffffffffffffffffffffffffffffffffffffffff16815260200190815260200160002060008201518160000160006101000a81548160ff0219169083151502179055506020820151816001015560408201518160020160006101000a81548173ffffffffffffffffffffffffffffffffffffffff021916908373ffffffffffffffffffffffffffffffffffffffff1602179055509050508173ffffffffffffffffffffffffffffffffffffffff168373ffffffffffffffffffffffffffffffffffffffff167f9b115279725d5b3f95e9bc786b47beccc72133ffc90816351c17ee7ff991c0ca42604051611ed29190612b01565b60405180910390a3505050565b6040518060400160405280600581526020017f352e302e3000000000000000000000000000000000000000000000000000000081525081565b6000611f226125f1565b905060008160000160089054906101000a900460ff1615905060008260000160009054906101000a900467ffffffffffffffff1690506000808267ffffffffffffffff16148015611f705750825b9050600060018367ffffffffffffffff16148015611fa5575060003073ffffffffffffffffffffffffffffffffffffffff163b145b905081158015611fb3575080155b15611fea576040517ff92ee8a900000000000000000000000000000000000000000000000000000000815260040160405180910390fd5b60018560000160006101000a81548167ffffffffffffffff021916908367ffffffffffffffff160217905550831561203a5760018560000160086101000a81548160ff0219169083151502179055505b61204387612619565b61204b61262d565b8560008190555061070860018190555083156120b75760008560000160086101000a81548160ff0219169083151502179055507fc7f505b2f371ae2175ee4913f4499e1f2633a7b5936321eed1cdaeb6115181d260016040516120ae9190613c16565b60405180910390a15b50505050505050565b6120c86121be565b8060018190555050565b60056020528060005260406000206000915090508060000160009054906101000a900460ff16908060010154908060020160009054906101000a900473ffffffffffffffffffffffffffffffffffffffff16905083565b6121316121be565b600073ffffffffffffffffffffffffffffffffffffffff168173ffffffffffffffffffffffffffffffffffffffff16036121a35760006040517f1e4fbdf700000000000000000000000000000000000000000000000000000000815260040161219a9190612ec2565b60405180910390fd5b6121ac816124f2565b50565b60006121b9612637565b905090565b6121c66121af565b73ffffffffffffffffffffffffffffffffffffffff166121e4611313565b73ffffffffffffffffffffffffffffffffffffffff1614612243576122076121af565b6040517f118cdaa700000000000000000000000000000000000000000000000000000000815260040161223a9190612ec2565b60405180910390fd5b565b7f000000000000000000000000000000000000000000000000000000000000000073ffffffffffffffffffffffffffffffffffffffff163073ffffffffffffffffffffffffffffffffffffffff1614806122f257507f000000000000000000000000000000000000000000000000000000000000000073ffffffffffffffffffffffffffffffffffffffff166122d96126ac565b73ffffffffffffffffffffffffffffffffffffffff1614155b15612329576040517fe07c8dba00000000000000000000000000000000000000000000000000000000815260040160405180910390fd5b565b6123336121be565b50565b8173ffffffffffffffffffffffffffffffffffffffff166352d1902d6040518163ffffffff1660e01b8152600401602060405180830381865afa92505050801561239e57506040513d601f19601f8201168201806040525081019061239b9190613c5d565b60015b6123df57816040517f4c9c8ce30000000000000000000000000000000000000000000000000000000081526004016123d69190612ec2565b60405180910390fd5b7f360894a13ba1a3210667c828492db98dca3e2076cc3735a920a3ca505d382bbc60001b811461244657806040517faa1d49a400000000000000000000000000000000000000000000000000000000815260040161243d9190612e98565b60405180910390fd5b6124508383612703565b505050565b7f000000000000000000000000000000000000000000000000000000000000000073ffffffffffffffffffffffffffffffffffffffff163073ffffffffffffffffffffffffffffffffffffffff16146124da576040517fe07c8dba00000000000000000000000000000000000000000000000000000000815260040160405180910390fd5b565b60008054826124eb9190613551565b9050919050565b60006124fc6125c9565b905060008160000160009054906101000a900473ffffffffffffffffffffffffffffffffffffffff169050828260000160006101000a81548173ffffffffffffffffffffffffffffffffffffffff021916908373ffffffffffffffffffffffffffffffffffffffff1602179055508273ffffffffffffffffffffffffffffffffffffffff168173ffffffffffffffffffffffffffffffffffffffff167f8be0079c531659141344cd1fd0a4f28419497f9722a3daafe3b4186f6b6457e060405160405180910390a3505050565b60007f9016d09d72d40fdae2fd8ceac6b6234c7706214fd39c1cd1e609a0528c199300905090565b60007ff0c57e16840df040f15088dc2f81fe391c3923bec73e23a9662efc9c229c6a00905090565b612621612776565b61262a816127b6565b50565b612635612776565b565b60008060003690509050600061264b61283c565b905061265633611202565b80156126625750808210155b1561269c5760003682846126769190613451565b90809261268593929190613c94565b906126909190613d13565b60601c925050506126a9565b6126a461284b565b925050505b90565b60006126da7f360894a13ba1a3210667c828492db98dca3e2076cc3735a920a3ca505d382bbc60001b612853565b60000160009054906101000a900473ffffffffffffffffffffffffffffffffffffffff16905090565b61270c8261285d565b8173ffffffffffffffffffffffffffffffffffffffff167fbc7cd75a20ee27fd9adebab32041f755214dbc6bffa90cc0225b39da2e5c2d3b60405160405180910390a260008151111561276957612763828261292a565b50612772565b6127716129ae565b5b5050565b61277e6129eb565b6127b4576040517fd7e6bcf800000000000000000000000000000000000000000000000000000000815260040160405180910390fd5b565b6127be612776565b600073ffffffffffffffffffffffffffffffffffffffff168173ffffffffffffffffffffffffffffffffffffffff16036128305760006040517f1e4fbdf70000000000000000000000000000000000000000000000000000000081526004016128279190612ec2565b60405180910390fd5b612839816124f2565b50565b6000612846612a0b565b905090565b600033905090565b6000819050919050565b60008173ffffffffffffffffffffffffffffffffffffffff163b036128b957806040517f4c9c8ce30000000000000000000000000000000000000000000000000000000081526004016128b09190612ec2565b60405180910390fd5b806128e67f360894a13ba1a3210667c828492db98dca3e2076cc3735a920a3ca505d382bbc60001b612853565b60000160006101000a81548173ffffffffffffffffffffffffffffffffffffffff021916908373ffffffffffffffffffffffffffffffffffffffff16021790555050565b60606000808473ffffffffffffffffffffffffffffffffffffffff16846040516129549190613db9565b600060405180830381855af49150503d806000811461298f576040519150601f19603f3d011682016040523d82523d6000602084013e612994565b606091505b50915091506129a4858383612a14565b9250505092915050565b60003411156129e9576040517fb398979f00000000000000000000000000000000000000000000000000000000815260040160405180910390fd5b565b60006129f56125f1565b60000160089054906101000a900460ff16905090565b60006014905090565b606082612a2957612a2482612aa3565b612a9b565b60008251148015612a51575060008473ffffffffffffffffffffffffffffffffffffffff163b145b15612a9357836040517f9996b315000000000000000000000000000000000000000000000000000000008152600401612a8a9190612ec2565b60405180910390fd5b819050612a9c565b5b9392505050565b600081511115612ab65780518082602001fd5b6040517f1425ea4200000000000000000000000000000000000000000000000000000000815260040160405180910390fd5b6000819050919050565b612afb81612ae8565b82525050565b6000602082019050612b166000830184612af2565b92915050565b6000604051905090565b600080fd5b600080fd5b600073ffffffffffffffffffffffffffffffffffffffff82169050919050565b6000612b5b82612b30565b9050919050565b612b6b81612b50565b8114612b7657600080fd5b50565b600081359050612b8881612b62565b92915050565b60008060408385031215612ba557612ba4612b26565b5b6000612bb385828601612b79565b9250506020612bc485828601612b79565b9150509250929050565b612bd781612ae8565b8114612be257600080fd5b50565b600081359050612bf481612bce565b92915050565b600080600060608486031215612c1357612c12612b26565b5b6000612c2186828701612b79565b9350506020612c3286828701612be5565b9250506040612c4386828701612b79565b9150509250925092565b600060208284031215612c6357612c62612b26565b5b6000612c7184828501612b79565b91505092915050565b60008115159050919050565b612c8f81612c7a565b82525050565b6000602082019050612caa6000830184612c86565b92915050565b600060208284031215612cc657612cc5612b26565b5b6000612cd484828501612be5565b91505092915050565b600080fd5b600080fd5b6000601f19601f8301169050919050565b7f4e487b7100000000000000000000000000000000000000000000000000000000600052604160045260246000fd5b612d3082612ce7565b810181811067ffffffffffffffff82111715612d4f57612d4e612cf8565b5b80604052505050565b6000612d62612b1c565b9050612d6e8282612d27565b919050565b600067ffffffffffffffff821115612d8e57612d8d612cf8565b5b612d9782612ce7565b9050602081019050919050565b82818337600083830152505050565b6000612dc6612dc184612d73565b612d58565b905082815260208101848484011115612de257612de1612ce2565b5b612ded848285612da4565b509392505050565b600082601f830112612e0a57612e09612cdd565b5b8135612e1a848260208601612db3565b91505092915050565b60008060408385031215612e3a57612e39612b26565b5b6000612e4885828601612b79565b925050602083013567ffffffffffffffff811115612e6957612e68612b2b565b5b612e7585828601612df5565b9150509250929050565b6000819050919050565b612e9281612e7f565b82525050565b6000602082019050612ead6000830184612e89565b92915050565b612ebc81612b50565b82525050565b6000602082019050612ed76000830184612eb3565b92915050565b600081519050919050565b600082825260208201905092915050565b60005b83811015612f17578082015181840152602081019050612efc565b60008484015250505050565b6000612f2e82612edd565b612f388185612ee8565b9350612f48818560208601612ef9565b612f5181612ce7565b840191505092915050565b60006020820190508181036000830152612f768184612f23565b905092915050565b60008060408385031215612f9557612f94612b26565b5b6000612fa385828601612b79565b9250506020612fb485828601612be5565b9150509250929050565b6000606082019050612fd36000830186612c86565b612fe06020830185612af2565b612fed6040830184612eb3565b949350505050565b7f4465706f73697420616d6f756e74206d7573742062652067726561746572207460008201527f68616e207a65726f2e0000000000000000000000000000000000000000000000602082015250565b6000613051602983612ee8565b915061305c82612ff5565b604082019050919050565b6000602082019050818103600083015261308081613044565b9050919050565b7f546f6b656e20616464726573732063616e6e6f74206265207a65726f2e000000600082015250565b60006130bd601d83612ee8565b91506130c882613087565b602082019050919050565b600060208201905081810360008301526130ec816130b0565b9050919050565b7f5061726b696e67206f776e6572206973206e6f7420726567697374657265642e600082015250565b6000613129602083612ee8565b9150613134826130f3565b602082019050919050565b600060208201905081810360008301526131588161311c565b9050919050565b60006060820190506131746000830186612eb3565b6131816020830185612eb3565b61318e6040830184612af2565b949350505050565b61319f81612c7a565b81146131aa57600080fd5b50565b6000815190506131bc81613196565b92915050565b6000602082840312156131d8576131d7612b26565b5b60006131e6848285016131ad565b91505092915050565b7f546f6b656e207472616e73666572206661696c65642e00000000000000000000600082015250565b6000613225601683612ee8565b9150613230826131ef565b602082019050919050565b6000602082019050818103600083015261325481613218565b9050919050565b7f4e487b7100000000000000000000000000000000000000000000000000000000600052601160045260246000fd5b600061329582612ae8565b91506132a083612ae8565b92508282019050808211156132b8576132b761325b565b5b92915050565b60006040820190506132d36000830185612af2565b6132e06020830184612eb3565b9392505050565b7f5573657220616464726573732063616e6e6f74206265207a65726f2e00000000600082015250565b600061331d601c83612ee8565b9150613328826132e7565b602082019050919050565b6000602082019050818103600083015261334c81613310565b9050919050565b7f4f6e6c792064657369676e61746564207061726b696e67206f776e657220636160008201527f6e207265636f726420657869742e000000000000000000000000000000000000602082015250565b60006133af602e83612ee8565b91506133ba82613353565b604082019050919050565b600060208201905081810360008301526133de816133a2565b9050919050565b7f55736572206973206e6f742063757272656e746c79207061726b65642e000000600082015250565b600061341b601d83612ee8565b9150613426826133e5565b602082019050919050565b6000602082019050818103600083015261344a8161340e565b9050919050565b600061345c82612ae8565b915061346783612ae8565b925082820390508181111561347f5761347e61325b565b5b92915050565b7f4e487b7100000000000000000000000000000000000000000000000000000000600052601260045260246000fd5b60006134bf82612ae8565b91506134ca83612ae8565b9250826134da576134d9613485565b5b828204905092915050565b7f496e73756666696369656e742066756e647320666f72207061796d656e742e00600082015250565b600061351b601f83612ee8565b9150613526826134e5565b602082019050919050565b6000602082019050818103600083015261354a8161350e565b9050919050565b600061355c82612ae8565b915061356783612ae8565b925082820261357581612ae8565b9150828204841483151761358c5761358b61325b565b5b5092915050565b60006040820190506135a86000830185612eb3565b6135b56020830184612af2565b9392505050565b7f5061796d656e7420746f207061726b696e67206f776e6572206661696c65642e600082015250565b60006135f2602083612ee8565b91506135fd826135bc565b602082019050919050565b60006020820190508181036000830152613621816135e5565b9050919050565b7f5061796d656e74206f662073797374656d20666565206661696c65642e000000600082015250565b600061365e601d83612ee8565b915061366982613628565b602082019050919050565b6000602082019050818103600083015261368d81613651565b9050919050565b60006060820190506136a96000830186612af2565b6136b66020830185612af2565b6136c36040830184612af2565b949350505050565b7f4e6f2072656d61696e696e672066756e647320746f2077697468647261772e00600082015250565b6000613701601f83612ee8565b915061370c826136cb565b602082019050919050565b60006020820190508181036000830152613730816136f4565b9050919050565b7f4f6e6c79207468652075736572206f722074686520636f6e7472616374206f7760008201527f6e65722063616e20706572666f726d207468697320616374696f6e2e00000000602082015250565b6000613793603c83612ee8565b915061379e82613737565b604082019050919050565b600060208201905081810360008301526137c281613786565b9050919050565b7f43616e6e6f74207769746864726177206265666f72652064656c61792070657260008201527f696f642e00000000000000000000000000000000000000000000000000000000602082015250565b6000613825602483612ee8565b9150613830826137c9565b604082019050919050565b6000602082019050818103600083015261385481613818565b9050919050565b60008151905061386a81612bce565b92915050565b60006020828403121561388657613885612b26565b5b60006138948482850161385b565b91505092915050565b7f496e73756666696369656e742066756e647320696e2074686520636f6e74726160008201527f63742e0000000000000000000000000000000000000000000000000000000000602082015250565b60006138f9602383612ee8565b91506139048261389d565b604082019050919050565b60006020820190508181036000830152613928816138ec565b9050919050565b7f5769746864726177616c206661696c65642e0000000000000000000000000000600082015250565b6000613965601283612ee8565b91506139708261392f565b602082019050919050565b6000602082019050818103600083015261399481613958565b9050919050565b7f4f6e6c792076616c6964207061726b696e67206f776e6572732063616e20726560008201527f636f726420656e7472792e000000000000000000000000000000000000000000602082015250565b60006139f7602b83612ee8565b9150613a028261399b565b604082019050919050565b60006020820190508181036000830152613a26816139ea565b9050919050565b7f4f6e6c792064657369676e61746564207061726b696e67206f776e657220636160008201527f6e207265636f726420656e7472792e0000000000000000000000000000000000602082015250565b6000613a89602f83612ee8565b9150613a9482613a2d565b604082019050919050565b60006020820190508181036000830152613ab881613a7c565b9050919050565b7f4e6f206465706f7369747320666f756e6420666f7220676976656e20746f6b6560008201527f6e20616e6420757365722e000000000000000000000000000000000000000000602082015250565b6000613b1b602b83612ee8565b9150613b2682613abf565b604082019050919050565b60006020820190508181036000830152613b4a81613b0e565b9050919050565b7f5573657220616c7265616479207061726b65642e000000000000000000000000600082015250565b6000613b87601483612ee8565b9150613b9282613b51565b602082019050919050565b60006020820190508181036000830152613bb681613b7a565b9050919050565b6000819050919050565b600067ffffffffffffffff82169050919050565b6000819050919050565b6000613c00613bfb613bf684613bbd565b613bdb565b613bc7565b9050919050565b613c1081613be5565b82525050565b6000602082019050613c2b6000830184613c07565b92915050565b613c3a81612e7f565b8114613c4557600080fd5b50565b600081519050613c5781613c31565b92915050565b600060208284031215613c7357613c72612b26565b5b6000613c8184828501613c48565b91505092915050565b600080fd5b600080fd5b60008085851115613ca857613ca7613c8a565b5b83861115613cb957613cb8613c8f565b5b6001850283019150848603905094509492505050565b600082905092915050565b60007fffffffffffffffffffffffffffffffffffffffff00000000000000000000000082169050919050565b600082821b905092915050565b6000613d1f8383613ccf565b82613d2a8135613cda565b92506014821015613d6a57613d657fffffffffffffffffffffffffffffffffffffffff00000000000000000000000083601403600802613d06565b831692505b505092915050565b600081519050919050565b600081905092915050565b6000613d9382613d72565b613d9d8185613d7d565b9350613dad818560208601612ef9565b80840191505092915050565b6000613dc58284613d88565b91508190509291505056fea2646970667358221220cd415208e3e259726e69becacb667b416ed7a68c8289393823341c23ab505d4964736f6c63430008140033",
  "linkReferences": {},
  "deployedLinkReferences": {}
}