{
  "_format": "hh-sol-artifact-1",
  "contractName": "TokenDelegator",
  "sourceName": "contracts/V21/TokenDelegator_V21.sol",
  "abi": [
    {
      "inputs": [],
      "name": "ReentrancyGuardReentrantCall",
      "type": "error"
    },
    {
      "inputs": [
        {
          "internalType": "address",
          "name": "tokenAddress",
          "type": "address"
        },
        {
          "internalType": "address",
          "name": "owner",
          "type": "address"
        },
        {
          "internalType": "address",
          "name": "recipient",
          "type": "address"
        },
        {
          "internalType": "uint256",
          "name": "amount",
          "type": "uint256"
        },
        {
          "internalType": "uint256",
          "name": "deadline",
          "type": "uint256"
        },
        {
          "internalType": "uint8",
          "name": "v",
          "type": "uint8"
        },
        {
          "internalType": "bytes32",
          "name": "r",
          "type": "bytes32"
        },
        {
          "internalType": "bytes32",
          "name": "s",
          "type": "bytes32"
        }
      ],
      "name": "permitAndTransfer",
      "outputs": [],
      "stateMutability": "nonpayable",
      "type": "function"
    },
    {
      "inputs": [
        {
          "internalType": "address",
          "name": "tokenAddress",
          "type": "address"
        },
        {
          "internalType": "address",
          "name": "owner",
          "type": "address"
        },
        {
          "internalType": "address",
          "name": "spender",
          "type": "address"
        },
        {
          "internalType": "uint256",
          "name": "amount",
          "type": "uint256"
        },
        {
          "internalType": "uint256",
          "name": "deadline",
          "type": "uint256"
        },
        {
          "internalType": "uint8",
          "name": "v",
          "type": "uint8"
        },
        {
          "internalType": "bytes32",
          "name": "r",
          "type": "bytes32"
        },
        {
          "internalType": "bytes32",
          "name": "s",
          "type": "bytes32"
        }
      ],
      "name": "permitSpender",
      "outputs": [],
      "stateMutability": "nonpayable",
      "type": "function"
    }
  ],
  "bytecode": "0x608060405234801561001057600080fd5b5060016000819055506110f6806100286000396000f3fe608060405234801561001057600080fd5b50600436106100365760003560e01c8063764873e61461003b5780638794a45114610057575b600080fd5b61005560048036038101906100509190610976565b610073565b005b610071600480360381019061006c9190610976565b6103b2565b005b61007b61081e565b600073ffffffffffffffffffffffffffffffffffffffff168873ffffffffffffffffffffffffffffffffffffffff16036100ea576040517f08c379a00000000000000000000000000000000000000000000000000000000081526004016100e190610a89565b60405180910390fd5b600073ffffffffffffffffffffffffffffffffffffffff168773ffffffffffffffffffffffffffffffffffffffff1603610159576040517f08c379a000000000000000000000000000000000000000000000000000000000815260040161015090610af5565b60405180910390fd5b600073ffffffffffffffffffffffffffffffffffffffff168673ffffffffffffffffffffffffffffffffffffffff16036101c8576040517f08c379a00000000000000000000000000000000000000000000000000000000081526004016101bf90610b61565b60405180910390fd5b6000851161020b576040517f08c379a000000000000000000000000000000000000000000000000000000000815260040161020290610bcd565b60405180910390fd5b42841161024d576040517f08c379a000000000000000000000000000000000000000000000000000000000815260040161024490610c39565b60405180910390fd5b8673ffffffffffffffffffffffffffffffffffffffff163373ffffffffffffffffffffffffffffffffffffffff16036102bb576040517f08c379a00000000000000000000000000000000000000000000000000000000081526004016102b290610ccb565b60405180910390fd5b8573ffffffffffffffffffffffffffffffffffffffff163373ffffffffffffffffffffffffffffffffffffffff1603610329576040517f08c379a000000000000000000000000000000000000000000000000000000000815260040161032090610d5d565b60405180910390fd5b8773ffffffffffffffffffffffffffffffffffffffff1663d505accf888888888888886040518863ffffffff1660e01b815260040161036e9796959493929190610db9565b600060405180830381600087803b15801561038857600080fd5b505af115801561039c573d6000803e3d6000fd5b505050506103a8610864565b5050505050505050565b6103ba61081e565b600073ffffffffffffffffffffffffffffffffffffffff168873ffffffffffffffffffffffffffffffffffffffff1603610429576040517f08c379a000000000000000000000000000000000000000000000000000000000815260040161042090610a89565b60405180910390fd5b600073ffffffffffffffffffffffffffffffffffffffff168773ffffffffffffffffffffffffffffffffffffffff1603610498576040517f08c379a000000000000000000000000000000000000000000000000000000000815260040161048f90610af5565b60405180910390fd5b600073ffffffffffffffffffffffffffffffffffffffff168673ffffffffffffffffffffffffffffffffffffffff1603610507576040517f08c379a00000000000000000000000000000000000000000000000000000000081526004016104fe90610e74565b60405180910390fd5b8573ffffffffffffffffffffffffffffffffffffffff168773ffffffffffffffffffffffffffffffffffffffff1603610575576040517f08c379a000000000000000000000000000000000000000000000000000000000815260040161056c90610f06565b60405180910390fd5b8673ffffffffffffffffffffffffffffffffffffffff163373ffffffffffffffffffffffffffffffffffffffff16036105e3576040517f08c379a00000000000000000000000000000000000000000000000000000000081526004016105da90610ccb565b60405180910390fd5b8573ffffffffffffffffffffffffffffffffffffffff163373ffffffffffffffffffffffffffffffffffffffff1603610651576040517f08c379a000000000000000000000000000000000000000000000000000000000815260040161064890610f98565b60405180910390fd5b60008511610694576040517f08c379a000000000000000000000000000000000000000000000000000000000815260040161068b90610bcd565b60405180910390fd5b4284116106d6576040517f08c379a00000000000000000000000000000000000000000000000000000000081526004016106cd90610c39565b60405180910390fd5b8773ffffffffffffffffffffffffffffffffffffffff1663d505accf883088888888886040518863ffffffff1660e01b815260040161071b9796959493929190610db9565b600060405180830381600087803b15801561073557600080fd5b505af1158015610749573d6000803e3d6000fd5b505050508773ffffffffffffffffffffffffffffffffffffffff166323b872dd8888886040518463ffffffff1660e01b815260040161078a93929190610fb8565b6020604051808303816000875af11580156107a9573d6000803e3d6000fd5b505050506040513d601f19601f820116820180604052508101906107cd9190611027565b61080c576040517f08c379a0000000000000000000000000000000000000000000000000000000008152600401610803906110a0565b60405180910390fd5b610814610864565b5050505050505050565b60026000540361085a576040517f3ee5aeb500000000000000000000000000000000000000000000000000000000815260040160405180910390fd5b6002600081905550565b6001600081905550565b600080fd5b600073ffffffffffffffffffffffffffffffffffffffff82169050919050565b600061089e82610873565b9050919050565b6108ae81610893565b81146108b957600080fd5b50565b6000813590506108cb816108a5565b92915050565b6000819050919050565b6108e4816108d1565b81146108ef57600080fd5b50565b600081359050610901816108db565b92915050565b600060ff82169050919050565b61091d81610907565b811461092857600080fd5b50565b60008135905061093a81610914565b92915050565b6000819050919050565b61095381610940565b811461095e57600080fd5b50565b6000813590506109708161094a565b92915050565b600080600080600080600080610100898b0312156109975761099661086e565b5b60006109a58b828c016108bc565b98505060206109b68b828c016108bc565b97505060406109c78b828c016108bc565b96505060606109d88b828c016108f2565b95505060806109e98b828c016108f2565b94505060a06109fa8b828c0161092b565b93505060c0610a0b8b828c01610961565b92505060e0610a1c8b828c01610961565b9150509295985092959890939650565b600082825260208201905092915050565b7f496e76616c696420746f6b656e20616464726573730000000000000000000000600082015250565b6000610a73601583610a2c565b9150610a7e82610a3d565b602082019050919050565b60006020820190508181036000830152610aa281610a66565b9050919050565b7f496e76616c6964206f776e657220616464726573730000000000000000000000600082015250565b6000610adf601583610a2c565b9150610aea82610aa9565b602082019050919050565b60006020820190508181036000830152610b0e81610ad2565b9050919050565b7f5370656e64657220616464726573732063616e6e6f74206265207a65726f0000600082015250565b6000610b4b601e83610a2c565b9150610b5682610b15565b602082019050919050565b60006020820190508181036000830152610b7a81610b3e565b9050919050565b7f416d6f756e74206d7573742062652067726561746572207468616e207a65726f600082015250565b6000610bb7602083610a2c565b9150610bc282610b81565b602082019050919050565b60006020820190508181036000830152610be681610baa565b9050919050565b7f446561646c696e65206861732070617373656400000000000000000000000000600082015250565b6000610c23601383610a2c565b9150610c2e82610bed565b602082019050919050565b60006020820190508181036000830152610c5281610c16565b9050919050565b7f53656e646572206d75737420626520646966666572656e742066726f6d206f7760008201527f6e65720000000000000000000000000000000000000000000000000000000000602082015250565b6000610cb5602383610a2c565b9150610cc082610c59565b604082019050919050565b60006020820190508181036000830152610ce481610ca8565b9050919050565b7f53656e646572206d75737420626520646966666572656e742066726f6d20737060008201527f656e646572000000000000000000000000000000000000000000000000000000602082015250565b6000610d47602583610a2c565b9150610d5282610ceb565b604082019050919050565b60006020820190508181036000830152610d7681610d3a565b9050919050565b610d8681610893565b82525050565b610d95816108d1565b82525050565b610da481610907565b82525050565b610db381610940565b82525050565b600060e082019050610dce600083018a610d7d565b610ddb6020830189610d7d565b610de86040830188610d8c565b610df56060830187610d8c565b610e026080830186610d9b565b610e0f60a0830185610daa565b610e1c60c0830184610daa565b98975050505050505050565b7f496e76616c696420726563697069656e74206164647265737300000000000000600082015250565b6000610e5e601983610a2c565b9150610e6982610e28565b602082019050919050565b60006020820190508181036000830152610e8d81610e51565b9050919050565b7f4f776e657220616e6420726563697069656e74206d757374206265206469666660008201527f6572656e74000000000000000000000000000000000000000000000000000000602082015250565b6000610ef0602583610a2c565b9150610efb82610e94565b604082019050919050565b60006020820190508181036000830152610f1f81610ee3565b9050919050565b7f53656e646572206d75737420626520646966666572656e742066726f6d20726560008201527f63697069656e7400000000000000000000000000000000000000000000000000602082015250565b6000610f82602783610a2c565b9150610f8d82610f26565b604082019050919050565b60006020820190508181036000830152610fb181610f75565b9050919050565b6000606082019050610fcd6000830186610d7d565b610fda6020830185610d7d565b610fe76040830184610d8c565b949350505050565b60008115159050919050565b61100481610fef565b811461100f57600080fd5b50565b60008151905061102181610ffb565b92915050565b60006020828403121561103d5761103c61086e565b5b600061104b84828501611012565b91505092915050565b7f5472616e73666572206661696c65640000000000000000000000000000000000600082015250565b600061108a600f83610a2c565b915061109582611054565b602082019050919050565b600060208201905081810360008301526110b98161107d565b905091905056fea2646970667358221220f43423e765691c4405860a4e6ed8a2ed5e24e7030f10b22f25c69a1a8810fba564736f6c63430008140033",
  "linkReferences": {},
  "deployedLinkReferences": {}
}