{
  "_format": "hh-sol-artifact-1",
  "contractName": "NFCAddressRegistry",
  "sourceName": "contracts/NFCAddressRegistry/NFCAddressRegistry.sol",
  "abi": [
    {
      "inputs": [
        {
          "internalType": "address",
          "name": "trustedForwarder",
          "type": "address"
        }
      ],
      "stateMutability": "nonpayable",
      "type": "constructor"
    },
    {
      "inputs": [
        {
          "internalType": "address",
          "name": "target",
          "type": "address"
        }
      ],
      "name": "AddressEmptyCode",
      "type": "error"
    },
    {
      "inputs": [
        {
          "internalType": "address",
          "name": "implementation",
          "type": "address"
        }
      ],
      "name": "ERC1967InvalidImplementation",
      "type": "error"
    },
    {
      "inputs": [],
      "name": "ERC1967NonPayable",
      "type": "error"
    },
    {
      "inputs": [],
      "name": "FailedInnerCall",
      "type": "error"
    },
    {
      "inputs": [],
      "name": "InvalidInitialization",
      "type": "error"
    },
    {
      "inputs": [],
      "name": "NotInitializing",
      "type": "error"
    },
    {
      "inputs": [
        {
          "internalType": "address",
          "name": "owner",
          "type": "address"
        }
      ],
      "name": "OwnableInvalidOwner",
      "type": "error"
    },
    {
      "inputs": [
        {
          "internalType": "address",
          "name": "account",
          "type": "address"
        }
      ],
      "name": "OwnableUnauthorizedAccount",
      "type": "error"
    },
    {
      "inputs": [],
      "name": "UUPSUnauthorizedCallContext",
      "type": "error"
    },
    {
      "inputs": [
        {
          "internalType": "bytes32",
          "name": "slot",
          "type": "bytes32"
        }
      ],
      "name": "UUPSUnsupportedProxiableUUID",
      "type": "error"
    },
    {
      "anonymous": false,
      "inputs": [
        {
          "indexed": true,
          "internalType": "string",
          "name": "id",
          "type": "string"
        },
        {
          "indexed": false,
          "internalType": "address",
          "name": "addr",
          "type": "address"
        }
      ],
      "name": "IdAdded",
      "type": "event"
    },
    {
      "anonymous": false,
      "inputs": [
        {
          "indexed": true,
          "internalType": "string",
          "name": "id",
          "type": "string"
        }
      ],
      "name": "IdRemoved",
      "type": "event"
    },
    {
      "anonymous": false,
      "inputs": [
        {
          "indexed": false,
          "internalType": "uint64",
          "name": "version",
          "type": "uint64"
        }
      ],
      "name": "Initialized",
      "type": "event"
    },
    {
      "anonymous": false,
      "inputs": [
        {
          "indexed": true,
          "internalType": "address",
          "name": "previousOwner",
          "type": "address"
        },
        {
          "indexed": true,
          "internalType": "address",
          "name": "newOwner",
          "type": "address"
        }
      ],
      "name": "OwnershipTransferred",
      "type": "event"
    },
    {
      "anonymous": false,
      "inputs": [
        {
          "indexed": true,
          "internalType": "address",
          "name": "implementation",
          "type": "address"
        }
      ],
      "name": "Upgraded",
      "type": "event"
    },
    {
      "inputs": [],
      "name": "UPGRADE_INTERFACE_VERSION",
      "outputs": [
        {
          "internalType": "string",
          "name": "",
          "type": "string"
        }
      ],
      "stateMutability": "view",
      "type": "function"
    },
    {
      "inputs": [
        {
          "internalType": "string",
          "name": "id",
          "type": "string"
        },
        {
          "internalType": "address",
          "name": "addr",
          "type": "address"
        }
      ],
      "name": "addId",
      "outputs": [],
      "stateMutability": "nonpayable",
      "type": "function"
    },
    {
      "inputs": [
        {
          "internalType": "string",
          "name": "id",
          "type": "string"
        }
      ],
      "name": "getMapAddress",
      "outputs": [
        {
          "internalType": "address",
          "name": "",
          "type": "address"
        }
      ],
      "stateMutability": "view",
      "type": "function"
    },
    {
      "inputs": [
        {
          "internalType": "address",
          "name": "addr",
          "type": "address"
        }
      ],
      "name": "getMapId",
      "outputs": [
        {
          "internalType": "string",
          "name": "",
          "type": "string"
        }
      ],
      "stateMutability": "view",
      "type": "function"
    },
    {
      "inputs": [
        {
          "internalType": "string",
          "name": "",
          "type": "string"
        }
      ],
      "name": "idMap",
      "outputs": [
        {
          "internalType": "address",
          "name": "",
          "type": "address"
        }
      ],
      "stateMutability": "view",
      "type": "function"
    },
    {
      "inputs": [
        {
          "internalType": "address",
          "name": "initialOwner",
          "type": "address"
        }
      ],
      "name": "initialize",
      "outputs": [],
      "stateMutability": "nonpayable",
      "type": "function"
    },
    {
      "inputs": [
        {
          "internalType": "address",
          "name": "forwarder",
          "type": "address"
        }
      ],
      "name": "isTrustedForwarder",
      "outputs": [
        {
          "internalType": "bool",
          "name": "",
          "type": "bool"
        }
      ],
      "stateMutability": "view",
      "type": "function"
    },
    {
      "inputs": [],
      "name": "owner",
      "outputs": [
        {
          "internalType": "address",
          "name": "",
          "type": "address"
        }
      ],
      "stateMutability": "view",
      "type": "function"
    },
    {
      "inputs": [],
      "name": "proxiableUUID",
      "outputs": [
        {
          "internalType": "bytes32",
          "name": "",
          "type": "bytes32"
        }
      ],
      "stateMutability": "view",
      "type": "function"
    },
    {
      "inputs": [
        {
          "internalType": "string",
          "name": "id",
          "type": "string"
        }
      ],
      "name": "removeId",
      "outputs": [],
      "stateMutability": "nonpayable",
      "type": "function"
    },
    {
      "inputs": [],
      "name": "renounceOwnership",
      "outputs": [],
      "stateMutability": "nonpayable",
      "type": "function"
    },
    {
      "inputs": [
        {
          "internalType": "address",
          "name": "newOwner",
          "type": "address"
        }
      ],
      "name": "transferOwnership",
      "outputs": [],
      "stateMutability": "nonpayable",
      "type": "function"
    },
    {
      "inputs": [],
      "name": "trustedForwarder",
      "outputs": [
        {
          "internalType": "address",
          "name": "",
          "type": "address"
        }
      ],
      "stateMutability": "view",
      "type": "function"
    },
    {
      "inputs": [
        {
          "internalType": "address",
          "name": "newImplementation",
          "type": "address"
        },
        {
          "internalType": "bytes",
          "name": "data",
          "type": "bytes"
        }
      ],
      "name": "upgradeToAndCall",
      "outputs": [],
      "stateMutability": "payable",
      "type": "function"
    }
  ],
  "bytecode": "0x60c06040523073ffffffffffffffffffffffffffffffffffffffff1660809073ffffffffffffffffffffffffffffffffffffffff168152503480156200004457600080fd5b50604051620026033803806200260383398181016040528101906200006a919062000111565b808073ffffffffffffffffffffffffffffffffffffffff1660a08173ffffffffffffffffffffffffffffffffffffffff1681525050505062000143565b600080fd5b600073ffffffffffffffffffffffffffffffffffffffff82169050919050565b6000620000d982620000ac565b9050919050565b620000eb81620000cc565b8114620000f757600080fd5b50565b6000815190506200010b81620000e0565b92915050565b6000602082840312156200012a5762000129620000a7565b5b60006200013a84828501620000fa565b91505092915050565b60805160a05161248c6200017760003960006108c6015260008181610dd401528181610e290152610fe4015261248c6000f3fe6080604052600436106100dd5760003560e01c80637da0a8771161007f578063c4d66de811610059578063c4d66de8146102a1578063ebd746c9146102ca578063f2fde38b146102f3578063fcf95e3a1461031c576100dd565b80637da0a877146102205780638da5cb5b1461024b578063ad3cb1cc14610276576100dd565b806352d1902d116100bb57806352d1902d14610178578063572b6c05146101a35780635735eef1146101e0578063715018a614610209576100dd565b80630e256165146100e257806312f60f4f1461011f5780634f1ef2861461015c575b600080fd5b3480156100ee57600080fd5b50610109600480360381019061010491906117c4565b610359565b6040516101169190611881565b60405180910390f35b34801561012b57600080fd5b50610146600480360381019061014191906119d8565b6104e3565b6040516101539190611a30565b60405180910390f35b61017660048036038101906101719190611aec565b61052c565b005b34801561018457600080fd5b5061018d61054b565b60405161019a9190611b61565b60405180910390f35b3480156101af57600080fd5b506101ca60048036038101906101c591906117c4565b61057e565b6040516101d79190611b97565b60405180910390f35b3480156101ec57600080fd5b5061020760048036038101906102029190611bb2565b6105bd565b005b34801561021557600080fd5b5061021e6108ae565b005b34801561022c57600080fd5b506102356108c2565b6040516102429190611a30565b60405180910390f35b34801561025757600080fd5b506102606108ea565b60405161026d9190611a30565b60405180910390f35b34801561028257600080fd5b5061028b610922565b6040516102989190611881565b60405180910390f35b3480156102ad57600080fd5b506102c860048036038101906102c391906117c4565b61095b565b005b3480156102d657600080fd5b506102f160048036038101906102ec91906119d8565b610af2565b005b3480156102ff57600080fd5b5061031a600480360381019061031591906117c4565b610cc1565b005b34801561032857600080fd5b50610343600480360381019061033e91906119d8565b610d47565b6040516103509190611a30565b60405180910390f35b6060600073ffffffffffffffffffffffffffffffffffffffff168273ffffffffffffffffffffffffffffffffffffffff16036103ca576040517f08c379a00000000000000000000000000000000000000000000000000000000081526004016103c190611c5a565b60405180910390fd5b6000600160008473ffffffffffffffffffffffffffffffffffffffff1673ffffffffffffffffffffffffffffffffffffffff168152602001908152602001600020805461041690611ca9565b80601f016020809104026020016040519081016040528092919081815260200182805461044290611ca9565b801561048f5780601f106104645761010080835404028352916020019161048f565b820191906000526020600020905b81548152906001019060200180831161047257829003601f168201915b5050505050905060008151116104da576040517f08c379a00000000000000000000000000000000000000000000000000000000081526004016104d190611d26565b60405180910390fd5b80915050919050565b6000818051602081018201805184825260208301602085012081835280955050505050506000915054906101000a900473ffffffffffffffffffffffffffffffffffffffff1681565b610534610dd2565b61053d82610eb8565b6105478282610ec3565b5050565b6000610555610fe2565b7f360894a13ba1a3210667c828492db98dca3e2076cc3735a920a3ca505d382bbc60001b905090565b60006105886108c2565b73ffffffffffffffffffffffffffffffffffffffff168273ffffffffffffffffffffffffffffffffffffffff16149050919050565b6105c5611069565b6000825111610609576040517f08c379a000000000000000000000000000000000000000000000000000000000815260040161060090611d92565b60405180910390fd5b600073ffffffffffffffffffffffffffffffffffffffff168173ffffffffffffffffffffffffffffffffffffffff1603610678576040517f08c379a000000000000000000000000000000000000000000000000000000000815260040161066f90611c5a565b60405180910390fd5b600073ffffffffffffffffffffffffffffffffffffffff166000836040516106a09190611dee565b908152602001604051809103902060009054906101000a900473ffffffffffffffffffffffffffffffffffffffff1673ffffffffffffffffffffffffffffffffffffffff1614610725576040517f08c379a000000000000000000000000000000000000000000000000000000000815260040161071c90611e51565b60405180910390fd5b6000600160008373ffffffffffffffffffffffffffffffffffffffff1673ffffffffffffffffffffffffffffffffffffffff168152602001908152602001600020805461077190611ca9565b9050146107b3576040517f08c379a00000000000000000000000000000000000000000000000000000000081526004016107aa90611ee3565b60405180910390fd5b806000836040516107c49190611dee565b908152602001604051809103902060006101000a81548173ffffffffffffffffffffffffffffffffffffffff021916908373ffffffffffffffffffffffffffffffffffffffff16021790555081600160008373ffffffffffffffffffffffffffffffffffffffff1673ffffffffffffffffffffffffffffffffffffffff168152602001908152602001600020908161085c91906120b9565b508160405161086b9190611dee565b60405180910390207f40b9d771ed540469093ffcb76b1ac4aa798c23a5d13f66a2cdb4367c2f345f46826040516108a29190611a30565b60405180910390a25050565b6108b6611069565b6108c060006110f0565b565b60007f0000000000000000000000000000000000000000000000000000000000000000905090565b6000806108f56111c7565b90508060000160009054906101000a900473ffffffffffffffffffffffffffffffffffffffff1691505090565b6040518060400160405280600581526020017f352e302e3000000000000000000000000000000000000000000000000000000081525081565b60006109656111ef565b905060008160000160089054906101000a900460ff1615905060008260000160009054906101000a900467ffffffffffffffff1690506000808267ffffffffffffffff161480156109b35750825b9050600060018367ffffffffffffffff161480156109e8575060003073ffffffffffffffffffffffffffffffffffffffff163b145b9050811580156109f6575080155b15610a2d576040517ff92ee8a900000000000000000000000000000000000000000000000000000000815260040160405180910390fd5b60018560000160006101000a81548167ffffffffffffffff021916908367ffffffffffffffff1602179055508315610a7d5760018560000160086101000a81548160ff0219169083151502179055505b610a8686611217565b610a8e61122b565b8315610aea5760008560000160086101000a81548160ff0219169083151502179055507fc7f505b2f371ae2175ee4913f4499e1f2633a7b5936321eed1cdaeb6115181d26001604051610ae191906121da565b60405180910390a15b505050505050565b610afa611069565b6000815111610b3e576040517f08c379a0000000000000000000000000000000000000000000000000000000008152600401610b3590611d92565b60405180910390fd5b60008082604051610b4f9190611dee565b908152602001604051809103902060009054906101000a900473ffffffffffffffffffffffffffffffffffffffff169050600073ffffffffffffffffffffffffffffffffffffffff168173ffffffffffffffffffffffffffffffffffffffff1603610bef576040517f08c379a0000000000000000000000000000000000000000000000000000000008152600401610be690612241565b60405180910390fd5b600160008273ffffffffffffffffffffffffffffffffffffffff1673ffffffffffffffffffffffffffffffffffffffff1681526020019081526020016000206000610c3a91906116f5565b600082604051610c4a9190611dee565b908152602001604051809103902060006101000a81549073ffffffffffffffffffffffffffffffffffffffff021916905581604051610c899190611dee565b60405180910390207f511e50eb6bcdbead2e2033762a64acedb6c131bb29b159b9c78d007c2bc5457260405160405180910390a25050565b610cc9611069565b600073ffffffffffffffffffffffffffffffffffffffff168173ffffffffffffffffffffffffffffffffffffffff1603610d3b5760006040517f1e4fbdf7000000000000000000000000000000000000000000000000000000008152600401610d329190611a30565b60405180910390fd5b610d44816110f0565b50565b600080825111610d8c576040517f08c379a0000000000000000000000000000000000000000000000000000000008152600401610d8390611d92565b60405180910390fd5b600082604051610d9c9190611dee565b908152602001604051809103902060009054906101000a900473ffffffffffffffffffffffffffffffffffffffff169050919050565b7f000000000000000000000000000000000000000000000000000000000000000073ffffffffffffffffffffffffffffffffffffffff163073ffffffffffffffffffffffffffffffffffffffff161480610e7f57507f000000000000000000000000000000000000000000000000000000000000000073ffffffffffffffffffffffffffffffffffffffff16610e66611235565b73ffffffffffffffffffffffffffffffffffffffff1614155b15610eb6576040517fe07c8dba00000000000000000000000000000000000000000000000000000000815260040160405180910390fd5b565b610ec0611069565b50565b8173ffffffffffffffffffffffffffffffffffffffff166352d1902d6040518163ffffffff1660e01b8152600401602060405180830381865afa925050508015610f2b57506040513d601f19601f82011682018060405250810190610f28919061228d565b60015b610f6c57816040517f4c9c8ce3000000000000000000000000000000000000000000000000000000008152600401610f639190611a30565b60405180910390fd5b7f360894a13ba1a3210667c828492db98dca3e2076cc3735a920a3ca505d382bbc60001b8114610fd357806040517faa1d49a4000000000000000000000000000000000000000000000000000000008152600401610fca9190611b61565b60405180910390fd5b610fdd838361128c565b505050565b7f000000000000000000000000000000000000000000000000000000000000000073ffffffffffffffffffffffffffffffffffffffff163073ffffffffffffffffffffffffffffffffffffffff1614611067576040517fe07c8dba00000000000000000000000000000000000000000000000000000000815260040160405180910390fd5b565b6110716112ff565b73ffffffffffffffffffffffffffffffffffffffff1661108f6108ea565b73ffffffffffffffffffffffffffffffffffffffff16146110ee576110b26112ff565b6040517f118cdaa70000000000000000000000000000000000000000000000000000000081526004016110e59190611a30565b60405180910390fd5b565b60006110fa6111c7565b905060008160000160009054906101000a900473ffffffffffffffffffffffffffffffffffffffff169050828260000160006101000a81548173ffffffffffffffffffffffffffffffffffffffff021916908373ffffffffffffffffffffffffffffffffffffffff1602179055508273ffffffffffffffffffffffffffffffffffffffff168173ffffffffffffffffffffffffffffffffffffffff167f8be0079c531659141344cd1fd0a4f28419497f9722a3daafe3b4186f6b6457e060405160405180910390a3505050565b60007f9016d09d72d40fdae2fd8ceac6b6234c7706214fd39c1cd1e609a0528c199300905090565b60007ff0c57e16840df040f15088dc2f81fe391c3923bec73e23a9662efc9c229c6a00905090565b61121f61130e565b6112288161134e565b50565b61123361130e565b565b60006112637f360894a13ba1a3210667c828492db98dca3e2076cc3735a920a3ca505d382bbc60001b6113d4565b60000160009054906101000a900473ffffffffffffffffffffffffffffffffffffffff16905090565b611295826113de565b8173ffffffffffffffffffffffffffffffffffffffff167fbc7cd75a20ee27fd9adebab32041f755214dbc6bffa90cc0225b39da2e5c2d3b60405160405180910390a26000815111156112f2576112ec82826114ab565b506112fb565b6112fa61152f565b5b5050565b600061130961156c565b905090565b6113166115e1565b61134c576040517fd7e6bcf800000000000000000000000000000000000000000000000000000000815260040160405180910390fd5b565b61135661130e565b600073ffffffffffffffffffffffffffffffffffffffff168173ffffffffffffffffffffffffffffffffffffffff16036113c85760006040517f1e4fbdf70000000000000000000000000000000000000000000000000000000081526004016113bf9190611a30565b60405180910390fd5b6113d1816110f0565b50565b6000819050919050565b60008173ffffffffffffffffffffffffffffffffffffffff163b0361143a57806040517f4c9c8ce30000000000000000000000000000000000000000000000000000000081526004016114319190611a30565b60405180910390fd5b806114677f360894a13ba1a3210667c828492db98dca3e2076cc3735a920a3ca505d382bbc60001b6113d4565b60000160006101000a81548173ffffffffffffffffffffffffffffffffffffffff021916908373ffffffffffffffffffffffffffffffffffffffff16021790555050565b60606000808473ffffffffffffffffffffffffffffffffffffffff16846040516114d59190612301565b600060405180830381855af49150503d8060008114611510576040519150601f19603f3d011682016040523d82523d6000602084013e611515565b606091505b5091509150611525858383611601565b9250505092915050565b600034111561156a576040517fb398979f00000000000000000000000000000000000000000000000000000000815260040160405180910390fd5b565b600080600036905090506000611580611690565b905061158b3361057e565b80156115975750808210155b156115d15760003682846115ab9190612347565b9080926115ba93929190612385565b906115c591906123f7565b60601c925050506115de565b6115d961169f565b925050505b90565b60006115eb6111ef565b60000160089054906101000a900460ff16905090565b60608261161657611611826116a7565b611688565b6000825114801561163e575060008473ffffffffffffffffffffffffffffffffffffffff163b145b1561168057836040517f9996b3150000000000000000000000000000000000000000000000000000000081526004016116779190611a30565b60405180910390fd5b819050611689565b5b9392505050565b600061169a6116ec565b905090565b600033905090565b6000815111156116ba5780518082602001fd5b6040517f1425ea4200000000000000000000000000000000000000000000000000000000815260040160405180910390fd5b60006014905090565b50805461170190611ca9565b6000825580601f106117135750611732565b601f0160209004906000526020600020908101906117319190611735565b5b50565b5b8082111561174e576000816000905550600101611736565b5090565b6000604051905090565b600080fd5b600080fd5b600073ffffffffffffffffffffffffffffffffffffffff82169050919050565b600061179182611766565b9050919050565b6117a181611786565b81146117ac57600080fd5b50565b6000813590506117be81611798565b92915050565b6000602082840312156117da576117d961175c565b5b60006117e8848285016117af565b91505092915050565b600081519050919050565b600082825260208201905092915050565b60005b8381101561182b578082015181840152602081019050611810565b60008484015250505050565b6000601f19601f8301169050919050565b6000611853826117f1565b61185d81856117fc565b935061186d81856020860161180d565b61187681611837565b840191505092915050565b6000602082019050818103600083015261189b8184611848565b905092915050565b600080fd5b600080fd5b7f4e487b7100000000000000000000000000000000000000000000000000000000600052604160045260246000fd5b6118e582611837565b810181811067ffffffffffffffff82111715611904576119036118ad565b5b80604052505050565b6000611917611752565b905061192382826118dc565b919050565b600067ffffffffffffffff821115611943576119426118ad565b5b61194c82611837565b9050602081019050919050565b82818337600083830152505050565b600061197b61197684611928565b61190d565b905082815260208101848484011115611997576119966118a8565b5b6119a2848285611959565b509392505050565b600082601f8301126119bf576119be6118a3565b5b81356119cf848260208601611968565b91505092915050565b6000602082840312156119ee576119ed61175c565b5b600082013567ffffffffffffffff811115611a0c57611a0b611761565b5b611a18848285016119aa565b91505092915050565b611a2a81611786565b82525050565b6000602082019050611a456000830184611a21565b92915050565b600067ffffffffffffffff821115611a6657611a656118ad565b5b611a6f82611837565b9050602081019050919050565b6000611a8f611a8a84611a4b565b61190d565b905082815260208101848484011115611aab57611aaa6118a8565b5b611ab6848285611959565b509392505050565b600082601f830112611ad357611ad26118a3565b5b8135611ae3848260208601611a7c565b91505092915050565b60008060408385031215611b0357611b0261175c565b5b6000611b11858286016117af565b925050602083013567ffffffffffffffff811115611b3257611b31611761565b5b611b3e85828601611abe565b9150509250929050565b6000819050919050565b611b5b81611b48565b82525050565b6000602082019050611b766000830184611b52565b92915050565b60008115159050919050565b611b9181611b7c565b82525050565b6000602082019050611bac6000830184611b88565b92915050565b60008060408385031215611bc957611bc861175c565b5b600083013567ffffffffffffffff811115611be757611be6611761565b5b611bf3858286016119aa565b9250506020611c04858286016117af565b9150509250929050565b7f416464726573732063616e6e6f74206265207a65726f20616464726573730000600082015250565b6000611c44601e836117fc565b9150611c4f82611c0e565b602082019050919050565b60006020820190508181036000830152611c7381611c37565b9050919050565b7f4e487b7100000000000000000000000000000000000000000000000000000000600052602260045260246000fd5b60006002820490506001821680611cc157607f821691505b602082108103611cd457611cd3611c7a565b5b50919050565b7f4e6f204944206c696e6b656420746f2074686973206164647265737300000000600082015250565b6000611d10601c836117fc565b9150611d1b82611cda565b602082019050919050565b60006020820190508181036000830152611d3f81611d03565b9050919050565b7f49442063616e6e6f7420626520656d7074790000000000000000000000000000600082015250565b6000611d7c6012836117fc565b9150611d8782611d46565b602082019050919050565b60006020820190508181036000830152611dab81611d6f565b9050919050565b600081905092915050565b6000611dc8826117f1565b611dd28185611db2565b9350611de281856020860161180d565b80840191505092915050565b6000611dfa8284611dbd565b915081905092915050565b7f494420616c7265616479206c696e6b6564000000000000000000000000000000600082015250565b6000611e3b6011836117fc565b9150611e4682611e05565b602082019050919050565b60006020820190508181036000830152611e6a81611e2e565b9050919050565b7f4164647265737320616c7265616479206c696e6b656420746f20616e6f74686560008201527f7220494400000000000000000000000000000000000000000000000000000000602082015250565b6000611ecd6024836117fc565b9150611ed882611e71565b604082019050919050565b60006020820190508181036000830152611efc81611ec0565b9050919050565b60008190508160005260206000209050919050565b60006020601f8301049050919050565b600082821b905092915050565b600060088302611f657fffffffffffffffffffffffffffffffffffffffffffffffffffffffffffffffff82611f28565b611f6f8683611f28565b95508019841693508086168417925050509392505050565b6000819050919050565b6000819050919050565b6000611fb6611fb1611fac84611f87565b611f91565b611f87565b9050919050565b6000819050919050565b611fd083611f9b565b611fe4611fdc82611fbd565b848454611f35565b825550505050565b600090565b611ff9611fec565b612004818484611fc7565b505050565b5b818110156120285761201d600082611ff1565b60018101905061200a565b5050565b601f82111561206d5761203e81611f03565b61204784611f18565b81016020851015612056578190505b61206a61206285611f18565b830182612009565b50505b505050565b600082821c905092915050565b600061209060001984600802612072565b1980831691505092915050565b60006120a9838361207f565b9150826002028217905092915050565b6120c2826117f1565b67ffffffffffffffff8111156120db576120da6118ad565b5b6120e58254611ca9565b6120f082828561202c565b600060209050601f8311600181146121235760008415612111578287015190505b61211b858261209d565b865550612183565b601f19841661213186611f03565b60005b8281101561215957848901518255600182019150602085019450602081019050612134565b868310156121765784890151612172601f89168261207f565b8355505b6001600288020188555050505b505050505050565b6000819050919050565b600067ffffffffffffffff82169050919050565b60006121c46121bf6121ba8461218b565b611f91565b612195565b9050919050565b6121d4816121a9565b82525050565b60006020820190506121ef60008301846121cb565b92915050565b7f494420646f6573206e6f74206578697374000000000000000000000000000000600082015250565b600061222b6011836117fc565b9150612236826121f5565b602082019050919050565b6000602082019050818103600083015261225a8161221e565b9050919050565b61226a81611b48565b811461227557600080fd5b50565b60008151905061228781612261565b92915050565b6000602082840312156122a3576122a261175c565b5b60006122b184828501612278565b91505092915050565b600081519050919050565b600081905092915050565b60006122db826122ba565b6122e581856122c5565b93506122f581856020860161180d565b80840191505092915050565b600061230d82846122d0565b915081905092915050565b7f4e487b7100000000000000000000000000000000000000000000000000000000600052601160045260246000fd5b600061235282611f87565b915061235d83611f87565b925082820390508181111561237557612374612318565b5b92915050565b600080fd5b600080fd5b600080858511156123995761239861237b565b5b838611156123aa576123a9612380565b5b6001850283019150848603905094509492505050565b600082905092915050565b60007fffffffffffffffffffffffffffffffffffffffff00000000000000000000000082169050919050565b600061240383836123c0565b8261240e81356123cb565b9250601482101561244e576124497fffffffffffffffffffffffffffffffffffffffff00000000000000000000000083601403600802611f28565b831692505b50509291505056fea2646970667358221220f40994b8251d821378f061da2bdd91e5d607f88a78b631b143aa7287789fa70d64736f6c63430008140033",
  "linkReferences": {},
  "deployedLinkReferences": {}
}