{
  "_format": "hh-sol-artifact-1",
  "contractName": "Forwarder",
  "sourceName": "contracts/V21/Forwarder_V21.sol",
  "abi": [
    {
      "inputs": [],
      "stateMutability": "nonpayable",
      "type": "constructor"
    },
    {
      "inputs": [],
      "name": "ECDSAInvalidSignature",
      "type": "error"
    },
    {
      "inputs": [
        {
          "internalType": "uint256",
          "name": "length",
          "type": "uint256"
        }
      ],
      "name": "ECDSAInvalidSignatureLength",
      "type": "error"
    },
    {
      "inputs": [
        {
          "internalType": "bytes32",
          "name": "s",
          "type": "bytes32"
        }
      ],
      "name": "ECDSAInvalidSignatureS",
      "type": "error"
    },
    {
      "anonymous": false,
      "inputs": [
        {
          "indexed": true,
          "internalType": "bytes32",
          "name": "domainSeparator",
          "type": "bytes32"
        },
        {
          "indexed": false,
          "internalType": "bytes",
          "name": "domainValue",
          "type": "bytes"
        }
      ],
      "name": "DomainRegistered",
      "type": "event"
    },
    {
      "anonymous": false,
      "inputs": [
        {
          "indexed": true,
          "internalType": "bytes32",
          "name": "typeHash",
          "type": "bytes32"
        },
        {
          "indexed": false,
          "internalType": "string",
          "name": "typeStr",
          "type": "string"
        }
      ],
      "name": "RequestTypeRegistered",
      "type": "event"
    },
    {
      "inputs": [],
      "name": "EIP712_DOMAIN_TYPE",
      "outputs": [
        {
          "internalType": "string",
          "name": "",
          "type": "string"
        }
      ],
      "stateMutability": "view",
      "type": "function"
    },
    {
      "inputs": [],
      "name": "GENERIC_PARAMS",
      "outputs": [
        {
          "internalType": "string",
          "name": "",
          "type": "string"
        }
      ],
      "stateMutability": "view",
      "type": "function"
    },
    {
      "inputs": [
        {
          "components": [
            {
              "internalType": "address",
              "name": "from",
              "type": "address"
            },
            {
              "internalType": "address",
              "name": "to",
              "type": "address"
            },
            {
              "internalType": "uint256",
              "name": "value",
              "type": "uint256"
            },
            {
              "internalType": "uint256",
              "name": "gas",
              "type": "uint256"
            },
            {
              "internalType": "uint256",
              "name": "nonce",
              "type": "uint256"
            },
            {
              "internalType": "bytes",
              "name": "data",
              "type": "bytes"
            },
            {
              "internalType": "uint256",
              "name": "validUntilTime",
              "type": "uint256"
            }
          ],
          "internalType": "struct IForwarder.ForwardRequest",
          "name": "req",
          "type": "tuple"
        },
        {
          "internalType": "bytes32",
          "name": "requestTypeHash",
          "type": "bytes32"
        },
        {
          "internalType": "bytes",
          "name": "suffixData",
          "type": "bytes"
        }
      ],
      "name": "_getEncoded",
      "outputs": [
        {
          "internalType": "bytes",
          "name": "",
          "type": "bytes"
        }
      ],
      "stateMutability": "pure",
      "type": "function"
    },
    {
      "inputs": [
        {
          "internalType": "bytes32",
          "name": "",
          "type": "bytes32"
        }
      ],
      "name": "domains",
      "outputs": [
        {
          "internalType": "bool",
          "name": "",
          "type": "bool"
        }
      ],
      "stateMutability": "view",
      "type": "function"
    },
    {
      "inputs": [
        {
          "components": [
            {
              "internalType": "address",
              "name": "from",
              "type": "address"
            },
            {
              "internalType": "address",
              "name": "to",
              "type": "address"
            },
            {
              "internalType": "uint256",
              "name": "value",
              "type": "uint256"
            },
            {
              "internalType": "uint256",
              "name": "gas",
              "type": "uint256"
            },
            {
              "internalType": "uint256",
              "name": "nonce",
              "type": "uint256"
            },
            {
              "internalType": "bytes",
              "name": "data",
              "type": "bytes"
            },
            {
              "internalType": "uint256",
              "name": "validUntilTime",
              "type": "uint256"
            }
          ],
          "internalType": "struct IForwarder.ForwardRequest",
          "name": "req",
          "type": "tuple"
        },
        {
          "internalType": "bytes32",
          "name": "domainSeparator",
          "type": "bytes32"
        },
        {
          "internalType": "bytes32",
          "name": "requestTypeHash",
          "type": "bytes32"
        },
        {
          "internalType": "bytes",
          "name": "suffixData",
          "type": "bytes"
        },
        {
          "internalType": "bytes",
          "name": "sig",
          "type": "bytes"
        }
      ],
      "name": "execute",
      "outputs": [
        {
          "internalType": "bool",
          "name": "success",
          "type": "bool"
        },
        {
          "internalType": "bytes",
          "name": "ret",
          "type": "bytes"
        }
      ],
      "stateMutability": "payable",
      "type": "function"
    },
    {
      "inputs": [
        {
          "internalType": "address",
          "name": "from",
          "type": "address"
        }
      ],
      "name": "getNonce",
      "outputs": [
        {
          "internalType": "uint256",
          "name": "",
          "type": "uint256"
        }
      ],
      "stateMutability": "view",
      "type": "function"
    },
    {
      "inputs": [
        {
          "internalType": "string",
          "name": "name",
          "type": "string"
        },
        {
          "internalType": "string",
          "name": "version",
          "type": "string"
        }
      ],
      "name": "registerDomainSeparator",
      "outputs": [],
      "stateMutability": "nonpayable",
      "type": "function"
    },
    {
      "inputs": [
        {
          "internalType": "string",
          "name": "typeName",
          "type": "string"
        },
        {
          "internalType": "string",
          "name": "typeSuffix",
          "type": "string"
        }
      ],
      "name": "registerRequestType",
      "outputs": [],
      "stateMutability": "nonpayable",
      "type": "function"
    },
    {
      "inputs": [
        {
          "internalType": "bytes4",
          "name": "interfaceId",
          "type": "bytes4"
        }
      ],
      "name": "supportsInterface",
      "outputs": [
        {
          "internalType": "bool",
          "name": "",
          "type": "bool"
        }
      ],
      "stateMutability": "view",
      "type": "function"
    },
    {
      "inputs": [
        {
          "internalType": "bytes32",
          "name": "",
          "type": "bytes32"
        }
      ],
      "name": "typeHashes",
      "outputs": [
        {
          "internalType": "bool",
          "name": "",
          "type": "bool"
        }
      ],
      "stateMutability": "view",
      "type": "function"
    },
    {
      "inputs": [
        {
          "components": [
            {
              "internalType": "address",
              "name": "from",
              "type": "address"
            },
            {
              "internalType": "address",
              "name": "to",
              "type": "address"
            },
            {
              "internalType": "uint256",
              "name": "value",
              "type": "uint256"
            },
            {
              "internalType": "uint256",
              "name": "gas",
              "type": "uint256"
            },
            {
              "internalType": "uint256",
              "name": "nonce",
              "type": "uint256"
            },
            {
              "internalType": "bytes",
              "name": "data",
              "type": "bytes"
            },
            {
              "internalType": "uint256",
              "name": "validUntilTime",
              "type": "uint256"
            }
          ],
          "internalType": "struct IForwarder.ForwardRequest",
          "name": "req",
          "type": "tuple"
        },
        {
          "internalType": "bytes32",
          "name": "domainSeparator",
          "type": "bytes32"
        },
        {
          "internalType": "bytes32",
          "name": "requestTypeHash",
          "type": "bytes32"
        },
        {
          "internalType": "bytes",
          "name": "suffixData",
          "type": "bytes"
        },
        {
          "internalType": "bytes",
          "name": "sig",
          "type": "bytes"
        }
      ],
      "name": "verify",
      "outputs": [],
      "stateMutability": "view",
      "type": "function"
    },
    {
      "stateMutability": "payable",
      "type": "receive"
    }
  ],
  "bytecode": "0x60806040523480156200001157600080fd5b5060006040518060a00160405280606181526020016200265660619139604051602001620000409190620001f7565b604051602081830303815290604052905062000062816200006960201b60201c565b50620002b1565b600081805190602001209050600160008083815260200190815260200160002060006101000a81548160ff021916908315150217905550807f64d6bce64323458c44643c51fe45113efc882082f7b7fd5f09f0d69d2eedb20283604051620000d291906200028d565b60405180910390a25050565b600081905092915050565b7f466f727761726452657175657374280000000000000000000000000000000000600082015250565b600062000121600f83620000de565b91506200012e82620000e9565b600f82019050919050565b600081519050919050565b60005b838110156200016457808201518184015260208101905062000147565b60008484015250505050565b60006200017d8262000139565b620001898185620000de565b93506200019b81856020860162000144565b80840191505092915050565b7f2900000000000000000000000000000000000000000000000000000000000000600082015250565b6000620001df600183620000de565b9150620001ec82620001a7565b600182019050919050565b6000620002048262000112565b915062000212828462000170565b91506200021f82620001d0565b915081905092915050565b600082825260208201905092915050565b6000601f19601f8301169050919050565b6000620002598262000139565b6200026581856200022a565b93506200027781856020860162000144565b62000282816200023b565b840191505092915050565b60006020820190508181036000830152620002a981846200024c565b905092915050565b61239580620002c16000396000f3fe6080604052600436106100a05760003560e01c8063ad9f99c711610064578063ad9f99c7146101b7578063c3f28abd146101e0578063c722f1771461020b578063d9210be514610248578063e024dc7f14610271578063e2b62f2d146102a2576100a7565b806301ffc9a7146100ac578063066a310c146100e957806321fe98df146101145780632d0335ab146101515780639c7b45921461018e576100a7565b366100a757005b600080fd5b3480156100b857600080fd5b506100d360048036038101906100ce91906112ed565b6102df565b6040516100e09190611335565b60405180910390f35b3480156100f557600080fd5b506100fe610359565b60405161010b91906113e0565b60405180910390f35b34801561012057600080fd5b5061013b60048036038101906101369190611438565b610375565b6040516101489190611335565b60405180910390f35b34801561015d57600080fd5b50610178600480360381019061017391906114c3565b610395565b6040516101859190611509565b60405180910390f35b34801561019a57600080fd5b506101b560048036038101906101b09190611589565b6103de565b005b3480156101c357600080fd5b506101de60048036038101906101d99190611684565b6104d4565b005b3480156101ec57600080fd5b506101f56104f5565b60405161020291906113e0565b60405180910390f35b34801561021757600080fd5b50610232600480360381019061022d9190611438565b610511565b60405161023f9190611335565b60405180910390f35b34801561025457600080fd5b5061026f600480360381019061026a9190611589565b610531565b005b61028b60048036038101906102869190611684565b61069c565b6040516102999291906117b1565b60405180910390f35b3480156102ae57600080fd5b506102c960048036038101906102c491906117e1565b610929565b6040516102d69190611871565b60405180910390f35b60007f25e23e64000000000000000000000000000000000000000000000000000000007bffffffffffffffffffffffffffffffffffffffffffffffffffffffff1916827bffffffffffffffffffffffffffffffffffffffffffffffffffffffff191614806103525750610351826109ec565b5b9050919050565b6040518060a00160405280606181526020016122ad6061913981565b60006020528060005260406000206000915054906101000a900460ff1681565b6000600260008373ffffffffffffffffffffffffffffffffffffffff1673ffffffffffffffffffffffffffffffffffffffff168152602001908152602001600020549050919050565b6000469050600060405180608001604052806052815260200161230e605291398051906020012086866040516104159291906118d2565b6040518091039020858560405161042d9291906118d2565b6040518091039020843060405160200161044b959493929190611909565b6040516020818303038152906040529050600081805190602001209050600180600083815260200190815260200160002060006101000a81548160ff021916908315150217905550807f4bc68689cbe89a4a6333a3ab0a70093874da3e5bfb71e93102027f3f073687d8836040516104c39190611871565b60405180910390a250505050505050565b6104dd87610a56565b6104ec87878787878787610af0565b50505050505050565b60405180608001604052806052815260200161230e6052913981565b60016020528060005260406000206000915054906101000a900460ff1681565b60005b848490508110156106475760008585838181106105545761055361195c565b5b9050013560f81c60f81b90507f2800000000000000000000000000000000000000000000000000000000000000817effffffffffffffffffffffffffffffffffffffffffffffffffffffffffffff1916141580156105f457507f2900000000000000000000000000000000000000000000000000000000000000817effffffffffffffffffffffffffffffffffffffffffffffffffffffffffffff191614155b610633576040517f08c379a000000000000000000000000000000000000000000000000000000000815260040161062a906119d7565b60405180910390fd5b50808061063f90611a26565b915050610534565b50600084846040518060a00160405280606181526020016122ad60619139858560405160200161067b959493929190611b67565b604051602081830303815290604052905061069581610d05565b5050505050565b600060606106af89898989898989610af0565b6106b889610d78565b60008960c0013514806106ce5750428960c00135115b61070d576040517f08c379a000000000000000000000000000000000000000000000000000000000815260040161070490611bfe565b60405180910390fd5b6000808a604001351461072057619c4090505b60008a8060a001906107329190611c2d565b8c600001602081019061074591906114c3565b60405160200161075793929190611cd8565b6040516020818303038152906040529050818b606001356107789190611d02565b6040603f5a6107879190611d36565b6107919190611da7565b10156107d2576040517f08c379a00000000000000000000000000000000000000000000000000000000081526004016107c990611e24565b60405180910390fd5b8a60200160208101906107e591906114c3565b73ffffffffffffffffffffffffffffffffffffffff168b606001358c60400135836040516108139190611e75565b600060405180830381858888f193505050503d8060008114610851576040519150601f19603f3d011682016040523d82523d6000602084013e610856565b606091505b50809450819550505061089e6040518060400160405280602081526020017f6578656375746520726573756c743a20737563636573733a202573207265743a81525085610e26565b6108a783610ec2565b60008b60400135141580156108bc5750600047115b1561091b578a60000160208101906108d491906114c3565b73ffffffffffffffffffffffffffffffffffffffff166108fc479081150290604051600060405180830381858888f19350505050158015610919573d6000803e3d6000fd5b505b505097509795505050505050565b60608385600001602081019061093f91906114c3565b73ffffffffffffffffffffffffffffffffffffffff1686602001602081019061096891906114c3565b73ffffffffffffffffffffffffffffffffffffffff168760400135886060013589608001358a8060a0019061099d9190611c2d565b6040516109ab9291906118d2565b60405180910390208b60c001358a8a6040516020016109d39a99989796959493929190611ece565b6040516020818303038152906040529050949350505050565b60007f01ffc9a7000000000000000000000000000000000000000000000000000000007bffffffffffffffffffffffffffffffffffffffffffffffffffffffff1916827bffffffffffffffffffffffffffffffffffffffffffffffffffffffff1916149050919050565b806080013560026000836000016020810190610a7291906114c3565b73ffffffffffffffffffffffffffffffffffffffff1673ffffffffffffffffffffffffffffffffffffffff1681526020019081526020016000205414610aed576040517f08c379a0000000000000000000000000000000000000000000000000000000008152600401610ae490611fbb565b60405180910390fd5b50565b6001600087815260200190815260200160002060009054906101000a900460ff16610b50576040517f08c379a0000000000000000000000000000000000000000000000000000000008152600401610b4790612027565b60405180910390fd5b60008086815260200190815260200160002060009054906101000a900460ff16610baf576040517f08c379a0000000000000000000000000000000000000000000000000000000008152600401610ba690612093565b60405180910390fd5b600086610bbe89888888610929565b80519060200120604051602001610bd69291906120ff565b604051602081830303815290604052805190602001209050600073ffffffffffffffffffffffffffffffffffffffff163273ffffffffffffffffffffffffffffffffffffffff161480610cbc5750876000016020810190610c3791906114c3565b73ffffffffffffffffffffffffffffffffffffffff16610ca484848080601f016020809104026020016040519081016040528093929190818152602001838380828437600081840152601f19601f8201169050808301925050505050505083610f5b90919063ffffffff16565b73ffffffffffffffffffffffffffffffffffffffff16145b610cfb576040517f08c379a0000000000000000000000000000000000000000000000000000000008152600401610cf290612182565b60405180910390fd5b5050505050505050565b600081805190602001209050600160008083815260200190815260200160002060006101000a81548160ff021916908315150217905550807f64d6bce64323458c44643c51fe45113efc882082f7b7fd5f09f0d69d2eedb20283604051610d6c91906113e0565b60405180910390a25050565b806080013560026000836000016020810190610d9491906114c3565b73ffffffffffffffffffffffffffffffffffffffff1673ffffffffffffffffffffffffffffffffffffffff1681526020019081526020016000206000815480929190610ddf90611a26565b9190505514610e23576040517f08c379a0000000000000000000000000000000000000000000000000000000008152600401610e1a90611fbb565b60405180910390fd5b50565b610ebe8282604051602401610e3c9291906121a2565b6040516020818303038152906040527fc3b55635000000000000000000000000000000000000000000000000000000007bffffffffffffffffffffffffffffffffffffffffffffffffffffffff19166020820180517bffffffffffffffffffffffffffffffffffffffffffffffffffffffff8381831617835250505050610f87565b5050565b610f5881604051602401610ed69190611871565b6040516020818303038152906040527f0be77f56000000000000000000000000000000000000000000000000000000007bffffffffffffffffffffffffffffffffffffffffffffffffffffffff19166020820180517bffffffffffffffffffffffffffffffffffffffffffffffffffffffff8381831617835250505050610f87565b50565b600080600080610f6b8686610fa1565b925092509250610f7b8282610ffd565b82935050505092915050565b610f9e81610f96611161611182565b63ffffffff16565b50565b60008060006041845103610fe65760008060006020870151925060408701519150606087015160001a9050610fd88882858561118d565b955095509550505050610ff6565b60006002855160001b9250925092505b9250925092565b60006003811115611011576110106121d2565b5b826003811115611024576110236121d2565b5b031561115d576001600381111561103e5761103d6121d2565b5b826003811115611051576110506121d2565b5b03611088576040517ff645eedf00000000000000000000000000000000000000000000000000000000815260040160405180910390fd5b6002600381111561109c5761109b6121d2565b5b8260038111156110af576110ae6121d2565b5b036110f4578060001c6040517ffce698f70000000000000000000000000000000000000000000000000000000081526004016110eb9190611509565b60405180910390fd5b600380811115611107576111066121d2565b5b82600381111561111a576111196121d2565b5b0361115c57806040517fd78bce0c0000000000000000000000000000000000000000000000000000000081526004016111539190612201565b60405180910390fd5b5b5050565b60006a636f6e736f6c652e6c6f679050600080835160208501845afa505050565b611281819050919050565b60008060007f7fffffffffffffffffffffffffffffff5d576e7357a4501ddfe92f46681b20a08460001c11156111cd576000600385925092509250611277565b6000600188888888604051600081526020016040526040516111f29493929190612238565b6020604051602081039080840390855afa158015611214573d6000803e3d6000fd5b505050602060405103519050600073ffffffffffffffffffffffffffffffffffffffff168173ffffffffffffffffffffffffffffffffffffffff160361126857600060016000801b93509350935050611277565b8060008060001b935093509350505b9450945094915050565b61128961227d565b565b600080fd5b600080fd5b60007fffffffff0000000000000000000000000000000000000000000000000000000082169050919050565b6112ca81611295565b81146112d557600080fd5b50565b6000813590506112e7816112c1565b92915050565b6000602082840312156113035761130261128b565b5b6000611311848285016112d8565b91505092915050565b60008115159050919050565b61132f8161131a565b82525050565b600060208201905061134a6000830184611326565b92915050565b600081519050919050565b600082825260208201905092915050565b60005b8381101561138a57808201518184015260208101905061136f565b60008484015250505050565b6000601f19601f8301169050919050565b60006113b282611350565b6113bc818561135b565b93506113cc81856020860161136c565b6113d581611396565b840191505092915050565b600060208201905081810360008301526113fa81846113a7565b905092915050565b6000819050919050565b61141581611402565b811461142057600080fd5b50565b6000813590506114328161140c565b92915050565b60006020828403121561144e5761144d61128b565b5b600061145c84828501611423565b91505092915050565b600073ffffffffffffffffffffffffffffffffffffffff82169050919050565b600061149082611465565b9050919050565b6114a081611485565b81146114ab57600080fd5b50565b6000813590506114bd81611497565b92915050565b6000602082840312156114d9576114d861128b565b5b60006114e7848285016114ae565b91505092915050565b6000819050919050565b611503816114f0565b82525050565b600060208201905061151e60008301846114fa565b92915050565b600080fd5b600080fd5b600080fd5b60008083601f84011261154957611548611524565b5b8235905067ffffffffffffffff81111561156657611565611529565b5b6020830191508360018202830111156115825761158161152e565b5b9250929050565b600080600080604085870312156115a3576115a261128b565b5b600085013567ffffffffffffffff8111156115c1576115c0611290565b5b6115cd87828801611533565b9450945050602085013567ffffffffffffffff8111156115f0576115ef611290565b5b6115fc87828801611533565b925092505092959194509250565b600080fd5b600060e082840312156116255761162461160a565b5b81905092915050565b60008083601f84011261164457611643611524565b5b8235905067ffffffffffffffff81111561166157611660611529565b5b60208301915083600182028301111561167d5761167c61152e565b5b9250929050565b600080600080600080600060a0888a0312156116a3576116a261128b565b5b600088013567ffffffffffffffff8111156116c1576116c0611290565b5b6116cd8a828b0161160f565b97505060206116de8a828b01611423565b96505060406116ef8a828b01611423565b955050606088013567ffffffffffffffff8111156117105761170f611290565b5b61171c8a828b0161162e565b9450945050608088013567ffffffffffffffff81111561173f5761173e611290565b5b61174b8a828b0161162e565b925092505092959891949750929550565b600081519050919050565b600082825260208201905092915050565b60006117838261175c565b61178d8185611767565b935061179d81856020860161136c565b6117a681611396565b840191505092915050565b60006040820190506117c66000830185611326565b81810360208301526117d88184611778565b90509392505050565b600080600080606085870312156117fb576117fa61128b565b5b600085013567ffffffffffffffff81111561181957611818611290565b5b6118258782880161160f565b945050602061183687828801611423565b935050604085013567ffffffffffffffff81111561185757611856611290565b5b6118638782880161162e565b925092505092959194509250565b6000602082019050818103600083015261188b8184611778565b905092915050565b600081905092915050565b82818337600083830152505050565b60006118b98385611893565b93506118c683858461189e565b82840190509392505050565b60006118df8284866118ad565b91508190509392505050565b6118f481611402565b82525050565b61190381611485565b82525050565b600060a08201905061191e60008301886118eb565b61192b60208301876118eb565b61193860408301866118eb565b61194560608301856114fa565b61195260808301846118fa565b9695505050505050565b7f4e487b7100000000000000000000000000000000000000000000000000000000600052603260045260246000fd5b7f4657443a20696e76616c696420747970656e616d650000000000000000000000600082015250565b60006119c160158361135b565b91506119cc8261198b565b602082019050919050565b600060208201905081810360008301526119f0816119b4565b9050919050565b7f4e487b7100000000000000000000000000000000000000000000000000000000600052601160045260246000fd5b6000611a31826114f0565b91507fffffffffffffffffffffffffffffffffffffffffffffffffffffffffffffffff8203611a6357611a626119f7565b5b600182019050919050565b600081905092915050565b6000611a858385611a6e565b9350611a9283858461189e565b82840190509392505050565b7f2800000000000000000000000000000000000000000000000000000000000000600082015250565b6000611ad4600183611a6e565b9150611adf82611a9e565b600182019050919050565b6000611af582611350565b611aff8185611a6e565b9350611b0f81856020860161136c565b80840191505092915050565b7f2c00000000000000000000000000000000000000000000000000000000000000600082015250565b6000611b51600183611a6e565b9150611b5c82611b1b565b600182019050919050565b6000611b74828789611a79565b9150611b7f82611ac7565b9150611b8b8286611aea565b9150611b9682611b44565b9150611ba3828486611a79565b91508190509695505050505050565b7f4657443a20726571756573742065787069726564000000000000000000000000600082015250565b6000611be860148361135b565b9150611bf382611bb2565b602082019050919050565b60006020820190508181036000830152611c1781611bdb565b9050919050565b600080fd5b600080fd5b600080fd5b60008083356001602003843603038112611c4a57611c49611c1e565b5b80840192508235915067ffffffffffffffff821115611c6c57611c6b611c23565b5b602083019250600182023603831315611c8857611c87611c28565b5b509250929050565b60008160601b9050919050565b6000611ca882611c90565b9050919050565b6000611cba82611c9d565b9050919050565b611cd2611ccd82611485565b611caf565b82525050565b6000611ce58285876118ad565b9150611cf18284611cc1565b601482019150819050949350505050565b6000611d0d826114f0565b9150611d18836114f0565b9250828201905080821115611d3057611d2f6119f7565b5b92915050565b6000611d41826114f0565b9150611d4c836114f0565b9250828202611d5a816114f0565b91508282048414831517611d7157611d706119f7565b5b5092915050565b7f4e487b7100000000000000000000000000000000000000000000000000000000600052601260045260246000fd5b6000611db2826114f0565b9150611dbd836114f0565b925082611dcd57611dcc611d78565b5b828204905092915050565b7f4657443a20696e73756666696369656e74206761730000000000000000000000600082015250565b6000611e0e60158361135b565b9150611e1982611dd8565b602082019050919050565b60006020820190508181036000830152611e3d81611e01565b9050919050565b6000611e4f8261175c565b611e598185611893565b9350611e6981856020860161136c565b80840191505092915050565b6000611e818284611e44565b915081905092915050565b6000819050919050565b611ea7611ea282611402565b611e8c565b82525050565b6000819050919050565b611ec8611ec3826114f0565b611ead565b82525050565b6000611eda828d611e96565b602082019150611eea828c611eb7565b602082019150611efa828b611eb7565b602082019150611f0a828a611eb7565b602082019150611f1a8289611eb7565b602082019150611f2a8288611eb7565b602082019150611f3a8287611e96565b602082019150611f4a8286611eb7565b602082019150611f5b8284866118ad565b91508190509b9a5050505050505050505050565b7f4657443a206e6f6e6365206d69736d6174636800000000000000000000000000600082015250565b6000611fa560138361135b565b9150611fb082611f6f565b602082019050919050565b60006020820190508181036000830152611fd481611f98565b9050919050565b7f4657443a20756e7265676973746572656420646f6d61696e207365702e000000600082015250565b6000612011601d8361135b565b915061201c82611fdb565b602082019050919050565b6000602082019050818103600083015261204081612004565b9050919050565b7f4657443a20756e72656769737465726564207479706568617368000000000000600082015250565b600061207d601a8361135b565b915061208882612047565b602082019050919050565b600060208201905081810360008301526120ac81612070565b9050919050565b7f1901000000000000000000000000000000000000000000000000000000000000600082015250565b60006120e9600283611a6e565b91506120f4826120b3565b600282019050919050565b600061210a826120dc565b91506121168285611e96565b6020820191506121268284611e96565b6020820191508190509392505050565b7f4657443a207369676e6174757265206d69736d61746368000000000000000000600082015250565b600061216c60178361135b565b915061217782612136565b602082019050919050565b6000602082019050818103600083015261219b8161215f565b9050919050565b600060408201905081810360008301526121bc81856113a7565b90506121cb6020830184611326565b9392505050565b7f4e487b7100000000000000000000000000000000000000000000000000000000600052602160045260246000fd5b600060208201905061221660008301846118eb565b92915050565b600060ff82169050919050565b6122328161221c565b82525050565b600060808201905061224d60008301876118eb565b61225a6020830186612229565b61226760408301856118eb565b61227460608301846118eb565b95945050505050565b7f4e487b7100000000000000000000000000000000000000000000000000000000600052605160045260246000fdfe616464726573732066726f6d2c6164647265737320746f2c75696e743235362076616c75652c75696e74323536206761732c75696e74323536206e6f6e63652c627974657320646174612c75696e743235362076616c6964556e74696c54696d65454950373132446f6d61696e28737472696e67206e616d652c737472696e672076657273696f6e2c75696e7432353620636861696e49642c6164647265737320766572696679696e67436f6e747261637429a2646970667358221220d198b9e2065f5957e1f7b67d7cd4679fd5e5550e605e0c11a6f4a5aa0022e7e864736f6c63430008140033616464726573732066726f6d2c6164647265737320746f2c75696e743235362076616c75652c75696e74323536206761732c75696e74323536206e6f6e63652c627974657320646174612c75696e743235362076616c6964556e74696c54696d65",
  "linkReferences": {},
  "deployedLinkReferences": {}
}